{
  "contractName": "NFTMarketplace",
  "abi": [
    {
      "inputs": [],
      "stateMutability": "nonpayable",
      "type": "constructor"
    },
    {
      "anonymous": false,
      "inputs": [
        {
          "indexed": true,
          "internalType": "address",
          "name": "owner",
          "type": "address"
        },
        {
          "indexed": true,
          "internalType": "address",
          "name": "approved",
          "type": "address"
        },
        {
          "indexed": true,
          "internalType": "uint256",
          "name": "tokenId",
          "type": "uint256"
        }
      ],
      "name": "Approval",
      "type": "event"
    },
    {
      "anonymous": false,
      "inputs": [
        {
          "indexed": true,
          "internalType": "address",
          "name": "owner",
          "type": "address"
        },
        {
          "indexed": true,
          "internalType": "address",
          "name": "operator",
          "type": "address"
        },
        {
          "indexed": false,
          "internalType": "bool",
          "name": "approved",
          "type": "bool"
        }
      ],
      "name": "ApprovalForAll",
      "type": "event"
    },
    {
      "anonymous": false,
      "inputs": [
        {
          "indexed": true,
          "internalType": "uint256",
          "name": "tokenId",
          "type": "uint256"
        },
        {
          "indexed": false,
          "internalType": "address",
          "name": "seller",
          "type": "address"
        },
        {
          "indexed": false,
          "internalType": "address",
          "name": "owner",
          "type": "address"
        },
        {
          "indexed": false,
          "internalType": "uint256",
          "name": "price",
          "type": "uint256"
        },
        {
          "indexed": false,
          "internalType": "bool",
          "name": "sold",
          "type": "bool"
        }
      ],
      "name": "MarketItemCreated",
      "type": "event"
    },
    {
      "anonymous": false,
      "inputs": [
        {
          "indexed": true,
          "internalType": "address",
          "name": "from",
          "type": "address"
        },
        {
          "indexed": true,
          "internalType": "address",
          "name": "to",
          "type": "address"
        },
        {
          "indexed": true,
          "internalType": "uint256",
          "name": "tokenId",
          "type": "uint256"
        }
      ],
      "name": "Transfer",
      "type": "event"
    },
    {
      "inputs": [
        {
          "internalType": "address",
          "name": "to",
          "type": "address"
        },
        {
          "internalType": "uint256",
          "name": "tokenId",
          "type": "uint256"
        }
      ],
      "name": "approve",
      "outputs": [],
      "stateMutability": "nonpayable",
      "type": "function"
    },
    {
      "inputs": [
        {
          "internalType": "address",
          "name": "owner",
          "type": "address"
        }
      ],
      "name": "balanceOf",
      "outputs": [
        {
          "internalType": "uint256",
          "name": "",
          "type": "uint256"
        }
      ],
      "stateMutability": "view",
      "type": "function",
      "constant": true
    },
    {
      "inputs": [
        {
          "internalType": "uint256",
          "name": "tokenId",
          "type": "uint256"
        }
      ],
      "name": "getApproved",
      "outputs": [
        {
          "internalType": "address",
          "name": "",
          "type": "address"
        }
      ],
      "stateMutability": "view",
      "type": "function",
      "constant": true
    },
    {
      "inputs": [
        {
          "internalType": "address",
          "name": "owner",
          "type": "address"
        },
        {
          "internalType": "address",
          "name": "operator",
          "type": "address"
        }
      ],
      "name": "isApprovedForAll",
      "outputs": [
        {
          "internalType": "bool",
          "name": "",
          "type": "bool"
        }
      ],
      "stateMutability": "view",
      "type": "function",
      "constant": true
    },
    {
      "inputs": [],
      "name": "name",
      "outputs": [
        {
          "internalType": "string",
          "name": "",
          "type": "string"
        }
      ],
      "stateMutability": "view",
      "type": "function",
      "constant": true
    },
    {
      "inputs": [
        {
          "internalType": "uint256",
          "name": "tokenId",
          "type": "uint256"
        }
      ],
      "name": "ownerOf",
      "outputs": [
        {
          "internalType": "address",
          "name": "",
          "type": "address"
        }
      ],
      "stateMutability": "view",
      "type": "function",
      "constant": true
    },
    {
      "inputs": [
        {
          "internalType": "address",
          "name": "from",
          "type": "address"
        },
        {
          "internalType": "address",
          "name": "to",
          "type": "address"
        },
        {
          "internalType": "uint256",
          "name": "tokenId",
          "type": "uint256"
        }
      ],
      "name": "safeTransferFrom",
      "outputs": [],
      "stateMutability": "nonpayable",
      "type": "function"
    },
    {
      "inputs": [
        {
          "internalType": "address",
          "name": "from",
          "type": "address"
        },
        {
          "internalType": "address",
          "name": "to",
          "type": "address"
        },
        {
          "internalType": "uint256",
          "name": "tokenId",
          "type": "uint256"
        },
        {
          "internalType": "bytes",
          "name": "data",
          "type": "bytes"
        }
      ],
      "name": "safeTransferFrom",
      "outputs": [],
      "stateMutability": "nonpayable",
      "type": "function"
    },
    {
      "inputs": [
        {
          "internalType": "address",
          "name": "operator",
          "type": "address"
        },
        {
          "internalType": "bool",
          "name": "approved",
          "type": "bool"
        }
      ],
      "name": "setApprovalForAll",
      "outputs": [],
      "stateMutability": "nonpayable",
      "type": "function"
    },
    {
      "inputs": [
        {
          "internalType": "bytes4",
          "name": "interfaceId",
          "type": "bytes4"
        }
      ],
      "name": "supportsInterface",
      "outputs": [
        {
          "internalType": "bool",
          "name": "",
          "type": "bool"
        }
      ],
      "stateMutability": "view",
      "type": "function",
      "constant": true
    },
    {
      "inputs": [],
      "name": "symbol",
      "outputs": [
        {
          "internalType": "string",
          "name": "",
          "type": "string"
        }
      ],
      "stateMutability": "view",
      "type": "function",
      "constant": true
    },
    {
      "inputs": [
        {
          "internalType": "uint256",
          "name": "tokenId",
          "type": "uint256"
        }
      ],
      "name": "tokenURI",
      "outputs": [
        {
          "internalType": "string",
          "name": "",
          "type": "string"
        }
      ],
      "stateMutability": "view",
      "type": "function",
      "constant": true
    },
    {
      "inputs": [
        {
          "internalType": "address",
          "name": "from",
          "type": "address"
        },
        {
          "internalType": "address",
          "name": "to",
          "type": "address"
        },
        {
          "internalType": "uint256",
          "name": "tokenId",
          "type": "uint256"
        }
      ],
      "name": "transferFrom",
      "outputs": [],
      "stateMutability": "nonpayable",
      "type": "function"
    },
    {
      "inputs": [
        {
          "internalType": "uint256",
          "name": "_listingPrice",
          "type": "uint256"
        }
      ],
      "name": "updateListingPrice",
      "outputs": [],
      "stateMutability": "payable",
      "type": "function",
      "payable": true
    },
    {
      "inputs": [],
      "name": "getListingPrice",
      "outputs": [
        {
          "internalType": "uint256",
          "name": "",
          "type": "uint256"
        }
      ],
      "stateMutability": "view",
      "type": "function",
      "constant": true
    },
    {
      "inputs": [
        {
          "internalType": "string",
          "name": "tokenURI",
          "type": "string"
        },
        {
          "internalType": "uint256",
          "name": "price",
          "type": "uint256"
        }
      ],
      "name": "createToken",
      "outputs": [
        {
          "internalType": "uint256",
          "name": "",
          "type": "uint256"
        }
      ],
      "stateMutability": "payable",
      "type": "function",
      "payable": true
    },
    {
      "inputs": [
        {
          "internalType": "uint256",
          "name": "tokenId",
          "type": "uint256"
        },
        {
          "internalType": "uint256",
          "name": "price",
          "type": "uint256"
        }
      ],
      "name": "resellToken",
      "outputs": [],
      "stateMutability": "payable",
      "type": "function",
      "payable": true
    },
    {
      "inputs": [
        {
          "internalType": "uint256",
          "name": "tokenId",
          "type": "uint256"
        }
      ],
      "name": "createMarketSale",
      "outputs": [],
      "stateMutability": "payable",
      "type": "function",
      "payable": true
    },
    {
      "inputs": [],
      "name": "fetchMarketItems",
      "outputs": [
        {
          "components": [
            {
              "internalType": "uint256",
              "name": "tokenId",
              "type": "uint256"
            },
            {
              "internalType": "address payable",
              "name": "seller",
              "type": "address"
            },
            {
              "internalType": "address payable",
              "name": "owner",
              "type": "address"
            },
            {
              "internalType": "uint256",
              "name": "price",
              "type": "uint256"
            },
            {
              "internalType": "bool",
              "name": "sold",
              "type": "bool"
            }
          ],
          "internalType": "struct NFTMarketplace.MarketItem[]",
          "name": "",
          "type": "tuple[]"
        }
      ],
      "stateMutability": "view",
      "type": "function",
      "constant": true
    },
    {
      "inputs": [],
      "name": "fetchMyNFTs",
      "outputs": [
        {
          "components": [
            {
              "internalType": "uint256",
              "name": "tokenId",
              "type": "uint256"
            },
            {
              "internalType": "address payable",
              "name": "seller",
              "type": "address"
            },
            {
              "internalType": "address payable",
              "name": "owner",
              "type": "address"
            },
            {
              "internalType": "uint256",
              "name": "price",
              "type": "uint256"
            },
            {
              "internalType": "bool",
              "name": "sold",
              "type": "bool"
            }
          ],
          "internalType": "struct NFTMarketplace.MarketItem[]",
          "name": "",
          "type": "tuple[]"
        }
      ],
      "stateMutability": "view",
      "type": "function",
      "constant": true
    },
    {
      "inputs": [],
      "name": "fetchItemsListed",
      "outputs": [
        {
          "components": [
            {
              "internalType": "uint256",
              "name": "tokenId",
              "type": "uint256"
            },
            {
              "internalType": "address payable",
              "name": "seller",
              "type": "address"
            },
            {
              "internalType": "address payable",
              "name": "owner",
              "type": "address"
            },
            {
              "internalType": "uint256",
              "name": "price",
              "type": "uint256"
            },
            {
              "internalType": "bool",
              "name": "sold",
              "type": "bool"
            }
          ],
          "internalType": "struct NFTMarketplace.MarketItem[]",
          "name": "",
          "type": "tuple[]"
        }
      ],
      "stateMutability": "view",
      "type": "function",
      "constant": true
    }
  ],
  "bytecode": "0x60806040526658d15e176280006009553480156200001c57600080fd5b506040518060400160405280600e81526020017f4e46544d61726b6574706c6163650000000000000000000000000000000000008152506040518060400160405280600481526020017f4d455454000000000000000000000000000000000000000000000000000000008152508160009080519060200190620000a192919062000104565b508060019080519060200190620000ba92919062000104565b50505033600a60006101000a81548173ffffffffffffffffffffffffffffffffffffffff021916908373ffffffffffffffffffffffffffffffffffffffff16021790555062000219565b8280546200011290620001b4565b90600052602060002090601f01602090048101928262000136576000855562000182565b82601f106200015157805160ff191683800117855562000182565b8280016001018555821562000182579182015b828111156200018157825182559160200191906001019062000164565b5b50905062000191919062000195565b5090565b5b80821115620001b057600081600090555060010162000196565b5090565b60006002820490506001821680620001cd57607f821691505b60208210811415620001e457620001e3620001ea565b5b50919050565b7f4e487b7100000000000000000000000000000000000000000000000000000000600052602260045260246000fd5b61433280620002296000396000f3fe60806040526004361061012a5760003560e01c80636352211e116100ab578063ae677aa31161006f578063ae677aa3146103f9578063b88d4fde14610415578063be9af5361461043e578063c87b56dd1461045a578063e219fc7514610497578063e985e9c5146104b35761012a565b80636352211e146102fb57806370a082311461033857806372b3b6201461037557806395d89b41146103a5578063a22cb465146103d05761012a565b806312e85585116100f257806312e8558514610228578063202e37401461025357806323b872dd1461027e57806342842e0e146102a757806345f8fa80146102d05761012a565b806301ffc9a71461012f57806306fdde031461016c578063081812fc14610197578063095ea7b3146101d45780630f08efe0146101fd575b600080fd5b34801561013b57600080fd5b50610156600480360381019061015191906130df565b6104f0565b6040516101639190613750565b60405180910390f35b34801561017857600080fd5b506101816105d2565b60405161018e919061376b565b60405180910390f35b3480156101a357600080fd5b506101be60048036038101906101b99190613185565b610664565b6040516101cb9190613682565b60405180910390f35b3480156101e057600080fd5b506101fb60048036038101906101f691906130a3565b6106aa565b005b34801561020957600080fd5b506102126107c2565b60405161021f919061372e565b60405180910390f35b34801561023457600080fd5b5061023d610a77565b60405161024a91906139ed565b60405180910390f35b34801561025f57600080fd5b50610268610a81565b604051610275919061372e565b60405180910390f35b34801561028a57600080fd5b506102a560048036038101906102a09190612f9d565b610dbb565b005b3480156102b357600080fd5b506102ce60048036038101906102c99190612f9d565b610e1b565b005b3480156102dc57600080fd5b506102e5610e3b565b6040516102f2919061372e565b60405180910390f35b34801561030757600080fd5b50610322600480360381019061031d9190613185565b611175565b60405161032f9190613682565b60405180910390f35b34801561034457600080fd5b5061035f600480360381019061035a9190612f38565b6111fc565b60405161036c91906139ed565b60405180910390f35b61038f600480360381019061038a9190613131565b6112b4565b60405161039c91906139ed565b60405180910390f35b3480156103b157600080fd5b506103ba6112f6565b6040516103c7919061376b565b60405180910390f35b3480156103dc57600080fd5b506103f760048036038101906103f29190613067565b611388565b005b610413600480360381019061040e9190613185565b61139e565b005b34801561042157600080fd5b5061043c60048036038101906104379190612fec565b6114c8565b005b61045860048036038101906104539190613185565b61152a565b005b34801561046657600080fd5b50610481600480360381019061047c9190613185565b611762565b60405161048e919061376b565b60405180910390f35b6104b160048036038101906104ac91906131ae565b611875565b005b3480156104bf57600080fd5b506104da60048036038101906104d59190612f61565b611a6a565b6040516104e79190613750565b60405180910390f35b60007f80ac58cd000000000000000000000000000000000000000000000000000000007bffffffffffffffffffffffffffffffffffffffffffffffffffffffff1916827bffffffffffffffffffffffffffffffffffffffffffffffffffffffff191614806105bb57507f5b5e139f000000000000000000000000000000000000000000000000000000007bffffffffffffffffffffffffffffffffffffffffffffffffffffffff1916827bffffffffffffffffffffffffffffffffffffffffffffffffffffffff1916145b806105cb57506105ca82611afe565b5b9050919050565b6060600080546105e190613c5d565b80601f016020809104026020016040519081016040528092919081815260200182805461060d90613c5d565b801561065a5780601f1061062f5761010080835404028352916020019161065a565b820191906000526020600020905b81548152906001019060200180831161063d57829003601f168201915b5050505050905090565b600061066f82611b68565b6004600083815260200190815260200160002060009054906101000a900473ffffffffffffffffffffffffffffffffffffffff169050919050565b60006106b582611175565b90508073ffffffffffffffffffffffffffffffffffffffff168373ffffffffffffffffffffffffffffffffffffffff161415610726576040517f08c379a000000000000000000000000000000000000000000000000000000000815260040161071d9061394d565b60405180910390fd5b8073ffffffffffffffffffffffffffffffffffffffff16610745611bb3565b73ffffffffffffffffffffffffffffffffffffffff16148061077457506107738161076e611bb3565b611a6a565b5b6107b3576040517f08c379a00000000000000000000000000000000000000000000000000000000081526004016107aa9061398d565b60405180910390fd5b6107bd8383611bbb565b505050565b606060006107d06007611c74565b905060006107de6008611c74565b6107e86007611c74565b6107f29190613b61565b90506000808267ffffffffffffffff811115610837577f4e487b7100000000000000000000000000000000000000000000000000000000600052604160045260246000fd5b60405190808252806020026020018201604052801561087057816020015b61085d612cff565b8152602001906001900390816108555790505b50905060005b84811015610a6c573073ffffffffffffffffffffffffffffffffffffffff16600b60006001846108a69190613b0b565b815260200190815260200160002060020160009054906101000a900473ffffffffffffffffffffffffffffffffffffffff1673ffffffffffffffffffffffffffffffffffffffff161415610a595760006001826109039190613b0b565b90506000600b60008381526020019081526020016000209050806040518060a0016040529081600082015481526020016001820160009054906101000a900473ffffffffffffffffffffffffffffffffffffffff1673ffffffffffffffffffffffffffffffffffffffff1673ffffffffffffffffffffffffffffffffffffffff1681526020016002820160009054906101000a900473ffffffffffffffffffffffffffffffffffffffff1673ffffffffffffffffffffffffffffffffffffffff1673ffffffffffffffffffffffffffffffffffffffff168152602001600382015481526020016004820160009054906101000a900460ff161515151581525050848681518110610a3c577f4e487b7100000000000000000000000000000000000000000000000000000000600052603260045260246000fd5b6020026020010181905250600185610a549190613b0b565b945050505b8080610a6490613cc0565b915050610876565b508094505050505090565b6000600954905090565b60606000610a8f6007611c74565b905060008060005b83811015610b38573373ffffffffffffffffffffffffffffffffffffffff16600b6000600184610ac79190613b0b565b815260200190815260200160002060020160009054906101000a900473ffffffffffffffffffffffffffffffffffffffff1673ffffffffffffffffffffffffffffffffffffffff161415610b2557600183610b229190613b0b565b92505b8080610b3090613cc0565b915050610a97565b5060008267ffffffffffffffff811115610b7b577f4e487b7100000000000000000000000000000000000000000000000000000000600052604160045260246000fd5b604051908082528060200260200182016040528015610bb457816020015b610ba1612cff565b815260200190600190039081610b995790505b50905060005b84811015610db0573373ffffffffffffffffffffffffffffffffffffffff16600b6000600184610bea9190613b0b565b815260200190815260200160002060020160009054906101000a900473ffffffffffffffffffffffffffffffffffffffff1673ffffffffffffffffffffffffffffffffffffffff161415610d9d576000600182610c479190613b0b565b90506000600b60008381526020019081526020016000209050806040518060a0016040529081600082015481526020016001820160009054906101000a900473ffffffffffffffffffffffffffffffffffffffff1673ffffffffffffffffffffffffffffffffffffffff1673ffffffffffffffffffffffffffffffffffffffff1681526020016002820160009054906101000a900473ffffffffffffffffffffffffffffffffffffffff1673ffffffffffffffffffffffffffffffffffffffff1673ffffffffffffffffffffffffffffffffffffffff168152602001600382015481526020016004820160009054906101000a900460ff161515151581525050848681518110610d80577f4e487b7100000000000000000000000000000000000000000000000000000000600052603260045260246000fd5b6020026020010181905250600185610d989190613b0b565b945050505b8080610da890613cc0565b915050610bba565b508094505050505090565b610dcc610dc6611bb3565b82611c82565b610e0b576040517f08c379a0000000000000000000000000000000000000000000000000000000008152600401610e029061378d565b60405180910390fd5b610e16838383611d17565b505050565b610e36838383604051806020016040528060008152506114c8565b505050565b60606000610e496007611c74565b905060008060005b83811015610ef2573373ffffffffffffffffffffffffffffffffffffffff16600b6000600184610e819190613b0b565b815260200190815260200160002060010160009054906101000a900473ffffffffffffffffffffffffffffffffffffffff1673ffffffffffffffffffffffffffffffffffffffff161415610edf57600183610edc9190613b0b565b92505b8080610eea90613cc0565b915050610e51565b5060008267ffffffffffffffff811115610f35577f4e487b7100000000000000000000000000000000000000000000000000000000600052604160045260246000fd5b604051908082528060200260200182016040528015610f6e57816020015b610f5b612cff565b815260200190600190039081610f535790505b50905060005b8481101561116a573373ffffffffffffffffffffffffffffffffffffffff16600b6000600184610fa49190613b0b565b815260200190815260200160002060010160009054906101000a900473ffffffffffffffffffffffffffffffffffffffff1673ffffffffffffffffffffffffffffffffffffffff1614156111575760006001826110019190613b0b565b90506000600b60008381526020019081526020016000209050806040518060a0016040529081600082015481526020016001820160009054906101000a900473ffffffffffffffffffffffffffffffffffffffff1673ffffffffffffffffffffffffffffffffffffffff1673ffffffffffffffffffffffffffffffffffffffff1681526020016002820160009054906101000a900473ffffffffffffffffffffffffffffffffffffffff1673ffffffffffffffffffffffffffffffffffffffff1673ffffffffffffffffffffffffffffffffffffffff168152602001600382015481526020016004820160009054906101000a900460ff16151515158152505084868151811061113a577f4e487b7100000000000000000000000000000000000000000000000000000000600052603260045260246000fd5b60200260200101819052506001856111529190613b0b565b945050505b808061116290613cc0565b915050610f74565b508094505050505090565b60008061118183612011565b9050600073ffffffffffffffffffffffffffffffffffffffff168173ffffffffffffffffffffffffffffffffffffffff1614156111f3576040517f08c379a00000000000000000000000000000000000000000000000000000000081526004016111ea9061392d565b60405180910390fd5b80915050919050565b60008073ffffffffffffffffffffffffffffffffffffffff168273ffffffffffffffffffffffffffffffffffffffff16141561126d576040517f08c379a00000000000000000000000000000000000000000000000000000000081526004016112649061386d565b60405180910390fd5b600360008373ffffffffffffffffffffffffffffffffffffffff1673ffffffffffffffffffffffffffffffffffffffff168152602001908152602001600020549050919050565b60006112c0600761204e565b60006112cc6007611c74565b90506112d83382612064565b6112e28185612282565b6112ec81846122f6565b8091505092915050565b60606001805461130590613c5d565b80601f016020809104026020016040519081016040528092919081815260200182805461133190613c5d565b801561137e5780601f106113535761010080835404028352916020019161137e565b820191906000526020600020905b81548152906001019060200180831161136157829003601f168201915b5050505050905090565b61139a611393611bb3565b83836124f9565b5050565b600a60009054906101000a900473ffffffffffffffffffffffffffffffffffffffff1673ffffffffffffffffffffffffffffffffffffffff163373ffffffffffffffffffffffffffffffffffffffff161461142e576040517f08c379a00000000000000000000000000000000000000000000000000000000081526004016114259061390d565b60405180910390fd5b3373ffffffffffffffffffffffffffffffffffffffff16600a60009054906101000a900473ffffffffffffffffffffffffffffffffffffffff1673ffffffffffffffffffffffffffffffffffffffff16146114be576040517f08c379a00000000000000000000000000000000000000000000000000000000081526004016114b5906139ad565b60405180910390fd5b8060098190555050565b6114d96114d3611bb3565b83611c82565b611518576040517f08c379a000000000000000000000000000000000000000000000000000000000815260040161150f9061378d565b60405180910390fd5b61152484848484612666565b50505050565b6000600b6000838152602001908152602001600020600301549050803414611587576040517f08c379a000000000000000000000000000000000000000000000000000000000815260040161157e906138ad565b60405180910390fd5b33600b600084815260200190815260200160002060020160006101000a81548173ffffffffffffffffffffffffffffffffffffffff021916908373ffffffffffffffffffffffffffffffffffffffff1602179055506001600b600084815260200190815260200160002060040160006101000a81548160ff0219169083151502179055506000600b600084815260200190815260200160002060010160006101000a81548173ffffffffffffffffffffffffffffffffffffffff021916908373ffffffffffffffffffffffffffffffffffffffff16021790555061166b600861204e565b611676303384611d17565b600a60009054906101000a900473ffffffffffffffffffffffffffffffffffffffff1673ffffffffffffffffffffffffffffffffffffffff166108fc6009549081150290604051600060405180830381858888f193505050501580156116e0573d6000803e3d6000fd5b50600b600083815260200190815260200160002060010160009054906101000a900473ffffffffffffffffffffffffffffffffffffffff1673ffffffffffffffffffffffffffffffffffffffff166108fc349081150290604051600060405180830381858888f1935050505015801561175d573d6000803e3d6000fd5b505050565b606061176d82611b68565b600060066000848152602001908152602001600020805461178d90613c5d565b80601f01602080910402602001604051908101604052809291908181526020018280546117b990613c5d565b80156118065780601f106117db57610100808354040283529160200191611806565b820191906000526020600020905b8154815290600101906020018083116117e957829003601f168201915b5050505050905060006118176126c2565b905060008151141561182d578192505050611870565b60008251111561186257808260405160200161184a92919061365e565b60405160208183030381529060405292505050611870565b61186b846126d9565b925050505b919050565b3373ffffffffffffffffffffffffffffffffffffffff16600b600084815260200190815260200160002060020160009054906101000a900473ffffffffffffffffffffffffffffffffffffffff1673ffffffffffffffffffffffffffffffffffffffff1614611919576040517f08c379a0000000000000000000000000000000000000000000000000000000008152600401611910906138ed565b60405180910390fd5b600954341461195d576040517f08c379a00000000000000000000000000000000000000000000000000000000081526004016119549061396d565b60405180910390fd5b6000600b600084815260200190815260200160002060040160006101000a81548160ff02191690831515021790555080600b60008481526020019081526020016000206003018190555033600b600084815260200190815260200160002060010160006101000a81548173ffffffffffffffffffffffffffffffffffffffff021916908373ffffffffffffffffffffffffffffffffffffffff16021790555030600b600084815260200190815260200160002060020160006101000a81548173ffffffffffffffffffffffffffffffffffffffff021916908373ffffffffffffffffffffffffffffffffffffffff160217905550611a5b6008612741565b611a66333084611d17565b5050565b6000600560008473ffffffffffffffffffffffffffffffffffffffff1673ffffffffffffffffffffffffffffffffffffffff16815260200190815260200160002060008373ffffffffffffffffffffffffffffffffffffffff1673ffffffffffffffffffffffffffffffffffffffff16815260200190815260200160002060009054906101000a900460ff16905092915050565b60007f01ffc9a7000000000000000000000000000000000000000000000000000000007bffffffffffffffffffffffffffffffffffffffffffffffffffffffff1916827bffffffffffffffffffffffffffffffffffffffffffffffffffffffff1916149050919050565b611b718161279d565b611bb0576040517f08c379a0000000000000000000000000000000000000000000000000000000008152600401611ba79061392d565b60405180910390fd5b50565b600033905090565b816004600083815260200190815260200160002060006101000a81548173ffffffffffffffffffffffffffffffffffffffff021916908373ffffffffffffffffffffffffffffffffffffffff160217905550808273ffffffffffffffffffffffffffffffffffffffff16611c2e83611175565b73ffffffffffffffffffffffffffffffffffffffff167f8c5be1e5ebec7d5bd14f71427d1e84f3dd0314c0f7b2291e5b200ac8c7c3b92560405160405180910390a45050565b600081600001549050919050565b600080611c8e83611175565b90508073ffffffffffffffffffffffffffffffffffffffff168473ffffffffffffffffffffffffffffffffffffffff161480611cd05750611ccf8185611a6a565b5b80611d0e57508373ffffffffffffffffffffffffffffffffffffffff16611cf684610664565b73ffffffffffffffffffffffffffffffffffffffff16145b91505092915050565b8273ffffffffffffffffffffffffffffffffffffffff16611d3782611175565b73ffffffffffffffffffffffffffffffffffffffff1614611d8d576040517f08c379a0000000000000000000000000000000000000000000000000000000008152600401611d84906137ed565b60405180910390fd5b600073ffffffffffffffffffffffffffffffffffffffff168273ffffffffffffffffffffffffffffffffffffffff161415611dfd576040517f08c379a0000000000000000000000000000000000000000000000000000000008152600401611df49061382d565b60405180910390fd5b611e0a83838360016127de565b8273ffffffffffffffffffffffffffffffffffffffff16611e2a82611175565b73ffffffffffffffffffffffffffffffffffffffff1614611e80576040517f08c379a0000000000000000000000000000000000000000000000000000000008152600401611e77906137ed565b60405180910390fd5b6004600082815260200190815260200160002060006101000a81549073ffffffffffffffffffffffffffffffffffffffff02191690556001600360008573ffffffffffffffffffffffffffffffffffffffff1673ffffffffffffffffffffffffffffffffffffffff168152602001908152602001600020600082825403925050819055506001600360008473ffffffffffffffffffffffffffffffffffffffff1673ffffffffffffffffffffffffffffffffffffffff16815260200190815260200160002060008282540192505081905550816002600083815260200190815260200160002060006101000a81548173ffffffffffffffffffffffffffffffffffffffff021916908373ffffffffffffffffffffffffffffffffffffffff160217905550808273ffffffffffffffffffffffffffffffffffffffff168473ffffffffffffffffffffffffffffffffffffffff167fddf252ad1be2c89b69c2b068fc378daa952ba7f163c4a11628f55a4df523b3ef60405160405180910390a461200c83838360016127e4565b505050565b60006002600083815260200190815260200160002060009054906101000a900473ffffffffffffffffffffffffffffffffffffffff169050919050565b6001816000016000828254019250508190555050565b600073ffffffffffffffffffffffffffffffffffffffff168273ffffffffffffffffffffffffffffffffffffffff1614156120d4576040517f08c379a00000000000000000000000000000000000000000000000000000000081526004016120cb906138cd565b60405180910390fd5b6120dd8161279d565b1561211d576040517f08c379a00000000000000000000000000000000000000000000000000000000081526004016121149061380d565b60405180910390fd5b61212b6000838360016127de565b6121348161279d565b15612174576040517f08c379a000000000000000000000000000000000000000000000000000000000815260040161216b9061380d565b60405180910390fd5b6001600360008473ffffffffffffffffffffffffffffffffffffffff1673ffffffffffffffffffffffffffffffffffffffff16815260200190815260200160002060008282540192505081905550816002600083815260200190815260200160002060006101000a81548173ffffffffffffffffffffffffffffffffffffffff021916908373ffffffffffffffffffffffffffffffffffffffff160217905550808273ffffffffffffffffffffffffffffffffffffffff16600073ffffffffffffffffffffffffffffffffffffffff167fddf252ad1be2c89b69c2b068fc378daa952ba7f163c4a11628f55a4df523b3ef60405160405180910390a461227e6000838360016127e4565b5050565b61228b8261279d565b6122ca576040517f08c379a00000000000000000000000000000000000000000000000000000000081526004016122c19061388d565b60405180910390fd5b806006600084815260200190815260200160002090805190602001906122f1929190612d5c565b505050565b60008111612339576040517f08c379a0000000000000000000000000000000000000000000000000000000008152600401612330906139cd565b60405180910390fd5b600954341461237d576040517f08c379a00000000000000000000000000000000000000000000000000000000081526004016123749061396d565b60405180910390fd5b6040518060a001604052808381526020013373ffffffffffffffffffffffffffffffffffffffff1681526020013073ffffffffffffffffffffffffffffffffffffffff16815260200182815260200160001515815250600b60008481526020019081526020016000206000820151816000015560208201518160010160006101000a81548173ffffffffffffffffffffffffffffffffffffffff021916908373ffffffffffffffffffffffffffffffffffffffff16021790555060408201518160020160006101000a81548173ffffffffffffffffffffffffffffffffffffffff021916908373ffffffffffffffffffffffffffffffffffffffff1602179055506060820151816003015560808201518160040160006101000a81548160ff0219169083151502179055509050506124b6333084611d17565b817fb640004f1d14576d0c209e240cad0410e0d8c0c33a09375861fbadae2588a98d33308460006040516124ed949392919061369d565b60405180910390a25050565b8173ffffffffffffffffffffffffffffffffffffffff168373ffffffffffffffffffffffffffffffffffffffff161415612568576040517f08c379a000000000000000000000000000000000000000000000000000000000815260040161255f9061384d565b60405180910390fd5b80600560008573ffffffffffffffffffffffffffffffffffffffff1673ffffffffffffffffffffffffffffffffffffffff16815260200190815260200160002060008473ffffffffffffffffffffffffffffffffffffffff1673ffffffffffffffffffffffffffffffffffffffff16815260200190815260200160002060006101000a81548160ff0219169083151502179055508173ffffffffffffffffffffffffffffffffffffffff168373ffffffffffffffffffffffffffffffffffffffff167f17307eab39ab6107e8899845ad3d59bd9653f200f220920489ca2b5937696c31836040516126599190613750565b60405180910390a3505050565b612671848484611d17565b61267d848484846127ea565b6126bc576040517f08c379a00000000000000000000000000000000000000000000000000000000081526004016126b3906137cd565b60405180910390fd5b50505050565b606060405180602001604052806000815250905090565b60606126e482611b68565b60006126ee6126c2565b9050600081511161270e5760405180602001604052806000815250612739565b8061271884612981565b60405160200161272992919061365e565b6040516020818303038152906040525b915050919050565b6000816000015490506000811161278d576040517f08c379a0000000000000000000000000000000000000000000000000000000008152600401612784906137ad565b60405180910390fd5b6001810382600001819055505050565b60008073ffffffffffffffffffffffffffffffffffffffff166127bf83612011565b73ffffffffffffffffffffffffffffffffffffffff1614159050919050565b50505050565b50505050565b600061280b8473ffffffffffffffffffffffffffffffffffffffff16612aa5565b15612974578373ffffffffffffffffffffffffffffffffffffffff1663150b7a02612834611bb3565b8786866040518563ffffffff1660e01b815260040161285694939291906136e2565b602060405180830381600087803b15801561287057600080fd5b505af19250505080156128a157506040513d601f19601f8201168201806040525081019061289e9190613108565b60015b612924573d80600081146128d1576040519150601f19603f3d011682016040523d82523d6000602084013e6128d6565b606091505b5060008151141561291c576040517f08c379a0000000000000000000000000000000000000000000000000000000008152600401612913906137cd565b60405180910390fd5b805181602001fd5b63150b7a0260e01b7bffffffffffffffffffffffffffffffffffffffffffffffffffffffff1916817bffffffffffffffffffffffffffffffffffffffffffffffffffffffff191614915050612979565b600190505b949350505050565b60606000600161299084612ac8565b01905060008167ffffffffffffffff8111156129d5577f4e487b7100000000000000000000000000000000000000000000000000000000600052604160045260246000fd5b6040519080825280601f01601f191660200182016040528015612a075781602001600182028036833780820191505090505b509050600082602001820190505b600115612a9a578080600190039150507f3031323334353637383961626364656600000000000000000000000000000000600a86061a8153600a8581612a84577f4e487b7100000000000000000000000000000000000000000000000000000000600052601260045260246000fd5b0494506000851415612a9557612a9a565b612a15565b819350505050919050565b6000808273ffffffffffffffffffffffffffffffffffffffff163b119050919050565b600080600090507a184f03e93ff9f4daa797ed6e38ed64bf6a1f0100000000000000008310612b4c577a184f03e93ff9f4daa797ed6e38ed64bf6a1f0100000000000000008381612b42577f4e487b7100000000000000000000000000000000000000000000000000000000600052601260045260246000fd5b0492506040810190505b6d04ee2d6d415b85acef81000000008310612baf576d04ee2d6d415b85acef81000000008381612ba5577f4e487b7100000000000000000000000000000000000000000000000000000000600052601260045260246000fd5b0492506020810190505b662386f26fc100008310612c0457662386f26fc100008381612bfa577f4e487b7100000000000000000000000000000000000000000000000000000000600052601260045260246000fd5b0492506010810190505b6305f5e1008310612c53576305f5e1008381612c49577f4e487b7100000000000000000000000000000000000000000000000000000000600052601260045260246000fd5b0492506008810190505b6127108310612c9e576127108381612c94577f4e487b7100000000000000000000000000000000000000000000000000000000600052601260045260246000fd5b0492506004810190505b60648310612ce75760648381612cdd577f4e487b7100000000000000000000000000000000000000000000000000000000600052601260045260246000fd5b0492506002810190505b600a8310612cf6576001810190505b80915050919050565b6040518060a0016040528060008152602001600073ffffffffffffffffffffffffffffffffffffffff168152602001600073ffffffffffffffffffffffffffffffffffffffff168152602001600081526020016000151581525090565b828054612d6890613c5d565b90600052602060002090601f016020900481019282612d8a5760008555612dd1565b82601f10612da357805160ff1916838001178555612dd1565b82800160010185558215612dd1579182015b82811115612dd0578251825591602001919060010190612db5565b5b509050612dde9190612de2565b5090565b5b80821115612dfb576000816000905550600101612de3565b5090565b6000612e12612e0d84613a2d565b613a08565b905082815260208101848484011115612e2a57600080fd5b612e35848285613c1b565b509392505050565b6000612e50612e4b84613a5e565b613a08565b905082815260208101848484011115612e6857600080fd5b612e73848285613c1b565b509392505050565b600081359050612e8a816142a0565b92915050565b600081359050612e9f816142b7565b92915050565b600081359050612eb4816142ce565b92915050565b600081519050612ec9816142ce565b92915050565b600082601f830112612ee057600080fd5b8135612ef0848260208601612dff565b91505092915050565b600082601f830112612f0a57600080fd5b8135612f1a848260208601612e3d565b91505092915050565b600081359050612f32816142e5565b92915050565b600060208284031215612f4a57600080fd5b6000612f5884828501612e7b565b91505092915050565b60008060408385031215612f7457600080fd5b6000612f8285828601612e7b565b9250506020612f9385828601612e7b565b9150509250929050565b600080600060608486031215612fb257600080fd5b6000612fc086828701612e7b565b9350506020612fd186828701612e7b565b9250506040612fe286828701612f23565b9150509250925092565b6000806000806080858703121561300257600080fd5b600061301087828801612e7b565b945050602061302187828801612e7b565b935050604061303287828801612f23565b925050606085013567ffffffffffffffff81111561304f57600080fd5b61305b87828801612ecf565b91505092959194509250565b6000806040838503121561307a57600080fd5b600061308885828601612e7b565b925050602061309985828601612e90565b9150509250929050565b600080604083850312156130b657600080fd5b60006130c485828601612e7b565b92505060206130d585828601612f23565b9150509250929050565b6000602082840312156130f157600080fd5b60006130ff84828501612ea5565b91505092915050565b60006020828403121561311a57600080fd5b600061312884828501612eba565b91505092915050565b6000806040838503121561314457600080fd5b600083013567ffffffffffffffff81111561315e57600080fd5b61316a85828601612ef9565b925050602061317b85828601612f23565b9150509250929050565b60006020828403121561319757600080fd5b60006131a584828501612f23565b91505092915050565b600080604083850312156131c157600080fd5b60006131cf85828601612f23565b92505060206131e085828601612f23565b9150509250929050565b60006131f683836135d8565b60a08301905092915050565b61320b81613ba7565b82525050565b61321a81613b95565b82525050565b600061322b82613a9f565b6132358185613acd565b935061324083613a8f565b8060005b8381101561327157815161325888826131ea565b975061326383613ac0565b925050600181019050613244565b5085935050505092915050565b61328781613bb9565b82525050565b61329681613bb9565b82525050565b60006132a782613aaa565b6132b18185613ade565b93506132c1818560208601613c2a565b6132ca81613d96565b840191505092915050565b60006132e082613ab5565b6132ea8185613aef565b93506132fa818560208601613c2a565b61330381613d96565b840191505092915050565b600061331982613ab5565b6133238185613b00565b9350613333818560208601613c2a565b80840191505092915050565b600061334c602d83613aef565b915061335782613da7565b604082019050919050565b600061336f601b83613aef565b915061337a82613df6565b602082019050919050565b6000613392603283613aef565b915061339d82613e1f565b604082019050919050565b60006133b5602583613aef565b91506133c082613e6e565b604082019050919050565b60006133d8601c83613aef565b91506133e382613ebd565b602082019050919050565b60006133fb602483613aef565b915061340682613ee6565b604082019050919050565b600061341e601983613aef565b915061342982613f35565b602082019050919050565b6000613441602983613aef565b915061344c82613f5e565b604082019050919050565b6000613464602e83613aef565b915061346f82613fad565b604082019050919050565b6000613487604083613aef565b915061349282613ffc565b604082019050919050565b60006134aa602083613aef565b91506134b58261404b565b602082019050919050565b60006134cd602a83613aef565b91506134d882614074565b604082019050919050565b60006134f0603a83613aef565b91506134fb826140c3565b604082019050919050565b6000613513601883613aef565b915061351e82614112565b602082019050919050565b6000613536602183613aef565b91506135418261413b565b604082019050919050565b6000613559602483613aef565b91506135648261418a565b604082019050919050565b600061357c603d83613aef565b9150613587826141d9565b604082019050919050565b600061359f603083613aef565b91506135aa82614228565b604082019050919050565b60006135c2601c83613aef565b91506135cd82614277565b602082019050919050565b60a0820160008201516135ee6000850182613640565b5060208201516136016020850182613202565b5060408201516136146040850182613202565b5060608201516136276060850182613640565b50608082015161363a608085018261327e565b50505050565b61364981613c11565b82525050565b61365881613c11565b82525050565b600061366a828561330e565b9150613676828461330e565b91508190509392505050565b60006020820190506136976000830184613211565b92915050565b60006080820190506136b26000830187613211565b6136bf6020830186613211565b6136cc604083018561364f565b6136d9606083018461328d565b95945050505050565b60006080820190506136f76000830187613211565b6137046020830186613211565b613711604083018561364f565b8181036060830152613723818461329c565b905095945050505050565b600060208201905081810360008301526137488184613220565b905092915050565b6000602082019050613765600083018461328d565b92915050565b6000602082019050818103600083015261378581846132d5565b905092915050565b600060208201905081810360008301526137a68161333f565b9050919050565b600060208201905081810360008301526137c681613362565b9050919050565b600060208201905081810360008301526137e681613385565b9050919050565b60006020820190508181036000830152613806816133a8565b9050919050565b60006020820190508181036000830152613826816133cb565b9050919050565b60006020820190508181036000830152613846816133ee565b9050919050565b6000602082019050818103600083015261386681613411565b9050919050565b6000602082019050818103600083015261388681613434565b9050919050565b600060208201905081810360008301526138a681613457565b9050919050565b600060208201905081810360008301526138c68161347a565b9050919050565b600060208201905081810360008301526138e68161349d565b9050919050565b60006020820190508181036000830152613906816134c0565b9050919050565b60006020820190508181036000830152613926816134e3565b9050919050565b6000602082019050818103600083015261394681613506565b9050919050565b6000602082019050818103600083015261396681613529565b9050919050565b600060208201905081810360008301526139868161354c565b9050919050565b600060208201905081810360008301526139a68161356f565b9050919050565b600060208201905081810360008301526139c681613592565b9050919050565b600060208201905081810360008301526139e6816135b5565b9050919050565b6000602082019050613a02600083018461364f565b92915050565b6000613a12613a23565b9050613a1e8282613c8f565b919050565b6000604051905090565b600067ffffffffffffffff821115613a4857613a47613d67565b5b613a5182613d96565b9050602081019050919050565b600067ffffffffffffffff821115613a7957613a78613d67565b5b613a8282613d96565b9050602081019050919050565b6000819050602082019050919050565b600081519050919050565b600081519050919050565b600081519050919050565b6000602082019050919050565b600082825260208201905092915050565b600082825260208201905092915050565b600082825260208201905092915050565b600081905092915050565b6000613b1682613c11565b9150613b2183613c11565b9250827fffffffffffffffffffffffffffffffffffffffffffffffffffffffffffffffff03821115613b5657613b55613d09565b5b828201905092915050565b6000613b6c82613c11565b9150613b7783613c11565b925082821015613b8a57613b89613d09565b5b828203905092915050565b6000613ba082613bf1565b9050919050565b6000613bb282613bf1565b9050919050565b60008115159050919050565b60007fffffffff0000000000000000000000000000000000000000000000000000000082169050919050565b600073ffffffffffffffffffffffffffffffffffffffff82169050919050565b6000819050919050565b82818337600083830152505050565b60005b83811015613c48578082015181840152602081019050613c2d565b83811115613c57576000848401525b50505050565b60006002820490506001821680613c7557607f821691505b60208210811415613c8957613c88613d38565b5b50919050565b613c9882613d96565b810181811067ffffffffffffffff82111715613cb757613cb6613d67565b5b80604052505050565b6000613ccb82613c11565b91507fffffffffffffffffffffffffffffffffffffffffffffffffffffffffffffffff821415613cfe57613cfd613d09565b5b600182019050919050565b7f4e487b7100000000000000000000000000000000000000000000000000000000600052601160045260246000fd5b7f4e487b7100000000000000000000000000000000000000000000000000000000600052602260045260246000fd5b7f4e487b7100000000000000000000000000000000000000000000000000000000600052604160045260246000fd5b6000601f19601f8301169050919050565b7f4552433732313a2063616c6c6572206973206e6f7420746f6b656e206f776e6560008201527f72206f7220617070726f76656400000000000000000000000000000000000000602082015250565b7f436f756e7465723a2064656372656d656e74206f766572666c6f770000000000600082015250565b7f4552433732313a207472616e7366657220746f206e6f6e20455243373231526560008201527f63656976657220696d706c656d656e7465720000000000000000000000000000602082015250565b7f4552433732313a207472616e736665722066726f6d20696e636f72726563742060008201527f6f776e6572000000000000000000000000000000000000000000000000000000602082015250565b7f4552433732313a20746f6b656e20616c7265616479206d696e74656400000000600082015250565b7f4552433732313a207472616e7366657220746f20746865207a65726f2061646460008201527f7265737300000000000000000000000000000000000000000000000000000000602082015250565b7f4552433732313a20617070726f766520746f2063616c6c657200000000000000600082015250565b7f4552433732313a2061646472657373207a65726f206973206e6f74206120766160008201527f6c6964206f776e65720000000000000000000000000000000000000000000000602082015250565b7f45524337323155524953746f726167653a2055524920736574206f66206e6f6e60008201527f6578697374656e7420746f6b656e000000000000000000000000000000000000602082015250565b7f506c65617365207375626d6974207468652061736b696e67207072696365206960008201527f6e206f7264657220746f20636f6d706c65746520746865207075726368617365602082015250565b7f4552433732313a206d696e7420746f20746865207a65726f2061646472657373600082015250565b7f4f6e6c79206974656d206f776e65722063616e20706572666f726d207468697360008201527f206f7065726174696f6e00000000000000000000000000000000000000000000602082015250565b7f6f6e6c79206f776e6572206f6620746865206d61726b6574706c61636520636160008201527f6e206368616e676520746865206c697374696e67207072696365000000000000602082015250565b7f4552433732313a20696e76616c696420746f6b656e2049440000000000000000600082015250565b7f4552433732313a20617070726f76616c20746f2063757272656e74206f776e6560008201527f7200000000000000000000000000000000000000000000000000000000000000602082015250565b7f5072696365206d75737420626520657175616c20746f206c697374696e67207060008201527f7269636500000000000000000000000000000000000000000000000000000000602082015250565b7f4552433732313a20617070726f76652063616c6c6572206973206e6f7420746f60008201527f6b656e206f776e6572206f7220617070726f76656420666f7220616c6c000000602082015250565b7f4f6e6c79206d61726b6574706c616365206f776e65722063616e20757064617460008201527f65206c697374696e672070726963652e00000000000000000000000000000000602082015250565b7f5072696365206d757374206265206174206c6561737420312077656900000000600082015250565b6142a981613b95565b81146142b457600080fd5b50565b6142c081613bb9565b81146142cb57600080fd5b50565b6142d781613bc5565b81146142e257600080fd5b50565b6142ee81613c11565b81146142f957600080fd5b5056fea2646970667358221220c8335a68320e1e4dc82b6decc114c1bc204d4129540135d2e903a5dc7bcc0cf764736f6c63430008040033",
  "immutableReferences": {},
  "source": "// SPDX-License-Identifier: MIT\r\npragma solidity ^0.8.4;\r\n\r\nimport \"@openzeppelin/contracts/utils/Counters.sol\";\r\nimport \"@openzeppelin/contracts/token/ERC721/extensions/ERC721URIStorage.sol\";\r\nimport \"@openzeppelin/contracts/token/ERC721/ERC721.sol\";\r\n\r\ncontract NFTMarketplace is ERC721URIStorage {\r\n    using Counters for Counters.Counter;\r\n    Counters.Counter private _tokenIds;\r\n    Counters.Counter private _itemsSold;\r\n\r\n    uint256 listingPrice = 0.025 ether;\r\n    address payable owner;\r\n\r\n    mapping(uint256 => MarketItem) private idToMarketItem;\r\n\r\n    struct MarketItem {\r\n        uint256 tokenId;\r\n        address payable seller;\r\n        address payable owner;\r\n        uint256 price;\r\n        bool sold;\r\n    }\r\n\r\n    event MarketItemCreated(\r\n        uint256 indexed tokenId,\r\n        address seller,\r\n        address owner,\r\n        uint256 price,\r\n        bool sold\r\n    );\r\n\r\n    modifier onlyOwner() {\r\n        require(\r\n            msg.sender == owner,\r\n            \"only owner of the marketplace can change the listing price\"\r\n        );\r\n        _;\r\n    }\r\n\r\n    constructor() ERC721(\"NFTMarketplace\", \"METT\") {\r\n        owner = payable(msg.sender);\r\n    }\r\n\r\n    /* Updates the listing price of the contract */\r\n    function updateListingPrice(\r\n        uint256 _listingPrice\r\n    ) public payable onlyOwner {\r\n        require(\r\n            owner == msg.sender,\r\n            \"Only marketplace owner can update listing price.\"\r\n        );\r\n        listingPrice = _listingPrice;\r\n    }\r\n\r\n    /* Returns the listing price of the contract */\r\n    function getListingPrice() public view returns (uint256) {\r\n        return listingPrice;\r\n    }\r\n\r\n    /* Mints a token and lists it in the marketplace */\r\n    function createToken(\r\n        string memory tokenURI,\r\n        uint256 price\r\n    ) public payable returns (uint256) {\r\n        _tokenIds.increment();\r\n        uint256 newTokenId = _tokenIds.current();\r\n\r\n        _mint(msg.sender, newTokenId);\r\n        _setTokenURI(newTokenId, tokenURI);\r\n        createMarketItem(newTokenId, price);\r\n        return newTokenId;\r\n    }\r\n\r\n    function createMarketItem(uint256 tokenId, uint256 price) private {\r\n        require(price > 0, \"Price must be at least 1 wei\");\r\n        require(\r\n            msg.value == listingPrice,\r\n            \"Price must be equal to listing price\"\r\n        );\r\n\r\n        idToMarketItem[tokenId] = MarketItem(\r\n            tokenId,\r\n            payable(msg.sender),\r\n            payable(address(this)),\r\n            price,\r\n            false\r\n        );\r\n\r\n        _transfer(msg.sender, address(this), tokenId);\r\n        emit MarketItemCreated(\r\n            tokenId,\r\n            msg.sender,\r\n            address(this),\r\n            price,\r\n            false\r\n        );\r\n    }\r\n\r\n    /* allows someone to resell a token they have purchased */\r\n    function resellToken(uint256 tokenId, uint256 price) public payable {\r\n        require(\r\n            idToMarketItem[tokenId].owner == msg.sender,\r\n            \"Only item owner can perform this operation\"\r\n        );\r\n        require(\r\n            msg.value == listingPrice,\r\n            \"Price must be equal to listing price\"\r\n        );\r\n        idToMarketItem[tokenId].sold = false;\r\n        idToMarketItem[tokenId].price = price;\r\n        idToMarketItem[tokenId].seller = payable(msg.sender);\r\n        idToMarketItem[tokenId].owner = payable(address(this));\r\n        _itemsSold.decrement();\r\n\r\n        _transfer(msg.sender, address(this), tokenId);\r\n    }\r\n\r\n    /* Creates the sale of a marketplace item */\r\n    /* Transfers ownership of the item, as well as funds between parties */\r\n    function createMarketSale(uint256 tokenId) public payable {\r\n        uint256 price = idToMarketItem[tokenId].price;\r\n        require(\r\n            msg.value == price,\r\n            \"Please submit the asking price in order to complete the purchase\"\r\n        );\r\n        idToMarketItem[tokenId].owner = payable(msg.sender);\r\n        idToMarketItem[tokenId].sold = true;\r\n        idToMarketItem[tokenId].seller = payable(address(0));\r\n        _itemsSold.increment();\r\n        _transfer(address(this), msg.sender, tokenId);\r\n        payable(owner).transfer(listingPrice);\r\n        payable(idToMarketItem[tokenId].seller).transfer(msg.value);\r\n    }\r\n\r\n    /* Returns all unsold market items */\r\n    function fetchMarketItems() public view returns (MarketItem[] memory) {\r\n        uint256 itemCount = _tokenIds.current();\r\n        uint256 unsoldItemCount = _tokenIds.current() - _itemsSold.current();\r\n        uint256 currentIndex = 0;\r\n\r\n        MarketItem[] memory items = new MarketItem[](unsoldItemCount);\r\n        for (uint256 i = 0; i < itemCount; i++) {\r\n            if (idToMarketItem[i + 1].owner == address(this)) {\r\n                uint256 currentId = i + 1;\r\n                MarketItem storage currentItem = idToMarketItem[currentId];\r\n                items[currentIndex] = currentItem;\r\n                currentIndex += 1;\r\n            }\r\n        }\r\n        return items;\r\n    }\r\n\r\n    /* Returns only items that a user has purchased */\r\n    function fetchMyNFTs() public view returns (MarketItem[] memory) {\r\n        uint256 totalItemCount = _tokenIds.current();\r\n        uint256 itemCount = 0;\r\n        uint256 currentIndex = 0;\r\n\r\n        for (uint256 i = 0; i < totalItemCount; i++) {\r\n            if (idToMarketItem[i + 1].owner == msg.sender) {\r\n                itemCount += 1;\r\n            }\r\n        }\r\n\r\n        MarketItem[] memory items = new MarketItem[](itemCount);\r\n        for (uint256 i = 0; i < totalItemCount; i++) {\r\n            if (idToMarketItem[i + 1].owner == msg.sender) {\r\n                uint256 currentId = i + 1;\r\n                MarketItem storage currentItem = idToMarketItem[currentId];\r\n                items[currentIndex] = currentItem;\r\n                currentIndex += 1;\r\n            }\r\n        }\r\n        return items;\r\n    }\r\n\r\n    /* Returns only items a user has listed */\r\n    function fetchItemsListed() public view returns (MarketItem[] memory) {\r\n        uint256 totalItemCount = _tokenIds.current();\r\n        uint256 itemCount = 0;\r\n        uint256 currentIndex = 0;\r\n\r\n        for (uint256 i = 0; i < totalItemCount; i++) {\r\n            if (idToMarketItem[i + 1].seller == msg.sender) {\r\n                itemCount += 1;\r\n            }\r\n        }\r\n\r\n        MarketItem[] memory items = new MarketItem[](itemCount);\r\n        for (uint256 i = 0; i < totalItemCount; i++) {\r\n            if (idToMarketItem[i + 1].seller == msg.sender) {\r\n                uint256 currentId = i + 1;\r\n                MarketItem storage currentItem = idToMarketItem[currentId];\r\n                items[currentIndex] = currentItem;\r\n                currentIndex += 1;\r\n            }\r\n        }\r\n        return items;\r\n    }\r\n}\r\n",
  "sourcePath": "C:\\Users\\soham\\OneDrive\\Desktop\\Endgame\\nft-marketplace__frontend\\contracts\\NFTMarketplace.sol",
  "compiler": {
    "name": "solc",
    "version": "0.8.4+commit.c7e474f2.Emscripten.clang"
  },
  "schemaVersion": "3.4.13",
  "updatedAt": "2023-04-28T17:32:43.054Z",
  "networkType": "ethereum",
  "devdoc": {
    "kind": "dev",
    "methods": {
      "approve(address,uint256)": {
        "details": "See {IERC721-approve}."
      },
      "balanceOf(address)": {
        "details": "See {IERC721-balanceOf}."
      },
      "getApproved(uint256)": {
        "details": "See {IERC721-getApproved}."
      },
      "isApprovedForAll(address,address)": {
        "details": "See {IERC721-isApprovedForAll}."
      },
      "name()": {
        "details": "See {IERC721Metadata-name}."
      },
      "ownerOf(uint256)": {
        "details": "See {IERC721-ownerOf}."
      },
      "safeTransferFrom(address,address,uint256)": {
        "details": "See {IERC721-safeTransferFrom}."
      },
      "safeTransferFrom(address,address,uint256,bytes)": {
        "details": "See {IERC721-safeTransferFrom}."
      },
      "setApprovalForAll(address,bool)": {
        "details": "See {IERC721-setApprovalForAll}."
      },
      "supportsInterface(bytes4)": {
        "details": "See {IERC165-supportsInterface}."
      },
      "symbol()": {
        "details": "See {IERC721Metadata-symbol}."
      },
      "tokenURI(uint256)": {
        "details": "See {IERC721Metadata-tokenURI}."
      },
      "transferFrom(address,address,uint256)": {
        "details": "See {IERC721-transferFrom}."
      }
    },
    "version": 1
  },
  "userdoc": {
    "kind": "user",
    "methods": {},
    "version": 1
  }
}