{
  "contractName": "NFTMarketplace",
  "abi": [
    {
      "inputs": [],
      "stateMutability": "nonpayable",
      "type": "constructor"
    },
    {
      "anonymous": false,
      "inputs": [
        {
          "indexed": true,
          "internalType": "address",
          "name": "owner",
          "type": "address"
        },
        {
          "indexed": true,
          "internalType": "address",
          "name": "approved",
          "type": "address"
        },
        {
          "indexed": true,
          "internalType": "uint256",
          "name": "tokenId",
          "type": "uint256"
        }
      ],
      "name": "Approval",
      "type": "event"
    },
    {
      "anonymous": false,
      "inputs": [
        {
          "indexed": true,
          "internalType": "address",
          "name": "owner",
          "type": "address"
        },
        {
          "indexed": true,
          "internalType": "address",
          "name": "operator",
          "type": "address"
        },
        {
          "indexed": false,
          "internalType": "bool",
          "name": "approved",
          "type": "bool"
        }
      ],
      "name": "ApprovalForAll",
      "type": "event"
    },
    {
      "anonymous": false,
      "inputs": [
        {
          "indexed": true,
          "internalType": "uint256",
          "name": "tokenId",
          "type": "uint256"
        },
        {
          "indexed": false,
          "internalType": "address",
          "name": "seller",
          "type": "address"
        },
        {
          "indexed": false,
          "internalType": "address",
          "name": "owner",
          "type": "address"
        },
        {
          "indexed": false,
          "internalType": "uint256",
          "name": "price",
          "type": "uint256"
        },
        {
          "indexed": false,
          "internalType": "bool",
          "name": "sold",
          "type": "bool"
        },
        {
          "indexed": false,
          "internalType": "string",
          "name": "name",
          "type": "string"
        },
        {
          "indexed": false,
          "internalType": "string",
          "name": "description",
          "type": "string"
        }
      ],
      "name": "MarketItemCreated",
      "type": "event"
    },
    {
      "anonymous": false,
      "inputs": [
        {
          "indexed": true,
          "internalType": "address",
          "name": "from",
          "type": "address"
        },
        {
          "indexed": true,
          "internalType": "address",
          "name": "to",
          "type": "address"
        },
        {
          "indexed": true,
          "internalType": "uint256",
          "name": "tokenId",
          "type": "uint256"
        }
      ],
      "name": "Transfer",
      "type": "event"
    },
    {
      "inputs": [
        {
          "internalType": "address",
          "name": "to",
          "type": "address"
        },
        {
          "internalType": "uint256",
          "name": "tokenId",
          "type": "uint256"
        }
      ],
      "name": "approve",
      "outputs": [],
      "stateMutability": "nonpayable",
      "type": "function"
    },
    {
      "inputs": [
        {
          "internalType": "address",
          "name": "owner",
          "type": "address"
        }
      ],
      "name": "balanceOf",
      "outputs": [
        {
          "internalType": "uint256",
          "name": "",
          "type": "uint256"
        }
      ],
      "stateMutability": "view",
      "type": "function",
      "constant": true
    },
    {
      "inputs": [
        {
          "internalType": "uint256",
          "name": "tokenId",
          "type": "uint256"
        }
      ],
      "name": "getApproved",
      "outputs": [
        {
          "internalType": "address",
          "name": "",
          "type": "address"
        }
      ],
      "stateMutability": "view",
      "type": "function",
      "constant": true
    },
    {
      "inputs": [
        {
          "internalType": "address",
          "name": "owner",
          "type": "address"
        },
        {
          "internalType": "address",
          "name": "operator",
          "type": "address"
        }
      ],
      "name": "isApprovedForAll",
      "outputs": [
        {
          "internalType": "bool",
          "name": "",
          "type": "bool"
        }
      ],
      "stateMutability": "view",
      "type": "function",
      "constant": true
    },
    {
      "inputs": [],
      "name": "name",
      "outputs": [
        {
          "internalType": "string",
          "name": "",
          "type": "string"
        }
      ],
      "stateMutability": "view",
      "type": "function",
      "constant": true
    },
    {
      "inputs": [
        {
          "internalType": "uint256",
          "name": "tokenId",
          "type": "uint256"
        }
      ],
      "name": "ownerOf",
      "outputs": [
        {
          "internalType": "address",
          "name": "",
          "type": "address"
        }
      ],
      "stateMutability": "view",
      "type": "function",
      "constant": true
    },
    {
      "inputs": [
        {
          "internalType": "address",
          "name": "from",
          "type": "address"
        },
        {
          "internalType": "address",
          "name": "to",
          "type": "address"
        },
        {
          "internalType": "uint256",
          "name": "tokenId",
          "type": "uint256"
        }
      ],
      "name": "safeTransferFrom",
      "outputs": [],
      "stateMutability": "nonpayable",
      "type": "function"
    },
    {
      "inputs": [
        {
          "internalType": "address",
          "name": "from",
          "type": "address"
        },
        {
          "internalType": "address",
          "name": "to",
          "type": "address"
        },
        {
          "internalType": "uint256",
          "name": "tokenId",
          "type": "uint256"
        },
        {
          "internalType": "bytes",
          "name": "data",
          "type": "bytes"
        }
      ],
      "name": "safeTransferFrom",
      "outputs": [],
      "stateMutability": "nonpayable",
      "type": "function"
    },
    {
      "inputs": [
        {
          "internalType": "address",
          "name": "operator",
          "type": "address"
        },
        {
          "internalType": "bool",
          "name": "approved",
          "type": "bool"
        }
      ],
      "name": "setApprovalForAll",
      "outputs": [],
      "stateMutability": "nonpayable",
      "type": "function"
    },
    {
      "inputs": [
        {
          "internalType": "bytes4",
          "name": "interfaceId",
          "type": "bytes4"
        }
      ],
      "name": "supportsInterface",
      "outputs": [
        {
          "internalType": "bool",
          "name": "",
          "type": "bool"
        }
      ],
      "stateMutability": "view",
      "type": "function",
      "constant": true
    },
    {
      "inputs": [],
      "name": "symbol",
      "outputs": [
        {
          "internalType": "string",
          "name": "",
          "type": "string"
        }
      ],
      "stateMutability": "view",
      "type": "function",
      "constant": true
    },
    {
      "inputs": [
        {
          "internalType": "uint256",
          "name": "tokenId",
          "type": "uint256"
        }
      ],
      "name": "tokenURI",
      "outputs": [
        {
          "internalType": "string",
          "name": "",
          "type": "string"
        }
      ],
      "stateMutability": "view",
      "type": "function",
      "constant": true
    },
    {
      "inputs": [
        {
          "internalType": "address",
          "name": "from",
          "type": "address"
        },
        {
          "internalType": "address",
          "name": "to",
          "type": "address"
        },
        {
          "internalType": "uint256",
          "name": "tokenId",
          "type": "uint256"
        }
      ],
      "name": "transferFrom",
      "outputs": [],
      "stateMutability": "nonpayable",
      "type": "function"
    },
    {
      "inputs": [
        {
          "internalType": "uint256",
          "name": "_listingPrice",
          "type": "uint256"
        }
      ],
      "name": "updateListingPrice",
      "outputs": [],
      "stateMutability": "payable",
      "type": "function",
      "payable": true
    },
    {
      "inputs": [],
      "name": "getListingPrice",
      "outputs": [
        {
          "internalType": "uint256",
          "name": "",
          "type": "uint256"
        }
      ],
      "stateMutability": "view",
      "type": "function",
      "constant": true
    },
    {
      "inputs": [
        {
          "internalType": "string",
          "name": "tokenURI",
          "type": "string"
        },
        {
          "internalType": "uint256",
          "name": "price",
          "type": "uint256"
        },
        {
          "internalType": "string",
          "name": "name",
          "type": "string"
        },
        {
          "internalType": "string",
          "name": "description",
          "type": "string"
        }
      ],
      "name": "createToken",
      "outputs": [
        {
          "internalType": "uint256",
          "name": "",
          "type": "uint256"
        }
      ],
      "stateMutability": "payable",
      "type": "function",
      "payable": true
    },
    {
      "inputs": [
        {
          "internalType": "uint256",
          "name": "tokenId",
          "type": "uint256"
        },
        {
          "internalType": "uint256",
          "name": "price",
          "type": "uint256"
        }
      ],
      "name": "resellToken",
      "outputs": [],
      "stateMutability": "payable",
      "type": "function",
      "payable": true
    },
    {
      "inputs": [
        {
          "internalType": "uint256",
          "name": "tokenId",
          "type": "uint256"
        }
      ],
      "name": "createMarketSale",
      "outputs": [],
      "stateMutability": "payable",
      "type": "function",
      "payable": true
    },
    {
      "inputs": [],
      "name": "fetchMarketItems",
      "outputs": [
        {
          "components": [
            {
              "internalType": "uint256",
              "name": "tokenId",
              "type": "uint256"
            },
            {
              "internalType": "address payable",
              "name": "seller",
              "type": "address"
            },
            {
              "internalType": "address payable",
              "name": "owner",
              "type": "address"
            },
            {
              "internalType": "uint256",
              "name": "price",
              "type": "uint256"
            },
            {
              "internalType": "bool",
              "name": "sold",
              "type": "bool"
            },
            {
              "internalType": "string",
              "name": "name",
              "type": "string"
            },
            {
              "internalType": "string",
              "name": "description",
              "type": "string"
            }
          ],
          "internalType": "struct NFTMarketplace.MarketItem[]",
          "name": "",
          "type": "tuple[]"
        }
      ],
      "stateMutability": "view",
      "type": "function",
      "constant": true
    },
    {
      "inputs": [],
      "name": "fetchMyNFTs",
      "outputs": [
        {
          "components": [
            {
              "internalType": "uint256",
              "name": "tokenId",
              "type": "uint256"
            },
            {
              "internalType": "address payable",
              "name": "seller",
              "type": "address"
            },
            {
              "internalType": "address payable",
              "name": "owner",
              "type": "address"
            },
            {
              "internalType": "uint256",
              "name": "price",
              "type": "uint256"
            },
            {
              "internalType": "bool",
              "name": "sold",
              "type": "bool"
            },
            {
              "internalType": "string",
              "name": "name",
              "type": "string"
            },
            {
              "internalType": "string",
              "name": "description",
              "type": "string"
            }
          ],
          "internalType": "struct NFTMarketplace.MarketItem[]",
          "name": "",
          "type": "tuple[]"
        }
      ],
      "stateMutability": "view",
      "type": "function",
      "constant": true
    },
    {
      "inputs": [],
      "name": "fetchItemsListed",
      "outputs": [
        {
          "components": [
            {
              "internalType": "uint256",
              "name": "tokenId",
              "type": "uint256"
            },
            {
              "internalType": "address payable",
              "name": "seller",
              "type": "address"
            },
            {
              "internalType": "address payable",
              "name": "owner",
              "type": "address"
            },
            {
              "internalType": "uint256",
              "name": "price",
              "type": "uint256"
            },
            {
              "internalType": "bool",
              "name": "sold",
              "type": "bool"
            },
            {
              "internalType": "string",
              "name": "name",
              "type": "string"
            },
            {
              "internalType": "string",
              "name": "description",
              "type": "string"
            }
          ],
          "internalType": "struct NFTMarketplace.MarketItem[]",
          "name": "",
          "type": "tuple[]"
        }
      ],
      "stateMutability": "view",
      "type": "function",
      "constant": true
    }
  ],
  "bytecode": "0x60806040526658d15e176280006009553480156200001c57600080fd5b506040518060400160405280600e81526020017f4e46544d61726b6574706c6163650000000000000000000000000000000000008152506040518060400160405280600481526020017f4d455454000000000000000000000000000000000000000000000000000000008152508160009080519060200190620000a192919062000104565b508060019080519060200190620000ba92919062000104565b50505033600a60006101000a81548173ffffffffffffffffffffffffffffffffffffffff021916908373ffffffffffffffffffffffffffffffffffffffff16021790555062000219565b8280546200011290620001b4565b90600052602060002090601f01602090048101928262000136576000855562000182565b82601f106200015157805160ff191683800117855562000182565b8280016001018555821562000182579182015b828111156200018157825182559160200191906001019062000164565b5b50905062000191919062000195565b5090565b5b80821115620001b057600081600090555060010162000196565b5090565b60006002820490506001821680620001cd57607f821691505b60208210811415620001e457620001e3620001ea565b5b50919050565b7f4e487b7100000000000000000000000000000000000000000000000000000000600052602260045260246000fd5b61481580620002296000396000f3fe60806040526004361061012a5760003560e01c80636352211e116100ab578063b88d4fde1161006f578063b88d4fde146103e5578063be9af5361461040e578063c87b56dd1461042a578063e219fc7514610467578063e7c3a03e14610483578063e985e9c5146104b35761012a565b80636352211e146102fb57806370a082311461033857806395d89b4114610375578063a22cb465146103a0578063ae677aa3146103c95761012a565b806312e85585116100f257806312e8558514610228578063202e37401461025357806323b872dd1461027e57806342842e0e146102a757806345f8fa80146102d05761012a565b806301ffc9a71461012f57806306fdde031461016c578063081812fc14610197578063095ea7b3146101d45780630f08efe0146101fd575b600080fd5b34801561013b57600080fd5b50610156600480360381019061015191906134a9565b6104f0565b6040516101639190613c22565b60405180910390f35b34801561017857600080fd5b506101816105d2565b60405161018e9190613c3d565b60405180910390f35b3480156101a357600080fd5b506101be60048036038101906101b991906135a6565b610664565b6040516101cb9190613b2a565b60405180910390f35b3480156101e057600080fd5b506101fb60048036038101906101f6919061346d565b6106aa565b005b34801561020957600080fd5b506102126107c2565b60405161021f9190613c00565b60405180910390f35b34801561023457600080fd5b5061023d610b9b565b60405161024a9190613ebf565b60405180910390f35b34801561025f57600080fd5b50610268610ba5565b6040516102759190613c00565b60405180910390f35b34801561028a57600080fd5b506102a560048036038101906102a09190613367565b611003565b005b3480156102b357600080fd5b506102ce60048036038101906102c99190613367565b611063565b005b3480156102dc57600080fd5b506102e5611083565b6040516102f29190613c00565b60405180910390f35b34801561030757600080fd5b50610322600480360381019061031d91906135a6565b6114e1565b60405161032f9190613b2a565b60405180910390f35b34801561034457600080fd5b5061035f600480360381019061035a9190613302565b611568565b60405161036c9190613ebf565b60405180910390f35b34801561038157600080fd5b5061038a611620565b6040516103979190613c3d565b60405180910390f35b3480156103ac57600080fd5b506103c760048036038101906103c29190613431565b6116b2565b005b6103e360048036038101906103de91906135a6565b6116c8565b005b3480156103f157600080fd5b5061040c600480360381019061040791906133b6565b6117f2565b005b610428600480360381019061042391906135a6565b611854565b005b34801561043657600080fd5b50610451600480360381019061044c91906135a6565b611a8c565b60405161045e9190613c3d565b60405180910390f35b610481600480360381019061047c91906135cf565b611b9f565b005b61049d600480360381019061049891906134fb565b611d94565b6040516104aa9190613ebf565b60405180910390f35b3480156104bf57600080fd5b506104da60048036038101906104d5919061332b565b611dda565b6040516104e79190613c22565b60405180910390f35b60007f80ac58cd000000000000000000000000000000000000000000000000000000007bffffffffffffffffffffffffffffffffffffffffffffffffffffffff1916827bffffffffffffffffffffffffffffffffffffffffffffffffffffffff191614806105bb57507f5b5e139f000000000000000000000000000000000000000000000000000000007bffffffffffffffffffffffffffffffffffffffffffffffffffffffff1916827bffffffffffffffffffffffffffffffffffffffffffffffffffffffff1916145b806105cb57506105ca82611e6e565b5b9050919050565b6060600080546105e190614140565b80601f016020809104026020016040519081016040528092919081815260200182805461060d90614140565b801561065a5780601f1061062f5761010080835404028352916020019161065a565b820191906000526020600020905b81548152906001019060200180831161063d57829003601f168201915b5050505050905090565b600061066f82611ed8565b6004600083815260200190815260200160002060009054906101000a900473ffffffffffffffffffffffffffffffffffffffff169050919050565b60006106b5826114e1565b90508073ffffffffffffffffffffffffffffffffffffffff168373ffffffffffffffffffffffffffffffffffffffff161415610726576040517f08c379a000000000000000000000000000000000000000000000000000000000815260040161071d90613e1f565b60405180910390fd5b8073ffffffffffffffffffffffffffffffffffffffff16610745611f23565b73ffffffffffffffffffffffffffffffffffffffff16148061077457506107738161076e611f23565b611dda565b5b6107b3576040517f08c379a00000000000000000000000000000000000000000000000000000000081526004016107aa90613e5f565b60405180910390fd5b6107bd8383611f2b565b505050565b606060006107d06007611fe4565b905060006107de6008611fe4565b6107e86007611fe4565b6107f29190614044565b90506000808267ffffffffffffffff811115610837577f4e487b7100000000000000000000000000000000000000000000000000000000600052604160045260246000fd5b60405190808252806020026020018201604052801561087057816020015b61085d6130bb565b8152602001906001900390816108555790505b50905060005b84811015610b90573073ffffffffffffffffffffffffffffffffffffffff16600b60006001846108a69190613fee565b815260200190815260200160002060020160009054906101000a900473ffffffffffffffffffffffffffffffffffffffff1673ffffffffffffffffffffffffffffffffffffffff161415610b7d5760006001826109039190613fee565b90506000600b60008381526020019081526020016000209050806040518060e0016040529081600082015481526020016001820160009054906101000a900473ffffffffffffffffffffffffffffffffffffffff1673ffffffffffffffffffffffffffffffffffffffff1673ffffffffffffffffffffffffffffffffffffffff1681526020016002820160009054906101000a900473ffffffffffffffffffffffffffffffffffffffff1673ffffffffffffffffffffffffffffffffffffffff1673ffffffffffffffffffffffffffffffffffffffff168152602001600382015481526020016004820160009054906101000a900460ff16151515158152602001600582018054610a1390614140565b80601f0160208091040260200160405190810160405280929190818152602001828054610a3f90614140565b8015610a8c5780601f10610a6157610100808354040283529160200191610a8c565b820191906000526020600020905b815481529060010190602001808311610a6f57829003601f168201915b50505050508152602001600682018054610aa590614140565b80601f0160208091040260200160405190810160405280929190818152602001828054610ad190614140565b8015610b1e5780601f10610af357610100808354040283529160200191610b1e565b820191906000526020600020905b815481529060010190602001808311610b0157829003601f168201915b505050505081525050848681518110610b60577f4e487b7100000000000000000000000000000000000000000000000000000000600052603260045260246000fd5b6020026020010181905250600185610b789190613fee565b945050505b8080610b88906141a3565b915050610876565b508094505050505090565b6000600954905090565b60606000610bb36007611fe4565b905060008060005b83811015610c5c573373ffffffffffffffffffffffffffffffffffffffff16600b6000600184610beb9190613fee565b815260200190815260200160002060020160009054906101000a900473ffffffffffffffffffffffffffffffffffffffff1673ffffffffffffffffffffffffffffffffffffffff161415610c4957600183610c469190613fee565b92505b8080610c54906141a3565b915050610bbb565b5060008267ffffffffffffffff811115610c9f577f4e487b7100000000000000000000000000000000000000000000000000000000600052604160045260246000fd5b604051908082528060200260200182016040528015610cd857816020015b610cc56130bb565b815260200190600190039081610cbd5790505b50905060005b84811015610ff8573373ffffffffffffffffffffffffffffffffffffffff16600b6000600184610d0e9190613fee565b815260200190815260200160002060020160009054906101000a900473ffffffffffffffffffffffffffffffffffffffff1673ffffffffffffffffffffffffffffffffffffffff161415610fe5576000600182610d6b9190613fee565b90506000600b60008381526020019081526020016000209050806040518060e0016040529081600082015481526020016001820160009054906101000a900473ffffffffffffffffffffffffffffffffffffffff1673ffffffffffffffffffffffffffffffffffffffff1673ffffffffffffffffffffffffffffffffffffffff1681526020016002820160009054906101000a900473ffffffffffffffffffffffffffffffffffffffff1673ffffffffffffffffffffffffffffffffffffffff1673ffffffffffffffffffffffffffffffffffffffff168152602001600382015481526020016004820160009054906101000a900460ff16151515158152602001600582018054610e7b90614140565b80601f0160208091040260200160405190810160405280929190818152602001828054610ea790614140565b8015610ef45780601f10610ec957610100808354040283529160200191610ef4565b820191906000526020600020905b815481529060010190602001808311610ed757829003601f168201915b50505050508152602001600682018054610f0d90614140565b80601f0160208091040260200160405190810160405280929190818152602001828054610f3990614140565b8015610f865780601f10610f5b57610100808354040283529160200191610f86565b820191906000526020600020905b815481529060010190602001808311610f6957829003601f168201915b505050505081525050848681518110610fc8577f4e487b7100000000000000000000000000000000000000000000000000000000600052603260045260246000fd5b6020026020010181905250600185610fe09190613fee565b945050505b8080610ff0906141a3565b915050610cde565b508094505050505090565b61101461100e611f23565b82611ff2565b611053576040517f08c379a000000000000000000000000000000000000000000000000000000000815260040161104a90613c5f565b60405180910390fd5b61105e838383612087565b505050565b61107e838383604051806020016040528060008152506117f2565b505050565b606060006110916007611fe4565b905060008060005b8381101561113a573373ffffffffffffffffffffffffffffffffffffffff16600b60006001846110c99190613fee565b815260200190815260200160002060010160009054906101000a900473ffffffffffffffffffffffffffffffffffffffff1673ffffffffffffffffffffffffffffffffffffffff161415611127576001836111249190613fee565b92505b8080611132906141a3565b915050611099565b5060008267ffffffffffffffff81111561117d577f4e487b7100000000000000000000000000000000000000000000000000000000600052604160045260246000fd5b6040519080825280602002602001820160405280156111b657816020015b6111a36130bb565b81526020019060019003908161119b5790505b50905060005b848110156114d6573373ffffffffffffffffffffffffffffffffffffffff16600b60006001846111ec9190613fee565b815260200190815260200160002060010160009054906101000a900473ffffffffffffffffffffffffffffffffffffffff1673ffffffffffffffffffffffffffffffffffffffff1614156114c35760006001826112499190613fee565b90506000600b60008381526020019081526020016000209050806040518060e0016040529081600082015481526020016001820160009054906101000a900473ffffffffffffffffffffffffffffffffffffffff1673ffffffffffffffffffffffffffffffffffffffff1673ffffffffffffffffffffffffffffffffffffffff1681526020016002820160009054906101000a900473ffffffffffffffffffffffffffffffffffffffff1673ffffffffffffffffffffffffffffffffffffffff1673ffffffffffffffffffffffffffffffffffffffff168152602001600382015481526020016004820160009054906101000a900460ff1615151515815260200160058201805461135990614140565b80601f016020809104026020016040519081016040528092919081815260200182805461138590614140565b80156113d25780601f106113a7576101008083540402835291602001916113d2565b820191906000526020600020905b8154815290600101906020018083116113b557829003601f168201915b505050505081526020016006820180546113eb90614140565b80601f016020809104026020016040519081016040528092919081815260200182805461141790614140565b80156114645780601f1061143957610100808354040283529160200191611464565b820191906000526020600020905b81548152906001019060200180831161144757829003601f168201915b5050505050815250508486815181106114a6577f4e487b7100000000000000000000000000000000000000000000000000000000600052603260045260246000fd5b60200260200101819052506001856114be9190613fee565b945050505b80806114ce906141a3565b9150506111bc565b508094505050505090565b6000806114ed83612381565b9050600073ffffffffffffffffffffffffffffffffffffffff168173ffffffffffffffffffffffffffffffffffffffff16141561155f576040517f08c379a000000000000000000000000000000000000000000000000000000000815260040161155690613dff565b60405180910390fd5b80915050919050565b60008073ffffffffffffffffffffffffffffffffffffffff168273ffffffffffffffffffffffffffffffffffffffff1614156115d9576040517f08c379a00000000000000000000000000000000000000000000000000000000081526004016115d090613d3f565b60405180910390fd5b600360008373ffffffffffffffffffffffffffffffffffffffff1673ffffffffffffffffffffffffffffffffffffffff168152602001908152602001600020549050919050565b60606001805461162f90614140565b80601f016020809104026020016040519081016040528092919081815260200182805461165b90614140565b80156116a85780601f1061167d576101008083540402835291602001916116a8565b820191906000526020600020905b81548152906001019060200180831161168b57829003601f168201915b5050505050905090565b6116c46116bd611f23565b83836123be565b5050565b600a60009054906101000a900473ffffffffffffffffffffffffffffffffffffffff1673ffffffffffffffffffffffffffffffffffffffff163373ffffffffffffffffffffffffffffffffffffffff1614611758576040517f08c379a000000000000000000000000000000000000000000000000000000000815260040161174f90613ddf565b60405180910390fd5b3373ffffffffffffffffffffffffffffffffffffffff16600a60009054906101000a900473ffffffffffffffffffffffffffffffffffffffff1673ffffffffffffffffffffffffffffffffffffffff16146117e8576040517f08c379a00000000000000000000000000000000000000000000000000000000081526004016117df90613e7f565b60405180910390fd5b8060098190555050565b6118036117fd611f23565b83611ff2565b611842576040517f08c379a000000000000000000000000000000000000000000000000000000000815260040161183990613c5f565b60405180910390fd5b61184e8484848461252b565b50505050565b6000600b60008381526020019081526020016000206003015490508034146118b1576040517f08c379a00000000000000000000000000000000000000000000000000000000081526004016118a890613d7f565b60405180910390fd5b33600b600084815260200190815260200160002060020160006101000a81548173ffffffffffffffffffffffffffffffffffffffff021916908373ffffffffffffffffffffffffffffffffffffffff1602179055506001600b600084815260200190815260200160002060040160006101000a81548160ff0219169083151502179055506000600b600084815260200190815260200160002060010160006101000a81548173ffffffffffffffffffffffffffffffffffffffff021916908373ffffffffffffffffffffffffffffffffffffffff1602179055506119956008612587565b6119a0303384612087565b600a60009054906101000a900473ffffffffffffffffffffffffffffffffffffffff1673ffffffffffffffffffffffffffffffffffffffff166108fc6009549081150290604051600060405180830381858888f19350505050158015611a0a573d6000803e3d6000fd5b50600b600083815260200190815260200160002060010160009054906101000a900473ffffffffffffffffffffffffffffffffffffffff1673ffffffffffffffffffffffffffffffffffffffff166108fc349081150290604051600060405180830381858888f19350505050158015611a87573d6000803e3d6000fd5b505050565b6060611a9782611ed8565b6000600660008481526020019081526020016000208054611ab790614140565b80601f0160208091040260200160405190810160405280929190818152602001828054611ae390614140565b8015611b305780601f10611b0557610100808354040283529160200191611b30565b820191906000526020600020905b815481529060010190602001808311611b1357829003601f168201915b505050505090506000611b4161259d565b9050600081511415611b57578192505050611b9a565b600082511115611b8c578082604051602001611b74929190613b06565b60405160208183030381529060405292505050611b9a565b611b95846125b4565b925050505b919050565b3373ffffffffffffffffffffffffffffffffffffffff16600b600084815260200190815260200160002060020160009054906101000a900473ffffffffffffffffffffffffffffffffffffffff1673ffffffffffffffffffffffffffffffffffffffff1614611c43576040517f08c379a0000000000000000000000000000000000000000000000000000000008152600401611c3a90613dbf565b60405180910390fd5b6009543414611c87576040517f08c379a0000000000000000000000000000000000000000000000000000000008152600401611c7e90613e3f565b60405180910390fd5b6000600b600084815260200190815260200160002060040160006101000a81548160ff02191690831515021790555080600b60008481526020019081526020016000206003018190555033600b600084815260200190815260200160002060010160006101000a81548173ffffffffffffffffffffffffffffffffffffffff021916908373ffffffffffffffffffffffffffffffffffffffff16021790555030600b600084815260200190815260200160002060020160006101000a81548173ffffffffffffffffffffffffffffffffffffffff021916908373ffffffffffffffffffffffffffffffffffffffff160217905550611d85600861261c565b611d90333084612087565b5050565b6000611da06007612587565b6000611dac6007611fe4565b9050611db83382612678565b611dc28187612896565b611dce8186868661290a565b80915050949350505050565b6000600560008473ffffffffffffffffffffffffffffffffffffffff1673ffffffffffffffffffffffffffffffffffffffff16815260200190815260200160002060008373ffffffffffffffffffffffffffffffffffffffff1673ffffffffffffffffffffffffffffffffffffffff16815260200190815260200160002060009054906101000a900460ff16905092915050565b60007f01ffc9a7000000000000000000000000000000000000000000000000000000007bffffffffffffffffffffffffffffffffffffffffffffffffffffffff1916827bffffffffffffffffffffffffffffffffffffffffffffffffffffffff1916149050919050565b611ee181612b59565b611f20576040517f08c379a0000000000000000000000000000000000000000000000000000000008152600401611f1790613dff565b60405180910390fd5b50565b600033905090565b816004600083815260200190815260200160002060006101000a81548173ffffffffffffffffffffffffffffffffffffffff021916908373ffffffffffffffffffffffffffffffffffffffff160217905550808273ffffffffffffffffffffffffffffffffffffffff16611f9e836114e1565b73ffffffffffffffffffffffffffffffffffffffff167f8c5be1e5ebec7d5bd14f71427d1e84f3dd0314c0f7b2291e5b200ac8c7c3b92560405160405180910390a45050565b600081600001549050919050565b600080611ffe836114e1565b90508073ffffffffffffffffffffffffffffffffffffffff168473ffffffffffffffffffffffffffffffffffffffff161480612040575061203f8185611dda565b5b8061207e57508373ffffffffffffffffffffffffffffffffffffffff1661206684610664565b73ffffffffffffffffffffffffffffffffffffffff16145b91505092915050565b8273ffffffffffffffffffffffffffffffffffffffff166120a7826114e1565b73ffffffffffffffffffffffffffffffffffffffff16146120fd576040517f08c379a00000000000000000000000000000000000000000000000000000000081526004016120f490613cbf565b60405180910390fd5b600073ffffffffffffffffffffffffffffffffffffffff168273ffffffffffffffffffffffffffffffffffffffff16141561216d576040517f08c379a000000000000000000000000000000000000000000000000000000000815260040161216490613cff565b60405180910390fd5b61217a8383836001612b9a565b8273ffffffffffffffffffffffffffffffffffffffff1661219a826114e1565b73ffffffffffffffffffffffffffffffffffffffff16146121f0576040517f08c379a00000000000000000000000000000000000000000000000000000000081526004016121e790613cbf565b60405180910390fd5b6004600082815260200190815260200160002060006101000a81549073ffffffffffffffffffffffffffffffffffffffff02191690556001600360008573ffffffffffffffffffffffffffffffffffffffff1673ffffffffffffffffffffffffffffffffffffffff168152602001908152602001600020600082825403925050819055506001600360008473ffffffffffffffffffffffffffffffffffffffff1673ffffffffffffffffffffffffffffffffffffffff16815260200190815260200160002060008282540192505081905550816002600083815260200190815260200160002060006101000a81548173ffffffffffffffffffffffffffffffffffffffff021916908373ffffffffffffffffffffffffffffffffffffffff160217905550808273ffffffffffffffffffffffffffffffffffffffff168473ffffffffffffffffffffffffffffffffffffffff167fddf252ad1be2c89b69c2b068fc378daa952ba7f163c4a11628f55a4df523b3ef60405160405180910390a461237c8383836001612ba0565b505050565b60006002600083815260200190815260200160002060009054906101000a900473ffffffffffffffffffffffffffffffffffffffff169050919050565b8173ffffffffffffffffffffffffffffffffffffffff168373ffffffffffffffffffffffffffffffffffffffff16141561242d576040517f08c379a000000000000000000000000000000000000000000000000000000000815260040161242490613d1f565b60405180910390fd5b80600560008573ffffffffffffffffffffffffffffffffffffffff1673ffffffffffffffffffffffffffffffffffffffff16815260200190815260200160002060008473ffffffffffffffffffffffffffffffffffffffff1673ffffffffffffffffffffffffffffffffffffffff16815260200190815260200160002060006101000a81548160ff0219169083151502179055508173ffffffffffffffffffffffffffffffffffffffff168373ffffffffffffffffffffffffffffffffffffffff167f17307eab39ab6107e8899845ad3d59bd9653f200f220920489ca2b5937696c318360405161251e9190613c22565b60405180910390a3505050565b612536848484612087565b61254284848484612ba6565b612581576040517f08c379a000000000000000000000000000000000000000000000000000000000815260040161257890613c9f565b60405180910390fd5b50505050565b6001816000016000828254019250508190555050565b606060405180602001604052806000815250905090565b60606125bf82611ed8565b60006125c961259d565b905060008151116125e95760405180602001604052806000815250612614565b806125f384612d3d565b604051602001612604929190613b06565b6040516020818303038152906040525b915050919050565b60008160000154905060008111612668576040517f08c379a000000000000000000000000000000000000000000000000000000000815260040161265f90613c7f565b60405180910390fd5b6001810382600001819055505050565b600073ffffffffffffffffffffffffffffffffffffffff168273ffffffffffffffffffffffffffffffffffffffff1614156126e8576040517f08c379a00000000000000000000000000000000000000000000000000000000081526004016126df90613d9f565b60405180910390fd5b6126f181612b59565b15612731576040517f08c379a000000000000000000000000000000000000000000000000000000000815260040161272890613cdf565b60405180910390fd5b61273f600083836001612b9a565b61274881612b59565b15612788576040517f08c379a000000000000000000000000000000000000000000000000000000000815260040161277f90613cdf565b60405180910390fd5b6001600360008473ffffffffffffffffffffffffffffffffffffffff1673ffffffffffffffffffffffffffffffffffffffff16815260200190815260200160002060008282540192505081905550816002600083815260200190815260200160002060006101000a81548173ffffffffffffffffffffffffffffffffffffffff021916908373ffffffffffffffffffffffffffffffffffffffff160217905550808273ffffffffffffffffffffffffffffffffffffffff16600073ffffffffffffffffffffffffffffffffffffffff167fddf252ad1be2c89b69c2b068fc378daa952ba7f163c4a11628f55a4df523b3ef60405160405180910390a4612892600083836001612ba0565b5050565b61289f82612b59565b6128de576040517f08c379a00000000000000000000000000000000000000000000000000000000081526004016128d590613d5f565b60405180910390fd5b80600660008481526020019081526020016000209080519060200190612905929190613126565b505050565b6000831161294d576040517f08c379a000000000000000000000000000000000000000000000000000000000815260040161294490613e9f565b60405180910390fd5b6009543414612991576040517f08c379a000000000000000000000000000000000000000000000000000000000815260040161298890613e3f565b60405180910390fd5b6040518060e001604052808581526020013373ffffffffffffffffffffffffffffffffffffffff1681526020013073ffffffffffffffffffffffffffffffffffffffff16815260200184815260200160001515815260200183815260200182815250600b60008681526020019081526020016000206000820151816000015560208201518160010160006101000a81548173ffffffffffffffffffffffffffffffffffffffff021916908373ffffffffffffffffffffffffffffffffffffffff16021790555060408201518160020160006101000a81548173ffffffffffffffffffffffffffffffffffffffff021916908373ffffffffffffffffffffffffffffffffffffffff1602179055506060820151816003015560808201518160040160006101000a81548160ff02191690831515021790555060a0820151816005019080519060200190612ae4929190613126565b5060c0820151816006019080519060200190612b01929190613126565b50905050612b10333086612087565b837f5d85442b762d770d3f8d5da68357afcc24a270db6bdcecaed959e6139200a89633308660008787604051612b4b96959493929190613b45565b60405180910390a250505050565b60008073ffffffffffffffffffffffffffffffffffffffff16612b7b83612381565b73ffffffffffffffffffffffffffffffffffffffff1614159050919050565b50505050565b50505050565b6000612bc78473ffffffffffffffffffffffffffffffffffffffff16612e61565b15612d30578373ffffffffffffffffffffffffffffffffffffffff1663150b7a02612bf0611f23565b8786866040518563ffffffff1660e01b8152600401612c129493929190613bb4565b602060405180830381600087803b158015612c2c57600080fd5b505af1925050508015612c5d57506040513d601f19601f82011682018060405250810190612c5a91906134d2565b60015b612ce0573d8060008114612c8d576040519150601f19603f3d011682016040523d82523d6000602084013e612c92565b606091505b50600081511415612cd8576040517f08c379a0000000000000000000000000000000000000000000000000000000008152600401612ccf90613c9f565b60405180910390fd5b805181602001fd5b63150b7a0260e01b7bffffffffffffffffffffffffffffffffffffffffffffffffffffffff1916817bffffffffffffffffffffffffffffffffffffffffffffffffffffffff191614915050612d35565b600190505b949350505050565b606060006001612d4c84612e84565b01905060008167ffffffffffffffff811115612d91577f4e487b7100000000000000000000000000000000000000000000000000000000600052604160045260246000fd5b6040519080825280601f01601f191660200182016040528015612dc35781602001600182028036833780820191505090505b509050600082602001820190505b600115612e56578080600190039150507f3031323334353637383961626364656600000000000000000000000000000000600a86061a8153600a8581612e40577f4e487b7100000000000000000000000000000000000000000000000000000000600052601260045260246000fd5b0494506000851415612e5157612e56565b612dd1565b819350505050919050565b6000808273ffffffffffffffffffffffffffffffffffffffff163b119050919050565b600080600090507a184f03e93ff9f4daa797ed6e38ed64bf6a1f0100000000000000008310612f08577a184f03e93ff9f4daa797ed6e38ed64bf6a1f0100000000000000008381612efe577f4e487b7100000000000000000000000000000000000000000000000000000000600052601260045260246000fd5b0492506040810190505b6d04ee2d6d415b85acef81000000008310612f6b576d04ee2d6d415b85acef81000000008381612f61577f4e487b7100000000000000000000000000000000000000000000000000000000600052601260045260246000fd5b0492506020810190505b662386f26fc100008310612fc057662386f26fc100008381612fb6577f4e487b7100000000000000000000000000000000000000000000000000000000600052601260045260246000fd5b0492506010810190505b6305f5e100831061300f576305f5e1008381613005577f4e487b7100000000000000000000000000000000000000000000000000000000600052601260045260246000fd5b0492506008810190505b612710831061305a576127108381613050577f4e487b7100000000000000000000000000000000000000000000000000000000600052601260045260246000fd5b0492506004810190505b606483106130a35760648381613099577f4e487b7100000000000000000000000000000000000000000000000000000000600052601260045260246000fd5b0492506002810190505b600a83106130b2576001810190505b80915050919050565b6040518060e0016040528060008152602001600073ffffffffffffffffffffffffffffffffffffffff168152602001600073ffffffffffffffffffffffffffffffffffffffff1681526020016000815260200160001515815260200160608152602001606081525090565b82805461313290614140565b90600052602060002090601f016020900481019282613154576000855561319b565b82601f1061316d57805160ff191683800117855561319b565b8280016001018555821561319b579182015b8281111561319a57825182559160200191906001019061317f565b5b5090506131a891906131ac565b5090565b5b808211156131c55760008160009055506001016131ad565b5090565b60006131dc6131d784613eff565b613eda565b9050828152602081018484840111156131f457600080fd5b6131ff8482856140fe565b509392505050565b600061321a61321584613f30565b613eda565b90508281526020810184848401111561323257600080fd5b61323d8482856140fe565b509392505050565b60008135905061325481614783565b92915050565b6000813590506132698161479a565b92915050565b60008135905061327e816147b1565b92915050565b600081519050613293816147b1565b92915050565b600082601f8301126132aa57600080fd5b81356132ba8482602086016131c9565b91505092915050565b600082601f8301126132d457600080fd5b81356132e4848260208601613207565b91505092915050565b6000813590506132fc816147c8565b92915050565b60006020828403121561331457600080fd5b600061332284828501613245565b91505092915050565b6000806040838503121561333e57600080fd5b600061334c85828601613245565b925050602061335d85828601613245565b9150509250929050565b60008060006060848603121561337c57600080fd5b600061338a86828701613245565b935050602061339b86828701613245565b92505060406133ac868287016132ed565b9150509250925092565b600080600080608085870312156133cc57600080fd5b60006133da87828801613245565b94505060206133eb87828801613245565b93505060406133fc878288016132ed565b925050606085013567ffffffffffffffff81111561341957600080fd5b61342587828801613299565b91505092959194509250565b6000806040838503121561344457600080fd5b600061345285828601613245565b92505060206134638582860161325a565b9150509250929050565b6000806040838503121561348057600080fd5b600061348e85828601613245565b925050602061349f858286016132ed565b9150509250929050565b6000602082840312156134bb57600080fd5b60006134c98482850161326f565b91505092915050565b6000602082840312156134e457600080fd5b60006134f284828501613284565b91505092915050565b6000806000806080858703121561351157600080fd5b600085013567ffffffffffffffff81111561352b57600080fd5b613537878288016132c3565b9450506020613548878288016132ed565b935050604085013567ffffffffffffffff81111561356557600080fd5b613571878288016132c3565b925050606085013567ffffffffffffffff81111561358e57600080fd5b61359a878288016132c3565b91505092959194509250565b6000602082840312156135b857600080fd5b60006135c6848285016132ed565b91505092915050565b600080604083850312156135e257600080fd5b60006135f0858286016132ed565b9250506020613601858286016132ed565b9150509250929050565b60006136178383613a45565b905092915050565b6136288161408a565b82525050565b61363781614078565b82525050565b600061364882613f71565b6136528185613f9f565b93508360208202850161366485613f61565b8060005b858110156136a05784840389528151613681858261360b565b945061368c83613f92565b925060208a01995050600181019050613668565b50829750879550505050505092915050565b6136bb8161409c565b82525050565b6136ca8161409c565b82525050565b60006136db82613f7c565b6136e58185613fb0565b93506136f581856020860161410d565b6136fe81614279565b840191505092915050565b600061371482613f87565b61371e8185613fc1565b935061372e81856020860161410d565b61373781614279565b840191505092915050565b600061374d82613f87565b6137578185613fd2565b935061376781856020860161410d565b61377081614279565b840191505092915050565b600061378682613f87565b6137908185613fe3565b93506137a081856020860161410d565b80840191505092915050565b60006137b9602d83613fd2565b91506137c48261428a565b604082019050919050565b60006137dc601b83613fd2565b91506137e7826142d9565b602082019050919050565b60006137ff603283613fd2565b915061380a82614302565b604082019050919050565b6000613822602583613fd2565b915061382d82614351565b604082019050919050565b6000613845601c83613fd2565b9150613850826143a0565b602082019050919050565b6000613868602483613fd2565b9150613873826143c9565b604082019050919050565b600061388b601983613fd2565b915061389682614418565b602082019050919050565b60006138ae602983613fd2565b91506138b982614441565b604082019050919050565b60006138d1602e83613fd2565b91506138dc82614490565b604082019050919050565b60006138f4604083613fd2565b91506138ff826144df565b604082019050919050565b6000613917602083613fd2565b91506139228261452e565b602082019050919050565b600061393a602a83613fd2565b915061394582614557565b604082019050919050565b600061395d603a83613fd2565b9150613968826145a6565b604082019050919050565b6000613980601883613fd2565b915061398b826145f5565b602082019050919050565b60006139a3602183613fd2565b91506139ae8261461e565b604082019050919050565b60006139c6602483613fd2565b91506139d18261466d565b604082019050919050565b60006139e9603d83613fd2565b91506139f4826146bc565b604082019050919050565b6000613a0c603083613fd2565b9150613a178261470b565b604082019050919050565b6000613a2f601c83613fd2565b9150613a3a8261475a565b602082019050919050565b600060e083016000830151613a5d6000860182613ae8565b506020830151613a70602086018261361f565b506040830151613a83604086018261361f565b506060830151613a966060860182613ae8565b506080830151613aa960808601826136b2565b5060a083015184820360a0860152613ac18282613709565b91505060c083015184820360c0860152613adb8282613709565b9150508091505092915050565b613af1816140f4565b82525050565b613b00816140f4565b82525050565b6000613b12828561377b565b9150613b1e828461377b565b91508190509392505050565b6000602082019050613b3f600083018461362e565b92915050565b600060c082019050613b5a600083018961362e565b613b67602083018861362e565b613b746040830187613af7565b613b8160608301866136c1565b8181036080830152613b938185613742565b905081810360a0830152613ba78184613742565b9050979650505050505050565b6000608082019050613bc9600083018761362e565b613bd6602083018661362e565b613be36040830185613af7565b8181036060830152613bf581846136d0565b905095945050505050565b60006020820190508181036000830152613c1a818461363d565b905092915050565b6000602082019050613c3760008301846136c1565b92915050565b60006020820190508181036000830152613c578184613742565b905092915050565b60006020820190508181036000830152613c78816137ac565b9050919050565b60006020820190508181036000830152613c98816137cf565b9050919050565b60006020820190508181036000830152613cb8816137f2565b9050919050565b60006020820190508181036000830152613cd881613815565b9050919050565b60006020820190508181036000830152613cf881613838565b9050919050565b60006020820190508181036000830152613d188161385b565b9050919050565b60006020820190508181036000830152613d388161387e565b9050919050565b60006020820190508181036000830152613d58816138a1565b9050919050565b60006020820190508181036000830152613d78816138c4565b9050919050565b60006020820190508181036000830152613d98816138e7565b9050919050565b60006020820190508181036000830152613db88161390a565b9050919050565b60006020820190508181036000830152613dd88161392d565b9050919050565b60006020820190508181036000830152613df881613950565b9050919050565b60006020820190508181036000830152613e1881613973565b9050919050565b60006020820190508181036000830152613e3881613996565b9050919050565b60006020820190508181036000830152613e58816139b9565b9050919050565b60006020820190508181036000830152613e78816139dc565b9050919050565b60006020820190508181036000830152613e98816139ff565b9050919050565b60006020820190508181036000830152613eb881613a22565b9050919050565b6000602082019050613ed46000830184613af7565b92915050565b6000613ee4613ef5565b9050613ef08282614172565b919050565b6000604051905090565b600067ffffffffffffffff821115613f1a57613f1961424a565b5b613f2382614279565b9050602081019050919050565b600067ffffffffffffffff821115613f4b57613f4a61424a565b5b613f5482614279565b9050602081019050919050565b6000819050602082019050919050565b600081519050919050565b600081519050919050565b600081519050919050565b6000602082019050919050565b600082825260208201905092915050565b600082825260208201905092915050565b600082825260208201905092915050565b600082825260208201905092915050565b600081905092915050565b6000613ff9826140f4565b9150614004836140f4565b9250827fffffffffffffffffffffffffffffffffffffffffffffffffffffffffffffffff03821115614039576140386141ec565b5b828201905092915050565b600061404f826140f4565b915061405a836140f4565b92508282101561406d5761406c6141ec565b5b828203905092915050565b6000614083826140d4565b9050919050565b6000614095826140d4565b9050919050565b60008115159050919050565b60007fffffffff0000000000000000000000000000000000000000000000000000000082169050919050565b600073ffffffffffffffffffffffffffffffffffffffff82169050919050565b6000819050919050565b82818337600083830152505050565b60005b8381101561412b578082015181840152602081019050614110565b8381111561413a576000848401525b50505050565b6000600282049050600182168061415857607f821691505b6020821081141561416c5761416b61421b565b5b50919050565b61417b82614279565b810181811067ffffffffffffffff8211171561419a5761419961424a565b5b80604052505050565b60006141ae826140f4565b91507fffffffffffffffffffffffffffffffffffffffffffffffffffffffffffffffff8214156141e1576141e06141ec565b5b600182019050919050565b7f4e487b7100000000000000000000000000000000000000000000000000000000600052601160045260246000fd5b7f4e487b7100000000000000000000000000000000000000000000000000000000600052602260045260246000fd5b7f4e487b7100000000000000000000000000000000000000000000000000000000600052604160045260246000fd5b6000601f19601f8301169050919050565b7f4552433732313a2063616c6c6572206973206e6f7420746f6b656e206f776e6560008201527f72206f7220617070726f76656400000000000000000000000000000000000000602082015250565b7f436f756e7465723a2064656372656d656e74206f766572666c6f770000000000600082015250565b7f4552433732313a207472616e7366657220746f206e6f6e20455243373231526560008201527f63656976657220696d706c656d656e7465720000000000000000000000000000602082015250565b7f4552433732313a207472616e736665722066726f6d20696e636f72726563742060008201527f6f776e6572000000000000000000000000000000000000000000000000000000602082015250565b7f4552433732313a20746f6b656e20616c7265616479206d696e74656400000000600082015250565b7f4552433732313a207472616e7366657220746f20746865207a65726f2061646460008201527f7265737300000000000000000000000000000000000000000000000000000000602082015250565b7f4552433732313a20617070726f766520746f2063616c6c657200000000000000600082015250565b7f4552433732313a2061646472657373207a65726f206973206e6f74206120766160008201527f6c6964206f776e65720000000000000000000000000000000000000000000000602082015250565b7f45524337323155524953746f726167653a2055524920736574206f66206e6f6e60008201527f6578697374656e7420746f6b656e000000000000000000000000000000000000602082015250565b7f506c65617365207375626d6974207468652061736b696e67207072696365206960008201527f6e206f7264657220746f20636f6d706c65746520746865207075726368617365602082015250565b7f4552433732313a206d696e7420746f20746865207a65726f2061646472657373600082015250565b7f4f6e6c79206974656d206f776e65722063616e20706572666f726d207468697360008201527f206f7065726174696f6e00000000000000000000000000000000000000000000602082015250565b7f6f6e6c79206f776e6572206f6620746865206d61726b6574706c61636520636160008201527f6e206368616e676520746865206c697374696e67207072696365000000000000602082015250565b7f4552433732313a20696e76616c696420746f6b656e2049440000000000000000600082015250565b7f4552433732313a20617070726f76616c20746f2063757272656e74206f776e6560008201527f7200000000000000000000000000000000000000000000000000000000000000602082015250565b7f5072696365206d75737420626520657175616c20746f206c697374696e67207060008201527f7269636500000000000000000000000000000000000000000000000000000000602082015250565b7f4552433732313a20617070726f76652063616c6c6572206973206e6f7420746f60008201527f6b656e206f776e6572206f7220617070726f76656420666f7220616c6c000000602082015250565b7f4f6e6c79206d61726b6574706c616365206f776e65722063616e20757064617460008201527f65206c697374696e672070726963652e00000000000000000000000000000000602082015250565b7f5072696365206d757374206265206174206c6561737420312077656900000000600082015250565b61478c81614078565b811461479757600080fd5b50565b6147a38161409c565b81146147ae57600080fd5b50565b6147ba816140a8565b81146147c557600080fd5b50565b6147d1816140f4565b81146147dc57600080fd5b5056fea26469706673582212206062e6847d7cf70ac82377cdeeec87571bade8e6c511bd0e3fcec07cbc54aa9c64736f6c63430008040033",
  "immutableReferences": {},
  "source": "// SPDX-License-Identifier: MIT\r\npragma solidity ^0.8.4;\r\n\r\nimport \"@openzeppelin/contracts/utils/Counters.sol\";\r\nimport \"@openzeppelin/contracts/token/ERC721/extensions/ERC721URIStorage.sol\";\r\nimport \"@openzeppelin/contracts/token/ERC721/ERC721.sol\";\r\n\r\ncontract NFTMarketplace is ERC721URIStorage {\r\n    using Counters for Counters.Counter;\r\n    Counters.Counter private _tokenIds;\r\n    Counters.Counter private _itemsSold;\r\n\r\n    uint256 listingPrice = 0.025 ether;\r\n    address payable owner;\r\n\r\n    mapping(uint256 => MarketItem) private idToMarketItem;\r\n\r\n    struct MarketItem {\r\n        uint256 tokenId;\r\n        address payable seller;\r\n        address payable owner;\r\n        uint256 price;\r\n        bool sold;\r\n        string name;\r\n        string description;\r\n    }\r\n\r\n    event MarketItemCreated(\r\n        uint256 indexed tokenId,\r\n        address seller,\r\n        address owner,\r\n        uint256 price,\r\n        bool sold,\r\n        string name,\r\n        string description\r\n    );\r\n\r\n    modifier onlyOwner() {\r\n        require(\r\n            msg.sender == owner,\r\n            \"only owner of the marketplace can change the listing price\"\r\n        );\r\n        _;\r\n    }\r\n\r\n    constructor() ERC721(\"NFTMarketplace\", \"METT\") {\r\n        owner = payable(msg.sender);\r\n    }\r\n\r\n    /* Updates the listing price of the contract */\r\n    function updateListingPrice(\r\n        uint256 _listingPrice\r\n    ) public payable onlyOwner {\r\n        require(\r\n            owner == msg.sender,\r\n            \"Only marketplace owner can update listing price.\"\r\n        );\r\n        listingPrice = _listingPrice;\r\n    }\r\n\r\n    /* Returns the listing price of the contract */\r\n    function getListingPrice() public view returns (uint256) {\r\n        return listingPrice;\r\n    }\r\n\r\n    /* Mints a token and lists it in the marketplace */\r\n    function createToken(\r\n        string memory tokenURI,\r\n        uint256 price,\r\n        string memory name,\r\n        string memory description\r\n    ) public payable returns (uint256) {\r\n        _tokenIds.increment();\r\n        uint256 newTokenId = _tokenIds.current();\r\n\r\n        _mint(msg.sender, newTokenId);\r\n        _setTokenURI(newTokenId, tokenURI);\r\n        createMarketItem(newTokenId, price, name, description);\r\n        return newTokenId;\r\n    }\r\n\r\n    function createMarketItem(\r\n        uint256 tokenId,\r\n        uint256 price,\r\n        string memory name,\r\n        string memory description\r\n    ) private {\r\n        require(price > 0, \"Price must be at least 1 wei\");\r\n        require(\r\n            msg.value == listingPrice,\r\n            \"Price must be equal to listing price\"\r\n        );\r\n\r\n        idToMarketItem[tokenId] = MarketItem(\r\n            tokenId,\r\n            payable(msg.sender),\r\n            payable(address(this)),\r\n            price,\r\n            false,\r\n            name,\r\n            description\r\n        );\r\n\r\n        _transfer(msg.sender, address(this), tokenId);\r\n        emit MarketItemCreated(\r\n            tokenId,\r\n            msg.sender,\r\n            address(this),\r\n            price,\r\n            false,\r\n            name,\r\n            description\r\n        );\r\n    }\r\n\r\n    /* allows someone to resell a token they have purchased */\r\n    function resellToken(uint256 tokenId, uint256 price) public payable {\r\n        require(\r\n            idToMarketItem[tokenId].owner == msg.sender,\r\n            \"Only item owner can perform this operation\"\r\n        );\r\n        require(\r\n            msg.value == listingPrice,\r\n            \"Price must be equal to listing price\"\r\n        );\r\n        idToMarketItem[tokenId].sold = false;\r\n        idToMarketItem[tokenId].price = price;\r\n        idToMarketItem[tokenId].seller = payable(msg.sender);\r\n        idToMarketItem[tokenId].owner = payable(address(this));\r\n        _itemsSold.decrement();\r\n\r\n        _transfer(msg.sender, address(this), tokenId);\r\n    }\r\n\r\n    /* Creates the sale of a marketplace item */\r\n    /* Transfers ownership of the item, as well as funds between parties */\r\n    function createMarketSale(uint256 tokenId) public payable {\r\n        uint256 price = idToMarketItem[tokenId].price;\r\n        require(\r\n            msg.value == price,\r\n            \"Please submit the asking price in order to complete the purchase\"\r\n        );\r\n        idToMarketItem[tokenId].owner = payable(msg.sender);\r\n        idToMarketItem[tokenId].sold = true;\r\n        idToMarketItem[tokenId].seller = payable(address(0));\r\n        _itemsSold.increment();\r\n        _transfer(address(this), msg.sender, tokenId);\r\n        payable(owner).transfer(listingPrice);\r\n        payable(idToMarketItem[tokenId].seller).transfer(msg.value);\r\n    }\r\n\r\n    /* Returns all unsold market items */\r\n    function fetchMarketItems() public view returns (MarketItem[] memory) {\r\n        uint256 itemCount = _tokenIds.current();\r\n        uint256 unsoldItemCount = _tokenIds.current() - _itemsSold.current();\r\n        uint256 currentIndex = 0;\r\n\r\n        MarketItem[] memory items = new MarketItem[](unsoldItemCount);\r\n        for (uint256 i = 0; i < itemCount; i++) {\r\n            if (idToMarketItem[i + 1].owner == address(this)) {\r\n                uint256 currentId = i + 1;\r\n                MarketItem storage currentItem = idToMarketItem[currentId];\r\n                items[currentIndex] = currentItem;\r\n                currentIndex += 1;\r\n            }\r\n        }\r\n        return items;\r\n    }\r\n\r\n    /* Returns only items that a user has purchased */\r\n    function fetchMyNFTs() public view returns (MarketItem[] memory) {\r\n        uint256 totalItemCount = _tokenIds.current();\r\n        uint256 itemCount = 0;\r\n        uint256 currentIndex = 0;\r\n\r\n        for (uint256 i = 0; i < totalItemCount; i++) {\r\n            if (idToMarketItem[i + 1].owner == msg.sender) {\r\n                itemCount += 1;\r\n            }\r\n        }\r\n\r\n        MarketItem[] memory items = new MarketItem[](itemCount);\r\n        for (uint256 i = 0; i < totalItemCount; i++) {\r\n            if (idToMarketItem[i + 1].owner == msg.sender) {\r\n                uint256 currentId = i + 1;\r\n                MarketItem storage currentItem = idToMarketItem[currentId];\r\n                items[currentIndex] = currentItem;\r\n                currentIndex += 1;\r\n            }\r\n        }\r\n        return items;\r\n    }\r\n\r\n    /* Returns only items a user has listed */\r\n    function fetchItemsListed() public view returns (MarketItem[] memory) {\r\n        uint256 totalItemCount = _tokenIds.current();\r\n        uint256 itemCount = 0;\r\n        uint256 currentIndex = 0;\r\n\r\n        for (uint256 i = 0; i < totalItemCount; i++) {\r\n            if (idToMarketItem[i + 1].seller == msg.sender) {\r\n                itemCount += 1;\r\n            }\r\n        }\r\n\r\n        MarketItem[] memory items = new MarketItem[](itemCount);\r\n        for (uint256 i = 0; i < totalItemCount; i++) {\r\n            if (idToMarketItem[i + 1].seller == msg.sender) {\r\n                uint256 currentId = i + 1;\r\n                MarketItem storage currentItem = idToMarketItem[currentId];\r\n                items[currentIndex] = currentItem;\r\n                currentIndex += 1;\r\n            }\r\n        }\r\n        return items;\r\n    }\r\n}\r\n",
  "sourcePath": "C:\\Users\\soham\\OneDrive\\Desktop\\Endgame\\nft-marketplace__frontend\\contracts\\NFTMarketplace.sol",
  "compiler": {
    "name": "solc",
    "version": "0.8.4+commit.c7e474f2.Emscripten.clang"
  },
  "schemaVersion": "3.4.13",
  "updatedAt": "2023-05-17T11:22:30.866Z",
  "networkType": "ethereum",
  "devdoc": {
    "kind": "dev",
    "methods": {
      "approve(address,uint256)": {
        "details": "See {IERC721-approve}."
      },
      "balanceOf(address)": {
        "details": "See {IERC721-balanceOf}."
      },
      "getApproved(uint256)": {
        "details": "See {IERC721-getApproved}."
      },
      "isApprovedForAll(address,address)": {
        "details": "See {IERC721-isApprovedForAll}."
      },
      "name()": {
        "details": "See {IERC721Metadata-name}."
      },
      "ownerOf(uint256)": {
        "details": "See {IERC721-ownerOf}."
      },
      "safeTransferFrom(address,address,uint256)": {
        "details": "See {IERC721-safeTransferFrom}."
      },
      "safeTransferFrom(address,address,uint256,bytes)": {
        "details": "See {IERC721-safeTransferFrom}."
      },
      "setApprovalForAll(address,bool)": {
        "details": "See {IERC721-setApprovalForAll}."
      },
      "supportsInterface(bytes4)": {
        "details": "See {IERC165-supportsInterface}."
      },
      "symbol()": {
        "details": "See {IERC721Metadata-symbol}."
      },
      "tokenURI(uint256)": {
        "details": "See {IERC721Metadata-tokenURI}."
      },
      "transferFrom(address,address,uint256)": {
        "details": "See {IERC721-transferFrom}."
      }
    },
    "version": 1
  },
  "userdoc": {
    "kind": "user",
    "methods": {},
    "version": 1
  }
}