{
  "contractName": "NFTMarketplace",
  "abi": [
    {
      "inputs": [],
      "stateMutability": "nonpayable",
      "type": "constructor"
    },
    {
      "anonymous": false,
      "inputs": [
        {
          "indexed": true,
          "internalType": "address",
          "name": "owner",
          "type": "address"
        },
        {
          "indexed": true,
          "internalType": "address",
          "name": "approved",
          "type": "address"
        },
        {
          "indexed": true,
          "internalType": "uint256",
          "name": "tokenId",
          "type": "uint256"
        }
      ],
      "name": "Approval",
      "type": "event"
    },
    {
      "anonymous": false,
      "inputs": [
        {
          "indexed": true,
          "internalType": "address",
          "name": "owner",
          "type": "address"
        },
        {
          "indexed": true,
          "internalType": "address",
          "name": "operator",
          "type": "address"
        },
        {
          "indexed": false,
          "internalType": "bool",
          "name": "approved",
          "type": "bool"
        }
      ],
      "name": "ApprovalForAll",
      "type": "event"
    },
    {
      "anonymous": false,
      "inputs": [
        {
          "indexed": false,
          "internalType": "uint256",
          "name": "_fromTokenId",
          "type": "uint256"
        },
        {
          "indexed": false,
          "internalType": "uint256",
          "name": "_toTokenId",
          "type": "uint256"
        }
      ],
      "name": "BatchMetadataUpdate",
      "type": "event"
    },
    {
      "anonymous": false,
      "inputs": [
        {
          "indexed": true,
          "internalType": "uint256",
          "name": "tokenId",
          "type": "uint256"
        },
        {
          "indexed": false,
          "internalType": "address",
          "name": "seller",
          "type": "address"
        },
        {
          "indexed": false,
          "internalType": "address",
          "name": "owner",
          "type": "address"
        },
        {
          "indexed": false,
          "internalType": "uint256",
          "name": "price",
          "type": "uint256"
        },
        {
          "indexed": false,
          "internalType": "bool",
          "name": "sold",
          "type": "bool"
        },
        {
          "indexed": false,
          "internalType": "string",
          "name": "name",
          "type": "string"
        },
        {
          "indexed": false,
          "internalType": "string",
          "name": "description",
          "type": "string"
        }
      ],
      "name": "MarketItemCreated",
      "type": "event"
    },
    {
      "anonymous": false,
      "inputs": [
        {
          "indexed": false,
          "internalType": "uint256",
          "name": "_tokenId",
          "type": "uint256"
        }
      ],
      "name": "MetadataUpdate",
      "type": "event"
    },
    {
      "anonymous": false,
      "inputs": [
        {
          "indexed": true,
          "internalType": "address",
          "name": "from",
          "type": "address"
        },
        {
          "indexed": true,
          "internalType": "address",
          "name": "to",
          "type": "address"
        },
        {
          "indexed": true,
          "internalType": "uint256",
          "name": "tokenId",
          "type": "uint256"
        }
      ],
      "name": "Transfer",
      "type": "event"
    },
    {
      "inputs": [
        {
          "internalType": "address",
          "name": "to",
          "type": "address"
        },
        {
          "internalType": "uint256",
          "name": "tokenId",
          "type": "uint256"
        }
      ],
      "name": "approve",
      "outputs": [],
      "stateMutability": "nonpayable",
      "type": "function"
    },
    {
      "inputs": [
        {
          "internalType": "address",
          "name": "owner",
          "type": "address"
        }
      ],
      "name": "balanceOf",
      "outputs": [
        {
          "internalType": "uint256",
          "name": "",
          "type": "uint256"
        }
      ],
      "stateMutability": "view",
      "type": "function",
      "constant": true
    },
    {
      "inputs": [
        {
          "internalType": "uint256",
          "name": "tokenId",
          "type": "uint256"
        }
      ],
      "name": "getApproved",
      "outputs": [
        {
          "internalType": "address",
          "name": "",
          "type": "address"
        }
      ],
      "stateMutability": "view",
      "type": "function",
      "constant": true
    },
    {
      "inputs": [
        {
          "internalType": "address",
          "name": "owner",
          "type": "address"
        },
        {
          "internalType": "address",
          "name": "operator",
          "type": "address"
        }
      ],
      "name": "isApprovedForAll",
      "outputs": [
        {
          "internalType": "bool",
          "name": "",
          "type": "bool"
        }
      ],
      "stateMutability": "view",
      "type": "function",
      "constant": true
    },
    {
      "inputs": [],
      "name": "name",
      "outputs": [
        {
          "internalType": "string",
          "name": "",
          "type": "string"
        }
      ],
      "stateMutability": "view",
      "type": "function",
      "constant": true
    },
    {
      "inputs": [
        {
          "internalType": "uint256",
          "name": "tokenId",
          "type": "uint256"
        }
      ],
      "name": "ownerOf",
      "outputs": [
        {
          "internalType": "address",
          "name": "",
          "type": "address"
        }
      ],
      "stateMutability": "view",
      "type": "function",
      "constant": true
    },
    {
      "inputs": [
        {
          "internalType": "address",
          "name": "from",
          "type": "address"
        },
        {
          "internalType": "address",
          "name": "to",
          "type": "address"
        },
        {
          "internalType": "uint256",
          "name": "tokenId",
          "type": "uint256"
        }
      ],
      "name": "safeTransferFrom",
      "outputs": [],
      "stateMutability": "nonpayable",
      "type": "function"
    },
    {
      "inputs": [
        {
          "internalType": "address",
          "name": "from",
          "type": "address"
        },
        {
          "internalType": "address",
          "name": "to",
          "type": "address"
        },
        {
          "internalType": "uint256",
          "name": "tokenId",
          "type": "uint256"
        },
        {
          "internalType": "bytes",
          "name": "data",
          "type": "bytes"
        }
      ],
      "name": "safeTransferFrom",
      "outputs": [],
      "stateMutability": "nonpayable",
      "type": "function"
    },
    {
      "inputs": [
        {
          "internalType": "address",
          "name": "operator",
          "type": "address"
        },
        {
          "internalType": "bool",
          "name": "approved",
          "type": "bool"
        }
      ],
      "name": "setApprovalForAll",
      "outputs": [],
      "stateMutability": "nonpayable",
      "type": "function"
    },
    {
      "inputs": [
        {
          "internalType": "bytes4",
          "name": "interfaceId",
          "type": "bytes4"
        }
      ],
      "name": "supportsInterface",
      "outputs": [
        {
          "internalType": "bool",
          "name": "",
          "type": "bool"
        }
      ],
      "stateMutability": "view",
      "type": "function",
      "constant": true
    },
    {
      "inputs": [],
      "name": "symbol",
      "outputs": [
        {
          "internalType": "string",
          "name": "",
          "type": "string"
        }
      ],
      "stateMutability": "view",
      "type": "function",
      "constant": true
    },
    {
      "inputs": [
        {
          "internalType": "uint256",
          "name": "tokenId",
          "type": "uint256"
        }
      ],
      "name": "tokenURI",
      "outputs": [
        {
          "internalType": "string",
          "name": "",
          "type": "string"
        }
      ],
      "stateMutability": "view",
      "type": "function",
      "constant": true
    },
    {
      "inputs": [
        {
          "internalType": "address",
          "name": "from",
          "type": "address"
        },
        {
          "internalType": "address",
          "name": "to",
          "type": "address"
        },
        {
          "internalType": "uint256",
          "name": "tokenId",
          "type": "uint256"
        }
      ],
      "name": "transferFrom",
      "outputs": [],
      "stateMutability": "nonpayable",
      "type": "function"
    },
    {
      "inputs": [
        {
          "internalType": "uint256",
          "name": "_listingPrice",
          "type": "uint256"
        }
      ],
      "name": "updateListingPrice",
      "outputs": [],
      "stateMutability": "payable",
      "type": "function",
      "payable": true
    },
    {
      "inputs": [],
      "name": "getListingPrice",
      "outputs": [
        {
          "internalType": "uint256",
          "name": "",
          "type": "uint256"
        }
      ],
      "stateMutability": "view",
      "type": "function",
      "constant": true
    },
    {
      "inputs": [
        {
          "internalType": "string",
          "name": "tokenURI",
          "type": "string"
        },
        {
          "internalType": "uint256",
          "name": "price",
          "type": "uint256"
        },
        {
          "internalType": "string",
          "name": "name",
          "type": "string"
        },
        {
          "internalType": "string",
          "name": "description",
          "type": "string"
        }
      ],
      "name": "createToken",
      "outputs": [
        {
          "internalType": "uint256",
          "name": "",
          "type": "uint256"
        }
      ],
      "stateMutability": "payable",
      "type": "function",
      "payable": true
    },
    {
      "inputs": [
        {
          "internalType": "uint256",
          "name": "tokenId",
          "type": "uint256"
        },
        {
          "internalType": "uint256",
          "name": "price",
          "type": "uint256"
        }
      ],
      "name": "resellToken",
      "outputs": [],
      "stateMutability": "payable",
      "type": "function",
      "payable": true
    },
    {
      "inputs": [
        {
          "internalType": "uint256",
          "name": "tokenId",
          "type": "uint256"
        }
      ],
      "name": "createMarketSale",
      "outputs": [],
      "stateMutability": "payable",
      "type": "function",
      "payable": true
    },
    {
      "inputs": [],
      "name": "fetchMarketItems",
      "outputs": [
        {
          "components": [
            {
              "internalType": "uint256",
              "name": "tokenId",
              "type": "uint256"
            },
            {
              "internalType": "address payable",
              "name": "seller",
              "type": "address"
            },
            {
              "internalType": "address payable",
              "name": "owner",
              "type": "address"
            },
            {
              "internalType": "uint256",
              "name": "price",
              "type": "uint256"
            },
            {
              "internalType": "bool",
              "name": "sold",
              "type": "bool"
            },
            {
              "internalType": "string",
              "name": "name",
              "type": "string"
            },
            {
              "internalType": "string",
              "name": "description",
              "type": "string"
            }
          ],
          "internalType": "struct NFTMarketplace.MarketItem[]",
          "name": "",
          "type": "tuple[]"
        }
      ],
      "stateMutability": "view",
      "type": "function",
      "constant": true
    },
    {
      "inputs": [],
      "name": "fetchMyNFTs",
      "outputs": [
        {
          "components": [
            {
              "internalType": "uint256",
              "name": "tokenId",
              "type": "uint256"
            },
            {
              "internalType": "address payable",
              "name": "seller",
              "type": "address"
            },
            {
              "internalType": "address payable",
              "name": "owner",
              "type": "address"
            },
            {
              "internalType": "uint256",
              "name": "price",
              "type": "uint256"
            },
            {
              "internalType": "bool",
              "name": "sold",
              "type": "bool"
            },
            {
              "internalType": "string",
              "name": "name",
              "type": "string"
            },
            {
              "internalType": "string",
              "name": "description",
              "type": "string"
            }
          ],
          "internalType": "struct NFTMarketplace.MarketItem[]",
          "name": "",
          "type": "tuple[]"
        }
      ],
      "stateMutability": "view",
      "type": "function",
      "constant": true
    },
    {
      "inputs": [
        {
          "internalType": "uint256",
          "name": "tokenId",
          "type": "uint256"
        }
      ],
      "name": "tokenExists",
      "outputs": [
        {
          "internalType": "bool",
          "name": "",
          "type": "bool"
        }
      ],
      "stateMutability": "view",
      "type": "function",
      "constant": true
    },
    {
      "inputs": [
        {
          "internalType": "uint256",
          "name": "tokenId",
          "type": "uint256"
        }
      ],
      "name": "fetchItemWithId",
      "outputs": [
        {
          "components": [
            {
              "internalType": "uint256",
              "name": "tokenId",
              "type": "uint256"
            },
            {
              "internalType": "address payable",
              "name": "seller",
              "type": "address"
            },
            {
              "internalType": "address payable",
              "name": "owner",
              "type": "address"
            },
            {
              "internalType": "uint256",
              "name": "price",
              "type": "uint256"
            },
            {
              "internalType": "bool",
              "name": "sold",
              "type": "bool"
            },
            {
              "internalType": "string",
              "name": "name",
              "type": "string"
            },
            {
              "internalType": "string",
              "name": "description",
              "type": "string"
            }
          ],
          "internalType": "struct NFTMarketplace.MarketItem",
          "name": "",
          "type": "tuple"
        }
      ],
      "stateMutability": "view",
      "type": "function",
      "constant": true
    },
    {
      "inputs": [],
      "name": "fetchItemsListed",
      "outputs": [
        {
          "components": [
            {
              "internalType": "uint256",
              "name": "tokenId",
              "type": "uint256"
            },
            {
              "internalType": "address payable",
              "name": "seller",
              "type": "address"
            },
            {
              "internalType": "address payable",
              "name": "owner",
              "type": "address"
            },
            {
              "internalType": "uint256",
              "name": "price",
              "type": "uint256"
            },
            {
              "internalType": "bool",
              "name": "sold",
              "type": "bool"
            },
            {
              "internalType": "string",
              "name": "name",
              "type": "string"
            },
            {
              "internalType": "string",
              "name": "description",
              "type": "string"
            }
          ],
          "internalType": "struct NFTMarketplace.MarketItem[]",
          "name": "",
          "type": "tuple[]"
        }
      ],
      "stateMutability": "view",
      "type": "function",
      "constant": true
    }
  ],
  "bytecode": "0x60806040526658d15e176280006009553480156200001c57600080fd5b506040518060400160405280600e81526020017f4e46544d61726b6574706c6163650000000000000000000000000000000000008152506040518060400160405280600481526020017f4d455454000000000000000000000000000000000000000000000000000000008152508160009080519060200190620000a192919062000104565b508060019080519060200190620000ba92919062000104565b50505033600a60006101000a81548173ffffffffffffffffffffffffffffffffffffffff021916908373ffffffffffffffffffffffffffffffffffffffff16021790555062000219565b8280546200011290620001b4565b90600052602060002090601f01602090048101928262000136576000855562000182565b82601f106200015157805160ff191683800117855562000182565b8280016001018555821562000182579182015b828111156200018157825182559160200191906001019062000164565b5b50905062000191919062000195565b5090565b5b80821115620001b057600081600090555060010162000196565b5090565b60006002820490506001821680620001cd57607f821691505b60208210811415620001e457620001e3620001ea565b5b50919050565b7f4e487b7100000000000000000000000000000000000000000000000000000000600052602260045260246000fd5b614d5080620002296000396000f3fe60806040526004361061013f5760003560e01c80636352211e116100b6578063be9af5361161006f578063be9af53614610460578063c0f3f7181461047c578063c87b56dd146104b9578063e219fc75146104f6578063e7c3a03e14610512578063e985e9c5146105425761013f565b80636352211e1461034d57806370a082311461038a57806395d89b41146103c7578063a22cb465146103f2578063ae677aa31461041b578063b88d4fde146104375761013f565b80630f08efe0116101085780630f08efe01461024f57806312e855851461027a578063202e3740146102a557806323b872dd146102d057806342842e0e146102f957806345f8fa80146103225761013f565b8062923f9e1461014457806301ffc9a71461018157806306fdde03146101be578063081812fc146101e9578063095ea7b314610226575b600080fd5b34801561015057600080fd5b5061016b600480360381019061016691906139b0565b61057f565b60405161017891906140f2565b60405180910390f35b34801561018d57600080fd5b506101a860048036038101906101a391906138b3565b6105ee565b6040516101b591906140f2565b60405180910390f35b3480156101ca57600080fd5b506101d361064f565b6040516101e0919061410d565b60405180910390f35b3480156101f557600080fd5b50610210600480360381019061020b91906139b0565b6106e1565b60405161021d9190613ffa565b60405180910390f35b34801561023257600080fd5b5061024d60048036038101906102489190613877565b610727565b005b34801561025b57600080fd5b5061026461083f565b60405161027191906140d0565b60405180910390f35b34801561028657600080fd5b5061028f610c18565b60405161029c91906143d1565b60405180910390f35b3480156102b157600080fd5b506102ba610c22565b6040516102c791906140d0565b60405180910390f35b3480156102dc57600080fd5b506102f760048036038101906102f29190613771565b611080565b005b34801561030557600080fd5b50610320600480360381019061031b9190613771565b6110e0565b005b34801561032e57600080fd5b50610337611100565b60405161034491906140d0565b60405180910390f35b34801561035957600080fd5b50610374600480360381019061036f91906139b0565b61155e565b6040516103819190613ffa565b60405180910390f35b34801561039657600080fd5b506103b160048036038101906103ac919061370c565b6115e5565b6040516103be91906143d1565b60405180910390f35b3480156103d357600080fd5b506103dc61169d565b6040516103e9919061410d565b60405180910390f35b3480156103fe57600080fd5b506104196004803603810190610414919061383b565b61172f565b005b610435600480360381019061043091906139b0565b611745565b005b34801561044357600080fd5b5061045e600480360381019061045991906137c0565b61186f565b005b61047a600480360381019061047591906139b0565b6118d1565b005b34801561048857600080fd5b506104a3600480360381019061049e91906139b0565b611b09565b6040516104b091906143af565b60405180910390f35b3480156104c557600080fd5b506104e060048036038101906104db91906139b0565b611d7d565b6040516104ed919061410d565b60405180910390f35b610510600480360381019061050b91906139d9565b611e90565b005b61052c60048036038101906105279190613905565b612085565b60405161053991906143d1565b60405180910390f35b34801561054e57600080fd5b5061056960048036038101906105649190613735565b6120cb565b60405161057691906140f2565b60405180910390f35b60008073ffffffffffffffffffffffffffffffffffffffff16600b600084815260200190815260200160002060020160009054906101000a900473ffffffffffffffffffffffffffffffffffffffff1673ffffffffffffffffffffffffffffffffffffffff1614159050919050565b6000634906490660e01b7bffffffffffffffffffffffffffffffffffffffffffffffffffffffff1916827bffffffffffffffffffffffffffffffffffffffffffffffffffffffff1916148061064857506106478261215f565b5b9050919050565b60606000805461065e90614652565b80601f016020809104026020016040519081016040528092919081815260200182805461068a90614652565b80156106d75780601f106106ac576101008083540402835291602001916106d7565b820191906000526020600020905b8154815290600101906020018083116106ba57829003601f168201915b5050505050905090565b60006106ec82612241565b6004600083815260200190815260200160002060009054906101000a900473ffffffffffffffffffffffffffffffffffffffff169050919050565b60006107328261155e565b90508073ffffffffffffffffffffffffffffffffffffffff168373ffffffffffffffffffffffffffffffffffffffff1614156107a3576040517f08c379a000000000000000000000000000000000000000000000000000000000815260040161079a9061430f565b60405180910390fd5b8073ffffffffffffffffffffffffffffffffffffffff166107c261228c565b73ffffffffffffffffffffffffffffffffffffffff1614806107f157506107f0816107eb61228c565b6120cb565b5b610830576040517f08c379a00000000000000000000000000000000000000000000000000000000081526004016108279061434f565b60405180910390fd5b61083a8383612294565b505050565b6060600061084d600761234d565b9050600061085b600861234d565b610865600761234d565b61086f9190614556565b90506000808267ffffffffffffffff8111156108b4577f4e487b7100000000000000000000000000000000000000000000000000000000600052604160045260246000fd5b6040519080825280602002602001820160405280156108ed57816020015b6108da6134c5565b8152602001906001900390816108d25790505b50905060005b84811015610c0d573073ffffffffffffffffffffffffffffffffffffffff16600b60006001846109239190614500565b815260200190815260200160002060020160009054906101000a900473ffffffffffffffffffffffffffffffffffffffff1673ffffffffffffffffffffffffffffffffffffffff161415610bfa5760006001826109809190614500565b90506000600b60008381526020019081526020016000209050806040518060e0016040529081600082015481526020016001820160009054906101000a900473ffffffffffffffffffffffffffffffffffffffff1673ffffffffffffffffffffffffffffffffffffffff1673ffffffffffffffffffffffffffffffffffffffff1681526020016002820160009054906101000a900473ffffffffffffffffffffffffffffffffffffffff1673ffffffffffffffffffffffffffffffffffffffff1673ffffffffffffffffffffffffffffffffffffffff168152602001600382015481526020016004820160009054906101000a900460ff16151515158152602001600582018054610a9090614652565b80601f0160208091040260200160405190810160405280929190818152602001828054610abc90614652565b8015610b095780601f10610ade57610100808354040283529160200191610b09565b820191906000526020600020905b815481529060010190602001808311610aec57829003601f168201915b50505050508152602001600682018054610b2290614652565b80601f0160208091040260200160405190810160405280929190818152602001828054610b4e90614652565b8015610b9b5780601f10610b7057610100808354040283529160200191610b9b565b820191906000526020600020905b815481529060010190602001808311610b7e57829003601f168201915b505050505081525050848681518110610bdd577f4e487b7100000000000000000000000000000000000000000000000000000000600052603260045260246000fd5b6020026020010181905250600185610bf59190614500565b945050505b8080610c05906146b5565b9150506108f3565b508094505050505090565b6000600954905090565b60606000610c30600761234d565b905060008060005b83811015610cd9573373ffffffffffffffffffffffffffffffffffffffff16600b6000600184610c689190614500565b815260200190815260200160002060020160009054906101000a900473ffffffffffffffffffffffffffffffffffffffff1673ffffffffffffffffffffffffffffffffffffffff161415610cc657600183610cc39190614500565b92505b8080610cd1906146b5565b915050610c38565b5060008267ffffffffffffffff811115610d1c577f4e487b7100000000000000000000000000000000000000000000000000000000600052604160045260246000fd5b604051908082528060200260200182016040528015610d5557816020015b610d426134c5565b815260200190600190039081610d3a5790505b50905060005b84811015611075573373ffffffffffffffffffffffffffffffffffffffff16600b6000600184610d8b9190614500565b815260200190815260200160002060020160009054906101000a900473ffffffffffffffffffffffffffffffffffffffff1673ffffffffffffffffffffffffffffffffffffffff161415611062576000600182610de89190614500565b90506000600b60008381526020019081526020016000209050806040518060e0016040529081600082015481526020016001820160009054906101000a900473ffffffffffffffffffffffffffffffffffffffff1673ffffffffffffffffffffffffffffffffffffffff1673ffffffffffffffffffffffffffffffffffffffff1681526020016002820160009054906101000a900473ffffffffffffffffffffffffffffffffffffffff1673ffffffffffffffffffffffffffffffffffffffff1673ffffffffffffffffffffffffffffffffffffffff168152602001600382015481526020016004820160009054906101000a900460ff16151515158152602001600582018054610ef890614652565b80601f0160208091040260200160405190810160405280929190818152602001828054610f2490614652565b8015610f715780601f10610f4657610100808354040283529160200191610f71565b820191906000526020600020905b815481529060010190602001808311610f5457829003601f168201915b50505050508152602001600682018054610f8a90614652565b80601f0160208091040260200160405190810160405280929190818152602001828054610fb690614652565b80156110035780601f10610fd857610100808354040283529160200191611003565b820191906000526020600020905b815481529060010190602001808311610fe657829003601f168201915b505050505081525050848681518110611045577f4e487b7100000000000000000000000000000000000000000000000000000000600052603260045260246000fd5b602002602001018190525060018561105d9190614500565b945050505b808061106d906146b5565b915050610d5b565b508094505050505090565b61109161108b61228c565b8261235b565b6110d0576040517f08c379a00000000000000000000000000000000000000000000000000000000081526004016110c79061412f565b60405180910390fd5b6110db8383836123f0565b505050565b6110fb8383836040518060200160405280600081525061186f565b505050565b6060600061110e600761234d565b905060008060005b838110156111b7573373ffffffffffffffffffffffffffffffffffffffff16600b60006001846111469190614500565b815260200190815260200160002060010160009054906101000a900473ffffffffffffffffffffffffffffffffffffffff1673ffffffffffffffffffffffffffffffffffffffff1614156111a4576001836111a19190614500565b92505b80806111af906146b5565b915050611116565b5060008267ffffffffffffffff8111156111fa577f4e487b7100000000000000000000000000000000000000000000000000000000600052604160045260246000fd5b60405190808252806020026020018201604052801561123357816020015b6112206134c5565b8152602001906001900390816112185790505b50905060005b84811015611553573373ffffffffffffffffffffffffffffffffffffffff16600b60006001846112699190614500565b815260200190815260200160002060010160009054906101000a900473ffffffffffffffffffffffffffffffffffffffff1673ffffffffffffffffffffffffffffffffffffffff1614156115405760006001826112c69190614500565b90506000600b60008381526020019081526020016000209050806040518060e0016040529081600082015481526020016001820160009054906101000a900473ffffffffffffffffffffffffffffffffffffffff1673ffffffffffffffffffffffffffffffffffffffff1673ffffffffffffffffffffffffffffffffffffffff1681526020016002820160009054906101000a900473ffffffffffffffffffffffffffffffffffffffff1673ffffffffffffffffffffffffffffffffffffffff1673ffffffffffffffffffffffffffffffffffffffff168152602001600382015481526020016004820160009054906101000a900460ff161515151581526020016005820180546113d690614652565b80601f016020809104026020016040519081016040528092919081815260200182805461140290614652565b801561144f5780601f106114245761010080835404028352916020019161144f565b820191906000526020600020905b81548152906001019060200180831161143257829003601f168201915b5050505050815260200160068201805461146890614652565b80601f016020809104026020016040519081016040528092919081815260200182805461149490614652565b80156114e15780601f106114b6576101008083540402835291602001916114e1565b820191906000526020600020905b8154815290600101906020018083116114c457829003601f168201915b505050505081525050848681518110611523577f4e487b7100000000000000000000000000000000000000000000000000000000600052603260045260246000fd5b602002602001018190525060018561153b9190614500565b945050505b808061154b906146b5565b915050611239565b508094505050505090565b60008061156a836126ea565b9050600073ffffffffffffffffffffffffffffffffffffffff168173ffffffffffffffffffffffffffffffffffffffff1614156115dc576040517f08c379a00000000000000000000000000000000000000000000000000000000081526004016115d3906142ef565b60405180910390fd5b80915050919050565b60008073ffffffffffffffffffffffffffffffffffffffff168273ffffffffffffffffffffffffffffffffffffffff161415611656576040517f08c379a000000000000000000000000000000000000000000000000000000000815260040161164d9061422f565b60405180910390fd5b600360008373ffffffffffffffffffffffffffffffffffffffff1673ffffffffffffffffffffffffffffffffffffffff168152602001908152602001600020549050919050565b6060600180546116ac90614652565b80601f01602080910402602001604051908101604052809291908181526020018280546116d890614652565b80156117255780601f106116fa57610100808354040283529160200191611725565b820191906000526020600020905b81548152906001019060200180831161170857829003601f168201915b5050505050905090565b61174161173a61228c565b8383612727565b5050565b600a60009054906101000a900473ffffffffffffffffffffffffffffffffffffffff1673ffffffffffffffffffffffffffffffffffffffff163373ffffffffffffffffffffffffffffffffffffffff16146117d5576040517f08c379a00000000000000000000000000000000000000000000000000000000081526004016117cc906142cf565b60405180910390fd5b3373ffffffffffffffffffffffffffffffffffffffff16600a60009054906101000a900473ffffffffffffffffffffffffffffffffffffffff1673ffffffffffffffffffffffffffffffffffffffff1614611865576040517f08c379a000000000000000000000000000000000000000000000000000000000815260040161185c9061436f565b60405180910390fd5b8060098190555050565b61188061187a61228c565b8361235b565b6118bf576040517f08c379a00000000000000000000000000000000000000000000000000000000081526004016118b69061412f565b60405180910390fd5b6118cb84848484612894565b50505050565b6000600b600083815260200190815260200160002060030154905080341461192e576040517f08c379a00000000000000000000000000000000000000000000000000000000081526004016119259061426f565b60405180910390fd5b33600b600084815260200190815260200160002060020160006101000a81548173ffffffffffffffffffffffffffffffffffffffff021916908373ffffffffffffffffffffffffffffffffffffffff1602179055506001600b600084815260200190815260200160002060040160006101000a81548160ff0219169083151502179055506000600b600084815260200190815260200160002060010160006101000a81548173ffffffffffffffffffffffffffffffffffffffff021916908373ffffffffffffffffffffffffffffffffffffffff160217905550611a1260086128f0565b611a1d3033846123f0565b600a60009054906101000a900473ffffffffffffffffffffffffffffffffffffffff1673ffffffffffffffffffffffffffffffffffffffff166108fc6009549081150290604051600060405180830381858888f19350505050158015611a87573d6000803e3d6000fd5b50600b600083815260200190815260200160002060010160009054906101000a900473ffffffffffffffffffffffffffffffffffffffff1673ffffffffffffffffffffffffffffffffffffffff166108fc349081150290604051600060405180830381858888f19350505050158015611b04573d6000803e3d6000fd5b505050565b611b116134c5565b611b1a8261057f565b611b59576040517f08c379a0000000000000000000000000000000000000000000000000000000008152600401611b509061420f565b60405180910390fd5b600b60008381526020019081526020016000206040518060e0016040529081600082015481526020016001820160009054906101000a900473ffffffffffffffffffffffffffffffffffffffff1673ffffffffffffffffffffffffffffffffffffffff1673ffffffffffffffffffffffffffffffffffffffff1681526020016002820160009054906101000a900473ffffffffffffffffffffffffffffffffffffffff1673ffffffffffffffffffffffffffffffffffffffff1673ffffffffffffffffffffffffffffffffffffffff168152602001600382015481526020016004820160009054906101000a900460ff16151515158152602001600582018054611c6290614652565b80601f0160208091040260200160405190810160405280929190818152602001828054611c8e90614652565b8015611cdb5780601f10611cb057610100808354040283529160200191611cdb565b820191906000526020600020905b815481529060010190602001808311611cbe57829003601f168201915b50505050508152602001600682018054611cf490614652565b80601f0160208091040260200160405190810160405280929190818152602001828054611d2090614652565b8015611d6d5780601f10611d4257610100808354040283529160200191611d6d565b820191906000526020600020905b815481529060010190602001808311611d5057829003601f168201915b5050505050815250509050919050565b6060611d8882612241565b6000600660008481526020019081526020016000208054611da890614652565b80601f0160208091040260200160405190810160405280929190818152602001828054611dd490614652565b8015611e215780601f10611df657610100808354040283529160200191611e21565b820191906000526020600020905b815481529060010190602001808311611e0457829003601f168201915b505050505090506000611e32612906565b9050600081511415611e48578192505050611e8b565b600082511115611e7d578082604051602001611e65929190613fd6565b60405160208183030381529060405292505050611e8b565b611e868461291d565b925050505b919050565b3373ffffffffffffffffffffffffffffffffffffffff16600b600084815260200190815260200160002060020160009054906101000a900473ffffffffffffffffffffffffffffffffffffffff1673ffffffffffffffffffffffffffffffffffffffff1614611f34576040517f08c379a0000000000000000000000000000000000000000000000000000000008152600401611f2b906142af565b60405180910390fd5b6009543414611f78576040517f08c379a0000000000000000000000000000000000000000000000000000000008152600401611f6f9061432f565b60405180910390fd5b6000600b600084815260200190815260200160002060040160006101000a81548160ff02191690831515021790555080600b60008481526020019081526020016000206003018190555033600b600084815260200190815260200160002060010160006101000a81548173ffffffffffffffffffffffffffffffffffffffff021916908373ffffffffffffffffffffffffffffffffffffffff16021790555030600b600084815260200190815260200160002060020160006101000a81548173ffffffffffffffffffffffffffffffffffffffff021916908373ffffffffffffffffffffffffffffffffffffffff1602179055506120766008612985565b6120813330846123f0565b5050565b600061209160076128f0565b600061209d600761234d565b90506120a933826129e1565b6120b38187612bff565b6120bf81868686612caa565b80915050949350505050565b6000600560008473ffffffffffffffffffffffffffffffffffffffff1673ffffffffffffffffffffffffffffffffffffffff16815260200190815260200160002060008373ffffffffffffffffffffffffffffffffffffffff1673ffffffffffffffffffffffffffffffffffffffff16815260200190815260200160002060009054906101000a900460ff16905092915050565b60007f80ac58cd000000000000000000000000000000000000000000000000000000007bffffffffffffffffffffffffffffffffffffffffffffffffffffffff1916827bffffffffffffffffffffffffffffffffffffffffffffffffffffffff1916148061222a57507f5b5e139f000000000000000000000000000000000000000000000000000000007bffffffffffffffffffffffffffffffffffffffffffffffffffffffff1916827bffffffffffffffffffffffffffffffffffffffffffffffffffffffff1916145b8061223a575061223982612ef9565b5b9050919050565b61224a81612f63565b612289576040517f08c379a0000000000000000000000000000000000000000000000000000000008152600401612280906142ef565b60405180910390fd5b50565b600033905090565b816004600083815260200190815260200160002060006101000a81548173ffffffffffffffffffffffffffffffffffffffff021916908373ffffffffffffffffffffffffffffffffffffffff160217905550808273ffffffffffffffffffffffffffffffffffffffff166123078361155e565b73ffffffffffffffffffffffffffffffffffffffff167f8c5be1e5ebec7d5bd14f71427d1e84f3dd0314c0f7b2291e5b200ac8c7c3b92560405160405180910390a45050565b600081600001549050919050565b6000806123678361155e565b90508073ffffffffffffffffffffffffffffffffffffffff168473ffffffffffffffffffffffffffffffffffffffff1614806123a957506123a881856120cb565b5b806123e757508373ffffffffffffffffffffffffffffffffffffffff166123cf846106e1565b73ffffffffffffffffffffffffffffffffffffffff16145b91505092915050565b8273ffffffffffffffffffffffffffffffffffffffff166124108261155e565b73ffffffffffffffffffffffffffffffffffffffff1614612466576040517f08c379a000000000000000000000000000000000000000000000000000000000815260040161245d9061418f565b60405180910390fd5b600073ffffffffffffffffffffffffffffffffffffffff168273ffffffffffffffffffffffffffffffffffffffff1614156124d6576040517f08c379a00000000000000000000000000000000000000000000000000000000081526004016124cd906141cf565b60405180910390fd5b6124e38383836001612fa4565b8273ffffffffffffffffffffffffffffffffffffffff166125038261155e565b73ffffffffffffffffffffffffffffffffffffffff1614612559576040517f08c379a00000000000000000000000000000000000000000000000000000000081526004016125509061418f565b60405180910390fd5b6004600082815260200190815260200160002060006101000a81549073ffffffffffffffffffffffffffffffffffffffff02191690556001600360008573ffffffffffffffffffffffffffffffffffffffff1673ffffffffffffffffffffffffffffffffffffffff168152602001908152602001600020600082825403925050819055506001600360008473ffffffffffffffffffffffffffffffffffffffff1673ffffffffffffffffffffffffffffffffffffffff16815260200190815260200160002060008282540192505081905550816002600083815260200190815260200160002060006101000a81548173ffffffffffffffffffffffffffffffffffffffff021916908373ffffffffffffffffffffffffffffffffffffffff160217905550808273ffffffffffffffffffffffffffffffffffffffff168473ffffffffffffffffffffffffffffffffffffffff167fddf252ad1be2c89b69c2b068fc378daa952ba7f163c4a11628f55a4df523b3ef60405160405180910390a46126e58383836001612faa565b505050565b60006002600083815260200190815260200160002060009054906101000a900473ffffffffffffffffffffffffffffffffffffffff169050919050565b8173ffffffffffffffffffffffffffffffffffffffff168373ffffffffffffffffffffffffffffffffffffffff161415612796576040517f08c379a000000000000000000000000000000000000000000000000000000000815260040161278d906141ef565b60405180910390fd5b80600560008573ffffffffffffffffffffffffffffffffffffffff1673ffffffffffffffffffffffffffffffffffffffff16815260200190815260200160002060008473ffffffffffffffffffffffffffffffffffffffff1673ffffffffffffffffffffffffffffffffffffffff16815260200190815260200160002060006101000a81548160ff0219169083151502179055508173ffffffffffffffffffffffffffffffffffffffff168373ffffffffffffffffffffffffffffffffffffffff167f17307eab39ab6107e8899845ad3d59bd9653f200f220920489ca2b5937696c318360405161288791906140f2565b60405180910390a3505050565b61289f8484846123f0565b6128ab84848484612fb0565b6128ea576040517f08c379a00000000000000000000000000000000000000000000000000000000081526004016128e19061416f565b60405180910390fd5b50505050565b6001816000016000828254019250508190555050565b606060405180602001604052806000815250905090565b606061292882612241565b6000612932612906565b90506000815111612952576040518060200160405280600081525061297d565b8061295c84613147565b60405160200161296d929190613fd6565b6040516020818303038152906040525b915050919050565b600081600001549050600081116129d1576040517f08c379a00000000000000000000000000000000000000000000000000000000081526004016129c89061414f565b60405180910390fd5b6001810382600001819055505050565b600073ffffffffffffffffffffffffffffffffffffffff168273ffffffffffffffffffffffffffffffffffffffff161415612a51576040517f08c379a0000000000000000000000000000000000000000000000000000000008152600401612a489061428f565b60405180910390fd5b612a5a81612f63565b15612a9a576040517f08c379a0000000000000000000000000000000000000000000000000000000008152600401612a91906141af565b60405180910390fd5b612aa8600083836001612fa4565b612ab181612f63565b15612af1576040517f08c379a0000000000000000000000000000000000000000000000000000000008152600401612ae8906141af565b60405180910390fd5b6001600360008473ffffffffffffffffffffffffffffffffffffffff1673ffffffffffffffffffffffffffffffffffffffff16815260200190815260200160002060008282540192505081905550816002600083815260200190815260200160002060006101000a81548173ffffffffffffffffffffffffffffffffffffffff021916908373ffffffffffffffffffffffffffffffffffffffff160217905550808273ffffffffffffffffffffffffffffffffffffffff16600073ffffffffffffffffffffffffffffffffffffffff167fddf252ad1be2c89b69c2b068fc378daa952ba7f163c4a11628f55a4df523b3ef60405160405180910390a4612bfb600083836001612faa565b5050565b612c0882612f63565b612c47576040517f08c379a0000000000000000000000000000000000000000000000000000000008152600401612c3e9061424f565b60405180910390fd5b80600660008481526020019081526020016000209080519060200190612c6e929190613530565b507ff8e1a15aba9398e019f0b49df1a4fde98ee17ae345cb5f6b5e2c27f5033e8ce782604051612c9e91906143d1565b60405180910390a15050565b60008311612ced576040517f08c379a0000000000000000000000000000000000000000000000000000000008152600401612ce49061438f565b60405180910390fd5b6009543414612d31576040517f08c379a0000000000000000000000000000000000000000000000000000000008152600401612d289061432f565b60405180910390fd5b6040518060e001604052808581526020013373ffffffffffffffffffffffffffffffffffffffff1681526020013073ffffffffffffffffffffffffffffffffffffffff16815260200184815260200160001515815260200183815260200182815250600b60008681526020019081526020016000206000820151816000015560208201518160010160006101000a81548173ffffffffffffffffffffffffffffffffffffffff021916908373ffffffffffffffffffffffffffffffffffffffff16021790555060408201518160020160006101000a81548173ffffffffffffffffffffffffffffffffffffffff021916908373ffffffffffffffffffffffffffffffffffffffff1602179055506060820151816003015560808201518160040160006101000a81548160ff02191690831515021790555060a0820151816005019080519060200190612e84929190613530565b5060c0820151816006019080519060200190612ea1929190613530565b50905050612eb03330866123f0565b837f5d85442b762d770d3f8d5da68357afcc24a270db6bdcecaed959e6139200a89633308660008787604051612eeb96959493929190614015565b60405180910390a250505050565b60007f01ffc9a7000000000000000000000000000000000000000000000000000000007bffffffffffffffffffffffffffffffffffffffffffffffffffffffff1916827bffffffffffffffffffffffffffffffffffffffffffffffffffffffff1916149050919050565b60008073ffffffffffffffffffffffffffffffffffffffff16612f85836126ea565b73ffffffffffffffffffffffffffffffffffffffff1614159050919050565b50505050565b50505050565b6000612fd18473ffffffffffffffffffffffffffffffffffffffff1661326b565b1561313a578373ffffffffffffffffffffffffffffffffffffffff1663150b7a02612ffa61228c565b8786866040518563ffffffff1660e01b815260040161301c9493929190614084565b602060405180830381600087803b15801561303657600080fd5b505af192505050801561306757506040513d601f19601f8201168201806040525081019061306491906138dc565b60015b6130ea573d8060008114613097576040519150601f19603f3d011682016040523d82523d6000602084013e61309c565b606091505b506000815114156130e2576040517f08c379a00000000000000000000000000000000000000000000000000000000081526004016130d99061416f565b60405180910390fd5b805181602001fd5b63150b7a0260e01b7bffffffffffffffffffffffffffffffffffffffffffffffffffffffff1916817bffffffffffffffffffffffffffffffffffffffffffffffffffffffff19161491505061313f565b600190505b949350505050565b6060600060016131568461328e565b01905060008167ffffffffffffffff81111561319b577f4e487b7100000000000000000000000000000000000000000000000000000000600052604160045260246000fd5b6040519080825280601f01601f1916602001820160405280156131cd5781602001600182028036833780820191505090505b509050600082602001820190505b600115613260578080600190039150507f3031323334353637383961626364656600000000000000000000000000000000600a86061a8153600a858161324a577f4e487b7100000000000000000000000000000000000000000000000000000000600052601260045260246000fd5b049450600085141561325b57613260565b6131db565b819350505050919050565b6000808273ffffffffffffffffffffffffffffffffffffffff163b119050919050565b600080600090507a184f03e93ff9f4daa797ed6e38ed64bf6a1f0100000000000000008310613312577a184f03e93ff9f4daa797ed6e38ed64bf6a1f0100000000000000008381613308577f4e487b7100000000000000000000000000000000000000000000000000000000600052601260045260246000fd5b0492506040810190505b6d04ee2d6d415b85acef81000000008310613375576d04ee2d6d415b85acef8100000000838161336b577f4e487b7100000000000000000000000000000000000000000000000000000000600052601260045260246000fd5b0492506020810190505b662386f26fc1000083106133ca57662386f26fc1000083816133c0577f4e487b7100000000000000000000000000000000000000000000000000000000600052601260045260246000fd5b0492506010810190505b6305f5e1008310613419576305f5e100838161340f577f4e487b7100000000000000000000000000000000000000000000000000000000600052601260045260246000fd5b0492506008810190505b612710831061346457612710838161345a577f4e487b7100000000000000000000000000000000000000000000000000000000600052601260045260246000fd5b0492506004810190505b606483106134ad57606483816134a3577f4e487b7100000000000000000000000000000000000000000000000000000000600052601260045260246000fd5b0492506002810190505b600a83106134bc576001810190505b80915050919050565b6040518060e0016040528060008152602001600073ffffffffffffffffffffffffffffffffffffffff168152602001600073ffffffffffffffffffffffffffffffffffffffff1681526020016000815260200160001515815260200160608152602001606081525090565b82805461353c90614652565b90600052602060002090601f01602090048101928261355e57600085556135a5565b82601f1061357757805160ff19168380011785556135a5565b828001600101855582156135a5579182015b828111156135a4578251825591602001919060010190613589565b5b5090506135b291906135b6565b5090565b5b808211156135cf5760008160009055506001016135b7565b5090565b60006135e66135e184614411565b6143ec565b9050828152602081018484840111156135fe57600080fd5b613609848285614610565b509392505050565b600061362461361f84614442565b6143ec565b90508281526020810184848401111561363c57600080fd5b613647848285614610565b509392505050565b60008135905061365e81614cbe565b92915050565b60008135905061367381614cd5565b92915050565b60008135905061368881614cec565b92915050565b60008151905061369d81614cec565b92915050565b600082601f8301126136b457600080fd5b81356136c48482602086016135d3565b91505092915050565b600082601f8301126136de57600080fd5b81356136ee848260208601613611565b91505092915050565b60008135905061370681614d03565b92915050565b60006020828403121561371e57600080fd5b600061372c8482850161364f565b91505092915050565b6000806040838503121561374857600080fd5b60006137568582860161364f565b92505060206137678582860161364f565b9150509250929050565b60008060006060848603121561378657600080fd5b60006137948682870161364f565b93505060206137a58682870161364f565b92505060406137b6868287016136f7565b9150509250925092565b600080600080608085870312156137d657600080fd5b60006137e48782880161364f565b94505060206137f58782880161364f565b9350506040613806878288016136f7565b925050606085013567ffffffffffffffff81111561382357600080fd5b61382f878288016136a3565b91505092959194509250565b6000806040838503121561384e57600080fd5b600061385c8582860161364f565b925050602061386d85828601613664565b9150509250929050565b6000806040838503121561388a57600080fd5b60006138988582860161364f565b92505060206138a9858286016136f7565b9150509250929050565b6000602082840312156138c557600080fd5b60006138d384828501613679565b91505092915050565b6000602082840312156138ee57600080fd5b60006138fc8482850161368e565b91505092915050565b6000806000806080858703121561391b57600080fd5b600085013567ffffffffffffffff81111561393557600080fd5b613941878288016136cd565b9450506020613952878288016136f7565b935050604085013567ffffffffffffffff81111561396f57600080fd5b61397b878288016136cd565b925050606085013567ffffffffffffffff81111561399857600080fd5b6139a4878288016136cd565b91505092959194509250565b6000602082840312156139c257600080fd5b60006139d0848285016136f7565b91505092915050565b600080604083850312156139ec57600080fd5b60006139fa858286016136f7565b9250506020613a0b858286016136f7565b9150509250929050565b6000613a218383613e72565b905092915050565b613a328161459c565b82525050565b613a418161458a565b82525050565b6000613a5282614483565b613a5c81856144b1565b935083602082028501613a6e85614473565b8060005b85811015613aaa5784840389528151613a8b8582613a15565b9450613a96836144a4565b925060208a01995050600181019050613a72565b50829750879550505050505092915050565b613ac5816145ae565b82525050565b613ad4816145ae565b82525050565b6000613ae58261448e565b613aef81856144c2565b9350613aff81856020860161461f565b613b088161478b565b840191505092915050565b6000613b1e82614499565b613b2881856144d3565b9350613b3881856020860161461f565b613b418161478b565b840191505092915050565b6000613b5782614499565b613b6181856144e4565b9350613b7181856020860161461f565b613b7a8161478b565b840191505092915050565b6000613b9082614499565b613b9a81856144f5565b9350613baa81856020860161461f565b80840191505092915050565b6000613bc3602d836144e4565b9150613bce8261479c565b604082019050919050565b6000613be6601b836144e4565b9150613bf1826147eb565b602082019050919050565b6000613c096032836144e4565b9150613c1482614814565b604082019050919050565b6000613c2c6025836144e4565b9150613c3782614863565b604082019050919050565b6000613c4f601c836144e4565b9150613c5a826148b2565b602082019050919050565b6000613c726024836144e4565b9150613c7d826148db565b604082019050919050565b6000613c956019836144e4565b9150613ca08261492a565b602082019050919050565b6000613cb86017836144e4565b9150613cc382614953565b602082019050919050565b6000613cdb6029836144e4565b9150613ce68261497c565b604082019050919050565b6000613cfe602e836144e4565b9150613d09826149cb565b604082019050919050565b6000613d216040836144e4565b9150613d2c82614a1a565b604082019050919050565b6000613d446020836144e4565b9150613d4f82614a69565b602082019050919050565b6000613d67602a836144e4565b9150613d7282614a92565b604082019050919050565b6000613d8a603a836144e4565b9150613d9582614ae1565b604082019050919050565b6000613dad6018836144e4565b9150613db882614b30565b602082019050919050565b6000613dd06021836144e4565b9150613ddb82614b59565b604082019050919050565b6000613df36024836144e4565b9150613dfe82614ba8565b604082019050919050565b6000613e16603d836144e4565b9150613e2182614bf7565b604082019050919050565b6000613e396030836144e4565b9150613e4482614c46565b604082019050919050565b6000613e5c601c836144e4565b9150613e6782614c95565b602082019050919050565b600060e083016000830151613e8a6000860182613fb8565b506020830151613e9d6020860182613a29565b506040830151613eb06040860182613a29565b506060830151613ec36060860182613fb8565b506080830151613ed66080860182613abc565b5060a083015184820360a0860152613eee8282613b13565b91505060c083015184820360c0860152613f088282613b13565b9150508091505092915050565b600060e083016000830151613f2d6000860182613fb8565b506020830151613f406020860182613a29565b506040830151613f536040860182613a29565b506060830151613f666060860182613fb8565b506080830151613f796080860182613abc565b5060a083015184820360a0860152613f918282613b13565b91505060c083015184820360c0860152613fab8282613b13565b9150508091505092915050565b613fc181614606565b82525050565b613fd081614606565b82525050565b6000613fe28285613b85565b9150613fee8284613b85565b91508190509392505050565b600060208201905061400f6000830184613a38565b92915050565b600060c08201905061402a6000830189613a38565b6140376020830188613a38565b6140446040830187613fc7565b6140516060830186613acb565b81810360808301526140638185613b4c565b905081810360a08301526140778184613b4c565b9050979650505050505050565b60006080820190506140996000830187613a38565b6140a66020830186613a38565b6140b36040830185613fc7565b81810360608301526140c58184613ada565b905095945050505050565b600060208201905081810360008301526140ea8184613a47565b905092915050565b60006020820190506141076000830184613acb565b92915050565b600060208201905081810360008301526141278184613b4c565b905092915050565b6000602082019050818103600083015261414881613bb6565b9050919050565b6000602082019050818103600083015261416881613bd9565b9050919050565b6000602082019050818103600083015261418881613bfc565b9050919050565b600060208201905081810360008301526141a881613c1f565b9050919050565b600060208201905081810360008301526141c881613c42565b9050919050565b600060208201905081810360008301526141e881613c65565b9050919050565b6000602082019050818103600083015261420881613c88565b9050919050565b6000602082019050818103600083015261422881613cab565b9050919050565b6000602082019050818103600083015261424881613cce565b9050919050565b6000602082019050818103600083015261426881613cf1565b9050919050565b6000602082019050818103600083015261428881613d14565b9050919050565b600060208201905081810360008301526142a881613d37565b9050919050565b600060208201905081810360008301526142c881613d5a565b9050919050565b600060208201905081810360008301526142e881613d7d565b9050919050565b6000602082019050818103600083015261430881613da0565b9050919050565b6000602082019050818103600083015261432881613dc3565b9050919050565b6000602082019050818103600083015261434881613de6565b9050919050565b6000602082019050818103600083015261436881613e09565b9050919050565b6000602082019050818103600083015261438881613e2c565b9050919050565b600060208201905081810360008301526143a881613e4f565b9050919050565b600060208201905081810360008301526143c98184613f15565b905092915050565b60006020820190506143e66000830184613fc7565b92915050565b60006143f6614407565b90506144028282614684565b919050565b6000604051905090565b600067ffffffffffffffff82111561442c5761442b61475c565b5b6144358261478b565b9050602081019050919050565b600067ffffffffffffffff82111561445d5761445c61475c565b5b6144668261478b565b9050602081019050919050565b6000819050602082019050919050565b600081519050919050565b600081519050919050565b600081519050919050565b6000602082019050919050565b600082825260208201905092915050565b600082825260208201905092915050565b600082825260208201905092915050565b600082825260208201905092915050565b600081905092915050565b600061450b82614606565b915061451683614606565b9250827fffffffffffffffffffffffffffffffffffffffffffffffffffffffffffffffff0382111561454b5761454a6146fe565b5b828201905092915050565b600061456182614606565b915061456c83614606565b92508282101561457f5761457e6146fe565b5b828203905092915050565b6000614595826145e6565b9050919050565b60006145a7826145e6565b9050919050565b60008115159050919050565b60007fffffffff0000000000000000000000000000000000000000000000000000000082169050919050565b600073ffffffffffffffffffffffffffffffffffffffff82169050919050565b6000819050919050565b82818337600083830152505050565b60005b8381101561463d578082015181840152602081019050614622565b8381111561464c576000848401525b50505050565b6000600282049050600182168061466a57607f821691505b6020821081141561467e5761467d61472d565b5b50919050565b61468d8261478b565b810181811067ffffffffffffffff821117156146ac576146ab61475c565b5b80604052505050565b60006146c082614606565b91507fffffffffffffffffffffffffffffffffffffffffffffffffffffffffffffffff8214156146f3576146f26146fe565b5b600182019050919050565b7f4e487b7100000000000000000000000000000000000000000000000000000000600052601160045260246000fd5b7f4e487b7100000000000000000000000000000000000000000000000000000000600052602260045260246000fd5b7f4e487b7100000000000000000000000000000000000000000000000000000000600052604160045260246000fd5b6000601f19601f8301169050919050565b7f4552433732313a2063616c6c6572206973206e6f7420746f6b656e206f776e6560008201527f72206f7220617070726f76656400000000000000000000000000000000000000602082015250565b7f436f756e7465723a2064656372656d656e74206f766572666c6f770000000000600082015250565b7f4552433732313a207472616e7366657220746f206e6f6e20455243373231526560008201527f63656976657220696d706c656d656e7465720000000000000000000000000000602082015250565b7f4552433732313a207472616e736665722066726f6d20696e636f72726563742060008201527f6f776e6572000000000000000000000000000000000000000000000000000000602082015250565b7f4552433732313a20746f6b656e20616c7265616479206d696e74656400000000600082015250565b7f4552433732313a207472616e7366657220746f20746865207a65726f2061646460008201527f7265737300000000000000000000000000000000000000000000000000000000602082015250565b7f4552433732313a20617070726f766520746f2063616c6c657200000000000000600082015250565b7f546f6b656e20494420646f6573206e6f74206578697374000000000000000000600082015250565b7f4552433732313a2061646472657373207a65726f206973206e6f74206120766160008201527f6c6964206f776e65720000000000000000000000000000000000000000000000602082015250565b7f45524337323155524953746f726167653a2055524920736574206f66206e6f6e60008201527f6578697374656e7420746f6b656e000000000000000000000000000000000000602082015250565b7f506c65617365207375626d6974207468652061736b696e67207072696365206960008201527f6e206f7264657220746f20636f6d706c65746520746865207075726368617365602082015250565b7f4552433732313a206d696e7420746f20746865207a65726f2061646472657373600082015250565b7f4f6e6c79206974656d206f776e65722063616e20706572666f726d207468697360008201527f206f7065726174696f6e00000000000000000000000000000000000000000000602082015250565b7f6f6e6c79206f776e6572206f6620746865206d61726b6574706c61636520636160008201527f6e206368616e676520746865206c697374696e67207072696365000000000000602082015250565b7f4552433732313a20696e76616c696420746f6b656e2049440000000000000000600082015250565b7f4552433732313a20617070726f76616c20746f2063757272656e74206f776e6560008201527f7200000000000000000000000000000000000000000000000000000000000000602082015250565b7f5072696365206d75737420626520657175616c20746f206c697374696e67207060008201527f7269636500000000000000000000000000000000000000000000000000000000602082015250565b7f4552433732313a20617070726f76652063616c6c6572206973206e6f7420746f60008201527f6b656e206f776e6572206f7220617070726f76656420666f7220616c6c000000602082015250565b7f4f6e6c79206d61726b6574706c616365206f776e65722063616e20757064617460008201527f65206c697374696e672070726963652e00000000000000000000000000000000602082015250565b7f5072696365206d757374206265206174206c6561737420312077656900000000600082015250565b614cc78161458a565b8114614cd257600080fd5b50565b614cde816145ae565b8114614ce957600080fd5b50565b614cf5816145ba565b8114614d0057600080fd5b50565b614d0c81614606565b8114614d1757600080fd5b5056fea2646970667358221220a6d6a480829441c4ba5f5e38accd32376844dace7e76190e43b28eb73df2507464736f6c63430008040033",
  "immutableReferences": {},
  "source": "// SPDX-License-Identifier: MIT\r\npragma solidity ^0.8.4;\r\n\r\nimport \"@openzeppelin/contracts/utils/Counters.sol\";\r\nimport \"@openzeppelin/contracts/token/ERC721/extensions/ERC721URIStorage.sol\";\r\nimport \"@openzeppelin/contracts/token/ERC721/ERC721.sol\";\r\n\r\ncontract NFTMarketplace is ERC721URIStorage {\r\n    using Counters for Counters.Counter;\r\n    Counters.Counter private _tokenIds;\r\n    Counters.Counter private _itemsSold;\r\n\r\n    uint256 listingPrice = 0.025 ether;\r\n    address payable owner;\r\n\r\n    mapping(uint256 => MarketItem) private idToMarketItem;\r\n\r\n    struct MarketItem {\r\n        uint256 tokenId;\r\n        address payable seller;\r\n        address payable owner;\r\n        uint256 price;\r\n        bool sold;\r\n        string name;\r\n        string description;\r\n    }\r\n\r\n    event MarketItemCreated(\r\n        uint256 indexed tokenId,\r\n        address seller,\r\n        address owner,\r\n        uint256 price,\r\n        bool sold,\r\n        string name,\r\n        string description\r\n    );\r\n\r\n    modifier onlyOwner() {\r\n        require(\r\n            msg.sender == owner,\r\n            \"only owner of the marketplace can change the listing price\"\r\n        );\r\n        _;\r\n    }\r\n\r\n    constructor() ERC721(\"NFTMarketplace\", \"METT\") {\r\n        owner = payable(msg.sender);\r\n    }\r\n\r\n    /* Updates the listing price of the contract */\r\n    function updateListingPrice(\r\n        uint256 _listingPrice\r\n    ) public payable onlyOwner {\r\n        require(\r\n            owner == msg.sender,\r\n            \"Only marketplace owner can update listing price.\"\r\n        );\r\n        listingPrice = _listingPrice;\r\n    }\r\n\r\n    /* Returns the listing price of the contract */\r\n    function getListingPrice() public view returns (uint256) {\r\n        return listingPrice;\r\n    }\r\n\r\n    /* Mints a token and lists it in the marketplace */\r\n    function createToken(\r\n        string memory tokenURI,\r\n        uint256 price,\r\n        string memory name,\r\n        string memory description\r\n    ) public payable returns (uint256) {\r\n        _tokenIds.increment();\r\n        uint256 newTokenId = _tokenIds.current();\r\n\r\n        _mint(msg.sender, newTokenId);\r\n        _setTokenURI(newTokenId, tokenURI);\r\n        createMarketItem(newTokenId, price, name, description);\r\n        return newTokenId;\r\n    }\r\n\r\n    function createMarketItem(\r\n        uint256 tokenId,\r\n        uint256 price,\r\n        string memory name,\r\n        string memory description\r\n    ) private {\r\n        require(price > 0, \"Price must be at least 1 wei\");\r\n        require(\r\n            msg.value == listingPrice,\r\n            \"Price must be equal to listing price\"\r\n        );\r\n\r\n        idToMarketItem[tokenId] = MarketItem(\r\n            tokenId,\r\n            payable(msg.sender),\r\n            payable(address(this)),\r\n            price,\r\n            false,\r\n            name,\r\n            description\r\n        );\r\n\r\n        _transfer(msg.sender, address(this), tokenId);\r\n        emit MarketItemCreated(\r\n            tokenId,\r\n            msg.sender,\r\n            address(this),\r\n            price,\r\n            false,\r\n            name,\r\n            description\r\n        );\r\n    }\r\n\r\n    /* allows someone to resell a token they have purchased */\r\n    function resellToken(uint256 tokenId, uint256 price) public payable {\r\n        require(\r\n            idToMarketItem[tokenId].owner == msg.sender,\r\n            \"Only item owner can perform this operation\"\r\n        );\r\n        require(\r\n            msg.value == listingPrice,\r\n            \"Price must be equal to listing price\"\r\n        );\r\n        idToMarketItem[tokenId].sold = false;\r\n        idToMarketItem[tokenId].price = price;\r\n        idToMarketItem[tokenId].seller = payable(msg.sender);\r\n        idToMarketItem[tokenId].owner = payable(address(this));\r\n        _itemsSold.decrement();\r\n\r\n        _transfer(msg.sender, address(this), tokenId);\r\n    }\r\n\r\n    /* Creates the sale of a marketplace item */\r\n    /* Transfers ownership of the item, as well as funds between parties */\r\n    function createMarketSale(uint256 tokenId) public payable {\r\n        uint256 price = idToMarketItem[tokenId].price;\r\n        require(\r\n            msg.value == price,\r\n            \"Please submit the asking price in order to complete the purchase\"\r\n        );\r\n        idToMarketItem[tokenId].owner = payable(msg.sender);\r\n        idToMarketItem[tokenId].sold = true;\r\n        idToMarketItem[tokenId].seller = payable(address(0));\r\n        _itemsSold.increment();\r\n        _transfer(address(this), msg.sender, tokenId);\r\n        payable(owner).transfer(listingPrice);\r\n        payable(idToMarketItem[tokenId].seller).transfer(msg.value);\r\n    }\r\n\r\n    /* Returns all unsold market items */\r\n    function fetchMarketItems() public view returns (MarketItem[] memory) {\r\n        uint256 itemCount = _tokenIds.current();\r\n        uint256 unsoldItemCount = _tokenIds.current() - _itemsSold.current();\r\n        uint256 currentIndex = 0;\r\n\r\n        MarketItem[] memory items = new MarketItem[](unsoldItemCount);\r\n        for (uint256 i = 0; i < itemCount; i++) {\r\n            if (idToMarketItem[i + 1].owner == address(this)) {\r\n                uint256 currentId = i + 1;\r\n                MarketItem storage currentItem = idToMarketItem[currentId];\r\n                items[currentIndex] = currentItem;\r\n                currentIndex += 1;\r\n            }\r\n        }\r\n        return items;\r\n    }\r\n\r\n    /* Returns only items that a user has purchased */\r\n    function fetchMyNFTs() public view returns (MarketItem[] memory) {\r\n        uint256 totalItemCount = _tokenIds.current();\r\n        uint256 itemCount = 0;\r\n        uint256 currentIndex = 0;\r\n\r\n        for (uint256 i = 0; i < totalItemCount; i++) {\r\n            if (idToMarketItem[i + 1].owner == msg.sender) {\r\n                itemCount += 1;\r\n            }\r\n        }\r\n\r\n        MarketItem[] memory items = new MarketItem[](itemCount);\r\n        for (uint256 i = 0; i < totalItemCount; i++) {\r\n            if (idToMarketItem[i + 1].owner == msg.sender) {\r\n                uint256 currentId = i + 1;\r\n                MarketItem storage currentItem = idToMarketItem[currentId];\r\n                items[currentIndex] = currentItem;\r\n                currentIndex += 1;\r\n            }\r\n        }\r\n        return items;\r\n    }\r\n\r\n    // Function to check if a token ID exists\r\n    function tokenExists(uint256 tokenId) public view returns (bool) {\r\n        return idToMarketItem[tokenId].owner != address(0);\r\n    }\r\n\r\n    // Function to fetch an item by ID\r\n    function fetchItemWithId(\r\n        uint256 tokenId\r\n    ) public view returns (MarketItem memory) {\r\n        require(tokenExists(tokenId), \"Token ID does not exist\");\r\n\r\n        return idToMarketItem[tokenId];\r\n    }\r\n\r\n    /* Returns only items a user has listed */\r\n    function fetchItemsListed() public view returns (MarketItem[] memory) {\r\n        uint256 totalItemCount = _tokenIds.current();\r\n        uint256 itemCount = 0;\r\n        uint256 currentIndex = 0;\r\n\r\n        for (uint256 i = 0; i < totalItemCount; i++) {\r\n            if (idToMarketItem[i + 1].seller == msg.sender) {\r\n                itemCount += 1;\r\n            }\r\n        }\r\n\r\n        MarketItem[] memory items = new MarketItem[](itemCount);\r\n        for (uint256 i = 0; i < totalItemCount; i++) {\r\n            if (idToMarketItem[i + 1].seller == msg.sender) {\r\n                uint256 currentId = i + 1;\r\n                MarketItem storage currentItem = idToMarketItem[currentId];\r\n                items[currentIndex] = currentItem;\r\n                currentIndex += 1;\r\n            }\r\n        }\r\n        return items;\r\n    }\r\n}\r\n",
  "sourcePath": "C:\\Users\\soham\\OneDrive\\Desktop\\Endgame\\nft-marketplace__frontend\\contracts\\NFTMarketplace.sol",
  "compiler": {
    "name": "solc",
    "version": "0.8.4+commit.c7e474f2.Emscripten.clang"
  },
  "schemaVersion": "3.4.13",
  "updatedAt": "2023-05-29T08:54:54.558Z",
  "networkType": "ethereum",
  "devdoc": {
    "kind": "dev",
    "methods": {
      "approve(address,uint256)": {
        "details": "See {IERC721-approve}."
      },
      "balanceOf(address)": {
        "details": "See {IERC721-balanceOf}."
      },
      "getApproved(uint256)": {
        "details": "See {IERC721-getApproved}."
      },
      "isApprovedForAll(address,address)": {
        "details": "See {IERC721-isApprovedForAll}."
      },
      "name()": {
        "details": "See {IERC721Metadata-name}."
      },
      "ownerOf(uint256)": {
        "details": "See {IERC721-ownerOf}."
      },
      "safeTransferFrom(address,address,uint256)": {
        "details": "See {IERC721-safeTransferFrom}."
      },
      "safeTransferFrom(address,address,uint256,bytes)": {
        "details": "See {IERC721-safeTransferFrom}."
      },
      "setApprovalForAll(address,bool)": {
        "details": "See {IERC721-setApprovalForAll}."
      },
      "supportsInterface(bytes4)": {
        "details": "See {IERC165-supportsInterface}"
      },
      "symbol()": {
        "details": "See {IERC721Metadata-symbol}."
      },
      "tokenURI(uint256)": {
        "details": "See {IERC721Metadata-tokenURI}."
      },
      "transferFrom(address,address,uint256)": {
        "details": "See {IERC721-transferFrom}."
      }
    },
    "version": 1
  },
  "userdoc": {
    "kind": "user",
    "methods": {},
    "version": 1
  }
}