{
  "contractName": "NFTMarketplace",
  "abi": [
    {
      "inputs": [],
      "stateMutability": "nonpayable",
      "type": "constructor"
    },
    {
      "anonymous": false,
      "inputs": [
        {
          "indexed": true,
          "internalType": "address",
          "name": "owner",
          "type": "address"
        },
        {
          "indexed": true,
          "internalType": "address",
          "name": "approved",
          "type": "address"
        },
        {
          "indexed": true,
          "internalType": "uint256",
          "name": "tokenId",
          "type": "uint256"
        }
      ],
      "name": "Approval",
      "type": "event"
    },
    {
      "anonymous": false,
      "inputs": [
        {
          "indexed": true,
          "internalType": "address",
          "name": "owner",
          "type": "address"
        },
        {
          "indexed": true,
          "internalType": "address",
          "name": "operator",
          "type": "address"
        },
        {
          "indexed": false,
          "internalType": "bool",
          "name": "approved",
          "type": "bool"
        }
      ],
      "name": "ApprovalForAll",
      "type": "event"
    },
    {
      "anonymous": false,
      "inputs": [
        {
          "indexed": true,
          "internalType": "uint256",
          "name": "tokenId",
          "type": "uint256"
        },
        {
          "indexed": false,
          "internalType": "address",
          "name": "seller",
          "type": "address"
        },
        {
          "indexed": false,
          "internalType": "address",
          "name": "owner",
          "type": "address"
        },
        {
          "indexed": false,
          "internalType": "uint256",
          "name": "price",
          "type": "uint256"
        },
        {
          "indexed": false,
          "internalType": "bool",
          "name": "sold",
          "type": "bool"
        },
        {
          "indexed": false,
          "internalType": "string",
          "name": "name",
          "type": "string"
        },
        {
          "indexed": false,
          "internalType": "string",
          "name": "description",
          "type": "string"
        }
      ],
      "name": "MarketItemCreated",
      "type": "event"
    },
    {
      "anonymous": false,
      "inputs": [
        {
          "indexed": true,
          "internalType": "address",
          "name": "from",
          "type": "address"
        },
        {
          "indexed": true,
          "internalType": "address",
          "name": "to",
          "type": "address"
        },
        {
          "indexed": true,
          "internalType": "uint256",
          "name": "tokenId",
          "type": "uint256"
        }
      ],
      "name": "Transfer",
      "type": "event"
    },
    {
      "inputs": [
        {
          "internalType": "address",
          "name": "to",
          "type": "address"
        },
        {
          "internalType": "uint256",
          "name": "tokenId",
          "type": "uint256"
        }
      ],
      "name": "approve",
      "outputs": [],
      "stateMutability": "nonpayable",
      "type": "function"
    },
    {
      "inputs": [
        {
          "internalType": "address",
          "name": "owner",
          "type": "address"
        }
      ],
      "name": "balanceOf",
      "outputs": [
        {
          "internalType": "uint256",
          "name": "",
          "type": "uint256"
        }
      ],
      "stateMutability": "view",
      "type": "function",
      "constant": true
    },
    {
      "inputs": [
        {
          "internalType": "uint256",
          "name": "tokenId",
          "type": "uint256"
        }
      ],
      "name": "getApproved",
      "outputs": [
        {
          "internalType": "address",
          "name": "",
          "type": "address"
        }
      ],
      "stateMutability": "view",
      "type": "function",
      "constant": true
    },
    {
      "inputs": [
        {
          "internalType": "address",
          "name": "owner",
          "type": "address"
        },
        {
          "internalType": "address",
          "name": "operator",
          "type": "address"
        }
      ],
      "name": "isApprovedForAll",
      "outputs": [
        {
          "internalType": "bool",
          "name": "",
          "type": "bool"
        }
      ],
      "stateMutability": "view",
      "type": "function",
      "constant": true
    },
    {
      "inputs": [],
      "name": "name",
      "outputs": [
        {
          "internalType": "string",
          "name": "",
          "type": "string"
        }
      ],
      "stateMutability": "view",
      "type": "function",
      "constant": true
    },
    {
      "inputs": [
        {
          "internalType": "uint256",
          "name": "tokenId",
          "type": "uint256"
        }
      ],
      "name": "ownerOf",
      "outputs": [
        {
          "internalType": "address",
          "name": "",
          "type": "address"
        }
      ],
      "stateMutability": "view",
      "type": "function",
      "constant": true
    },
    {
      "inputs": [
        {
          "internalType": "address",
          "name": "from",
          "type": "address"
        },
        {
          "internalType": "address",
          "name": "to",
          "type": "address"
        },
        {
          "internalType": "uint256",
          "name": "tokenId",
          "type": "uint256"
        }
      ],
      "name": "safeTransferFrom",
      "outputs": [],
      "stateMutability": "nonpayable",
      "type": "function"
    },
    {
      "inputs": [
        {
          "internalType": "address",
          "name": "from",
          "type": "address"
        },
        {
          "internalType": "address",
          "name": "to",
          "type": "address"
        },
        {
          "internalType": "uint256",
          "name": "tokenId",
          "type": "uint256"
        },
        {
          "internalType": "bytes",
          "name": "data",
          "type": "bytes"
        }
      ],
      "name": "safeTransferFrom",
      "outputs": [],
      "stateMutability": "nonpayable",
      "type": "function"
    },
    {
      "inputs": [
        {
          "internalType": "address",
          "name": "operator",
          "type": "address"
        },
        {
          "internalType": "bool",
          "name": "approved",
          "type": "bool"
        }
      ],
      "name": "setApprovalForAll",
      "outputs": [],
      "stateMutability": "nonpayable",
      "type": "function"
    },
    {
      "inputs": [
        {
          "internalType": "bytes4",
          "name": "interfaceId",
          "type": "bytes4"
        }
      ],
      "name": "supportsInterface",
      "outputs": [
        {
          "internalType": "bool",
          "name": "",
          "type": "bool"
        }
      ],
      "stateMutability": "view",
      "type": "function",
      "constant": true
    },
    {
      "inputs": [],
      "name": "symbol",
      "outputs": [
        {
          "internalType": "string",
          "name": "",
          "type": "string"
        }
      ],
      "stateMutability": "view",
      "type": "function",
      "constant": true
    },
    {
      "inputs": [
        {
          "internalType": "uint256",
          "name": "tokenId",
          "type": "uint256"
        }
      ],
      "name": "tokenURI",
      "outputs": [
        {
          "internalType": "string",
          "name": "",
          "type": "string"
        }
      ],
      "stateMutability": "view",
      "type": "function",
      "constant": true
    },
    {
      "inputs": [
        {
          "internalType": "address",
          "name": "from",
          "type": "address"
        },
        {
          "internalType": "address",
          "name": "to",
          "type": "address"
        },
        {
          "internalType": "uint256",
          "name": "tokenId",
          "type": "uint256"
        }
      ],
      "name": "transferFrom",
      "outputs": [],
      "stateMutability": "nonpayable",
      "type": "function"
    },
    {
      "inputs": [
        {
          "internalType": "uint256",
          "name": "_listingPrice",
          "type": "uint256"
        }
      ],
      "name": "updateListingPrice",
      "outputs": [],
      "stateMutability": "payable",
      "type": "function",
      "payable": true
    },
    {
      "inputs": [],
      "name": "getListingPrice",
      "outputs": [
        {
          "internalType": "uint256",
          "name": "",
          "type": "uint256"
        }
      ],
      "stateMutability": "view",
      "type": "function",
      "constant": true
    },
    {
      "inputs": [
        {
          "internalType": "string",
          "name": "tokenURI",
          "type": "string"
        },
        {
          "internalType": "uint256",
          "name": "price",
          "type": "uint256"
        },
        {
          "internalType": "string",
          "name": "name",
          "type": "string"
        },
        {
          "internalType": "string",
          "name": "description",
          "type": "string"
        }
      ],
      "name": "createToken",
      "outputs": [
        {
          "internalType": "uint256",
          "name": "",
          "type": "uint256"
        }
      ],
      "stateMutability": "payable",
      "type": "function",
      "payable": true
    },
    {
      "inputs": [
        {
          "internalType": "uint256",
          "name": "tokenId",
          "type": "uint256"
        },
        {
          "internalType": "uint256",
          "name": "price",
          "type": "uint256"
        }
      ],
      "name": "resellToken",
      "outputs": [],
      "stateMutability": "payable",
      "type": "function",
      "payable": true
    },
    {
      "inputs": [
        {
          "internalType": "uint256",
          "name": "tokenId",
          "type": "uint256"
        }
      ],
      "name": "createMarketSale",
      "outputs": [],
      "stateMutability": "payable",
      "type": "function",
      "payable": true
    },
    {
      "inputs": [],
      "name": "fetchMarketItems",
      "outputs": [
        {
          "components": [
            {
              "internalType": "uint256",
              "name": "tokenId",
              "type": "uint256"
            },
            {
              "internalType": "address payable",
              "name": "seller",
              "type": "address"
            },
            {
              "internalType": "address payable",
              "name": "owner",
              "type": "address"
            },
            {
              "internalType": "uint256",
              "name": "price",
              "type": "uint256"
            },
            {
              "internalType": "bool",
              "name": "sold",
              "type": "bool"
            },
            {
              "internalType": "string",
              "name": "name",
              "type": "string"
            },
            {
              "internalType": "string",
              "name": "description",
              "type": "string"
            }
          ],
          "internalType": "struct NFTMarketplace.MarketItem[]",
          "name": "",
          "type": "tuple[]"
        }
      ],
      "stateMutability": "view",
      "type": "function",
      "constant": true
    },
    {
      "inputs": [],
      "name": "fetchMyNFTs",
      "outputs": [
        {
          "components": [
            {
              "internalType": "uint256",
              "name": "tokenId",
              "type": "uint256"
            },
            {
              "internalType": "address payable",
              "name": "seller",
              "type": "address"
            },
            {
              "internalType": "address payable",
              "name": "owner",
              "type": "address"
            },
            {
              "internalType": "uint256",
              "name": "price",
              "type": "uint256"
            },
            {
              "internalType": "bool",
              "name": "sold",
              "type": "bool"
            },
            {
              "internalType": "string",
              "name": "name",
              "type": "string"
            },
            {
              "internalType": "string",
              "name": "description",
              "type": "string"
            }
          ],
          "internalType": "struct NFTMarketplace.MarketItem[]",
          "name": "",
          "type": "tuple[]"
        }
      ],
      "stateMutability": "view",
      "type": "function",
      "constant": true
    },
    {
      "inputs": [
        {
          "internalType": "uint256",
          "name": "tokenId",
          "type": "uint256"
        }
      ],
      "name": "tokenExists",
      "outputs": [
        {
          "internalType": "bool",
          "name": "",
          "type": "bool"
        }
      ],
      "stateMutability": "view",
      "type": "function",
      "constant": true
    },
    {
      "inputs": [
        {
          "internalType": "uint256",
          "name": "tokenId",
          "type": "uint256"
        }
      ],
      "name": "fetchItemWithId",
      "outputs": [
        {
          "components": [
            {
              "internalType": "uint256",
              "name": "tokenId",
              "type": "uint256"
            },
            {
              "internalType": "address payable",
              "name": "seller",
              "type": "address"
            },
            {
              "internalType": "address payable",
              "name": "owner",
              "type": "address"
            },
            {
              "internalType": "uint256",
              "name": "price",
              "type": "uint256"
            },
            {
              "internalType": "bool",
              "name": "sold",
              "type": "bool"
            },
            {
              "internalType": "string",
              "name": "name",
              "type": "string"
            },
            {
              "internalType": "string",
              "name": "description",
              "type": "string"
            }
          ],
          "internalType": "struct NFTMarketplace.MarketItem",
          "name": "",
          "type": "tuple"
        }
      ],
      "stateMutability": "view",
      "type": "function",
      "constant": true
    },
    {
      "inputs": [],
      "name": "fetchItemsListed",
      "outputs": [
        {
          "components": [
            {
              "internalType": "uint256",
              "name": "tokenId",
              "type": "uint256"
            },
            {
              "internalType": "address payable",
              "name": "seller",
              "type": "address"
            },
            {
              "internalType": "address payable",
              "name": "owner",
              "type": "address"
            },
            {
              "internalType": "uint256",
              "name": "price",
              "type": "uint256"
            },
            {
              "internalType": "bool",
              "name": "sold",
              "type": "bool"
            },
            {
              "internalType": "string",
              "name": "name",
              "type": "string"
            },
            {
              "internalType": "string",
              "name": "description",
              "type": "string"
            }
          ],
          "internalType": "struct NFTMarketplace.MarketItem[]",
          "name": "",
          "type": "tuple[]"
        }
      ],
      "stateMutability": "view",
      "type": "function",
      "constant": true
    }
  ],
  "bytecode": "0x60806040526658d15e176280006009553480156200001c57600080fd5b506040518060400160405280600e81526020017f4e46544d61726b6574706c6163650000000000000000000000000000000000008152506040518060400160405280600481526020017f4d455454000000000000000000000000000000000000000000000000000000008152508160009080519060200190620000a192919062000104565b508060019080519060200190620000ba92919062000104565b50505033600a60006101000a81548173ffffffffffffffffffffffffffffffffffffffff021916908373ffffffffffffffffffffffffffffffffffffffff16021790555062000219565b8280546200011290620001b4565b90600052602060002090601f01602090048101928262000136576000855562000182565b82601f106200015157805160ff191683800117855562000182565b8280016001018555821562000182579182015b828111156200018157825182559160200191906001019062000164565b5b50905062000191919062000195565b5090565b5b80821115620001b057600081600090555060010162000196565b5090565b60006002820490506001821680620001cd57607f821691505b60208210811415620001e457620001e3620001ea565b5b50919050565b7f4e487b7100000000000000000000000000000000000000000000000000000000600052602260045260246000fd5b614cb880620002296000396000f3fe60806040526004361061013f5760003560e01c80636352211e116100b6578063be9af5361161006f578063be9af53614610460578063c0f3f7181461047c578063c87b56dd146104b9578063e219fc75146104f6578063e7c3a03e14610512578063e985e9c5146105425761013f565b80636352211e1461034d57806370a082311461038a57806395d89b41146103c7578063a22cb465146103f2578063ae677aa31461041b578063b88d4fde146104375761013f565b80630f08efe0116101085780630f08efe01461024f57806312e855851461027a578063202e3740146102a557806323b872dd146102d057806342842e0e146102f957806345f8fa80146103225761013f565b8062923f9e1461014457806301ffc9a71461018157806306fdde03146101be578063081812fc146101e9578063095ea7b314610226575b600080fd5b34801561015057600080fd5b5061016b60048036038101906101669190613918565b61057f565b604051610178919061405a565b60405180910390f35b34801561018d57600080fd5b506101a860048036038101906101a3919061381b565b6105ee565b6040516101b5919061405a565b60405180910390f35b3480156101ca57600080fd5b506101d36106d0565b6040516101e09190614075565b60405180910390f35b3480156101f557600080fd5b50610210600480360381019061020b9190613918565b610762565b60405161021d9190613f62565b60405180910390f35b34801561023257600080fd5b5061024d600480360381019061024891906137df565b6107a8565b005b34801561025b57600080fd5b506102646108c0565b6040516102719190614038565b60405180910390f35b34801561028657600080fd5b5061028f610c99565b60405161029c9190614339565b60405180910390f35b3480156102b157600080fd5b506102ba610ca3565b6040516102c79190614038565b60405180910390f35b3480156102dc57600080fd5b506102f760048036038101906102f291906136d9565b611101565b005b34801561030557600080fd5b50610320600480360381019061031b91906136d9565b611161565b005b34801561032e57600080fd5b50610337611181565b6040516103449190614038565b60405180910390f35b34801561035957600080fd5b50610374600480360381019061036f9190613918565b6115df565b6040516103819190613f62565b60405180910390f35b34801561039657600080fd5b506103b160048036038101906103ac9190613674565b611666565b6040516103be9190614339565b60405180910390f35b3480156103d357600080fd5b506103dc61171e565b6040516103e99190614075565b60405180910390f35b3480156103fe57600080fd5b50610419600480360381019061041491906137a3565b6117b0565b005b61043560048036038101906104309190613918565b6117c6565b005b34801561044357600080fd5b5061045e60048036038101906104599190613728565b6118f0565b005b61047a60048036038101906104759190613918565b611952565b005b34801561048857600080fd5b506104a3600480360381019061049e9190613918565b611b8a565b6040516104b09190614317565b60405180910390f35b3480156104c557600080fd5b506104e060048036038101906104db9190613918565b611dfe565b6040516104ed9190614075565b60405180910390f35b610510600480360381019061050b9190613941565b611f11565b005b61052c6004803603810190610527919061386d565b612106565b6040516105399190614339565b60405180910390f35b34801561054e57600080fd5b506105696004803603810190610564919061369d565b61214c565b604051610576919061405a565b60405180910390f35b60008073ffffffffffffffffffffffffffffffffffffffff16600b600084815260200190815260200160002060020160009054906101000a900473ffffffffffffffffffffffffffffffffffffffff1673ffffffffffffffffffffffffffffffffffffffff1614159050919050565b60007f80ac58cd000000000000000000000000000000000000000000000000000000007bffffffffffffffffffffffffffffffffffffffffffffffffffffffff1916827bffffffffffffffffffffffffffffffffffffffffffffffffffffffff191614806106b957507f5b5e139f000000000000000000000000000000000000000000000000000000007bffffffffffffffffffffffffffffffffffffffffffffffffffffffff1916827bffffffffffffffffffffffffffffffffffffffffffffffffffffffff1916145b806106c957506106c8826121e0565b5b9050919050565b6060600080546106df906145ba565b80601f016020809104026020016040519081016040528092919081815260200182805461070b906145ba565b80156107585780601f1061072d57610100808354040283529160200191610758565b820191906000526020600020905b81548152906001019060200180831161073b57829003601f168201915b5050505050905090565b600061076d8261224a565b6004600083815260200190815260200160002060009054906101000a900473ffffffffffffffffffffffffffffffffffffffff169050919050565b60006107b3826115df565b90508073ffffffffffffffffffffffffffffffffffffffff168373ffffffffffffffffffffffffffffffffffffffff161415610824576040517f08c379a000000000000000000000000000000000000000000000000000000000815260040161081b90614277565b60405180910390fd5b8073ffffffffffffffffffffffffffffffffffffffff16610843612295565b73ffffffffffffffffffffffffffffffffffffffff16148061087257506108718161086c612295565b61214c565b5b6108b1576040517f08c379a00000000000000000000000000000000000000000000000000000000081526004016108a8906142b7565b60405180910390fd5b6108bb838361229d565b505050565b606060006108ce6007612356565b905060006108dc6008612356565b6108e66007612356565b6108f091906144be565b90506000808267ffffffffffffffff811115610935577f4e487b7100000000000000000000000000000000000000000000000000000000600052604160045260246000fd5b60405190808252806020026020018201604052801561096e57816020015b61095b61342d565b8152602001906001900390816109535790505b50905060005b84811015610c8e573073ffffffffffffffffffffffffffffffffffffffff16600b60006001846109a49190614468565b815260200190815260200160002060020160009054906101000a900473ffffffffffffffffffffffffffffffffffffffff1673ffffffffffffffffffffffffffffffffffffffff161415610c7b576000600182610a019190614468565b90506000600b60008381526020019081526020016000209050806040518060e0016040529081600082015481526020016001820160009054906101000a900473ffffffffffffffffffffffffffffffffffffffff1673ffffffffffffffffffffffffffffffffffffffff1673ffffffffffffffffffffffffffffffffffffffff1681526020016002820160009054906101000a900473ffffffffffffffffffffffffffffffffffffffff1673ffffffffffffffffffffffffffffffffffffffff1673ffffffffffffffffffffffffffffffffffffffff168152602001600382015481526020016004820160009054906101000a900460ff16151515158152602001600582018054610b11906145ba565b80601f0160208091040260200160405190810160405280929190818152602001828054610b3d906145ba565b8015610b8a5780601f10610b5f57610100808354040283529160200191610b8a565b820191906000526020600020905b815481529060010190602001808311610b6d57829003601f168201915b50505050508152602001600682018054610ba3906145ba565b80601f0160208091040260200160405190810160405280929190818152602001828054610bcf906145ba565b8015610c1c5780601f10610bf157610100808354040283529160200191610c1c565b820191906000526020600020905b815481529060010190602001808311610bff57829003601f168201915b505050505081525050848681518110610c5e577f4e487b7100000000000000000000000000000000000000000000000000000000600052603260045260246000fd5b6020026020010181905250600185610c769190614468565b945050505b8080610c869061461d565b915050610974565b508094505050505090565b6000600954905090565b60606000610cb16007612356565b905060008060005b83811015610d5a573373ffffffffffffffffffffffffffffffffffffffff16600b6000600184610ce99190614468565b815260200190815260200160002060020160009054906101000a900473ffffffffffffffffffffffffffffffffffffffff1673ffffffffffffffffffffffffffffffffffffffff161415610d4757600183610d449190614468565b92505b8080610d529061461d565b915050610cb9565b5060008267ffffffffffffffff811115610d9d577f4e487b7100000000000000000000000000000000000000000000000000000000600052604160045260246000fd5b604051908082528060200260200182016040528015610dd657816020015b610dc361342d565b815260200190600190039081610dbb5790505b50905060005b848110156110f6573373ffffffffffffffffffffffffffffffffffffffff16600b6000600184610e0c9190614468565b815260200190815260200160002060020160009054906101000a900473ffffffffffffffffffffffffffffffffffffffff1673ffffffffffffffffffffffffffffffffffffffff1614156110e3576000600182610e699190614468565b90506000600b60008381526020019081526020016000209050806040518060e0016040529081600082015481526020016001820160009054906101000a900473ffffffffffffffffffffffffffffffffffffffff1673ffffffffffffffffffffffffffffffffffffffff1673ffffffffffffffffffffffffffffffffffffffff1681526020016002820160009054906101000a900473ffffffffffffffffffffffffffffffffffffffff1673ffffffffffffffffffffffffffffffffffffffff1673ffffffffffffffffffffffffffffffffffffffff168152602001600382015481526020016004820160009054906101000a900460ff16151515158152602001600582018054610f79906145ba565b80601f0160208091040260200160405190810160405280929190818152602001828054610fa5906145ba565b8015610ff25780601f10610fc757610100808354040283529160200191610ff2565b820191906000526020600020905b815481529060010190602001808311610fd557829003601f168201915b5050505050815260200160068201805461100b906145ba565b80601f0160208091040260200160405190810160405280929190818152602001828054611037906145ba565b80156110845780601f1061105957610100808354040283529160200191611084565b820191906000526020600020905b81548152906001019060200180831161106757829003601f168201915b5050505050815250508486815181106110c6577f4e487b7100000000000000000000000000000000000000000000000000000000600052603260045260246000fd5b60200260200101819052506001856110de9190614468565b945050505b80806110ee9061461d565b915050610ddc565b508094505050505090565b61111261110c612295565b82612364565b611151576040517f08c379a000000000000000000000000000000000000000000000000000000000815260040161114890614097565b60405180910390fd5b61115c8383836123f9565b505050565b61117c838383604051806020016040528060008152506118f0565b505050565b6060600061118f6007612356565b905060008060005b83811015611238573373ffffffffffffffffffffffffffffffffffffffff16600b60006001846111c79190614468565b815260200190815260200160002060010160009054906101000a900473ffffffffffffffffffffffffffffffffffffffff1673ffffffffffffffffffffffffffffffffffffffff161415611225576001836112229190614468565b92505b80806112309061461d565b915050611197565b5060008267ffffffffffffffff81111561127b577f4e487b7100000000000000000000000000000000000000000000000000000000600052604160045260246000fd5b6040519080825280602002602001820160405280156112b457816020015b6112a161342d565b8152602001906001900390816112995790505b50905060005b848110156115d4573373ffffffffffffffffffffffffffffffffffffffff16600b60006001846112ea9190614468565b815260200190815260200160002060010160009054906101000a900473ffffffffffffffffffffffffffffffffffffffff1673ffffffffffffffffffffffffffffffffffffffff1614156115c15760006001826113479190614468565b90506000600b60008381526020019081526020016000209050806040518060e0016040529081600082015481526020016001820160009054906101000a900473ffffffffffffffffffffffffffffffffffffffff1673ffffffffffffffffffffffffffffffffffffffff1673ffffffffffffffffffffffffffffffffffffffff1681526020016002820160009054906101000a900473ffffffffffffffffffffffffffffffffffffffff1673ffffffffffffffffffffffffffffffffffffffff1673ffffffffffffffffffffffffffffffffffffffff168152602001600382015481526020016004820160009054906101000a900460ff16151515158152602001600582018054611457906145ba565b80601f0160208091040260200160405190810160405280929190818152602001828054611483906145ba565b80156114d05780601f106114a5576101008083540402835291602001916114d0565b820191906000526020600020905b8154815290600101906020018083116114b357829003601f168201915b505050505081526020016006820180546114e9906145ba565b80601f0160208091040260200160405190810160405280929190818152602001828054611515906145ba565b80156115625780601f1061153757610100808354040283529160200191611562565b820191906000526020600020905b81548152906001019060200180831161154557829003601f168201915b5050505050815250508486815181106115a4577f4e487b7100000000000000000000000000000000000000000000000000000000600052603260045260246000fd5b60200260200101819052506001856115bc9190614468565b945050505b80806115cc9061461d565b9150506112ba565b508094505050505090565b6000806115eb836126f3565b9050600073ffffffffffffffffffffffffffffffffffffffff168173ffffffffffffffffffffffffffffffffffffffff16141561165d576040517f08c379a000000000000000000000000000000000000000000000000000000000815260040161165490614257565b60405180910390fd5b80915050919050565b60008073ffffffffffffffffffffffffffffffffffffffff168273ffffffffffffffffffffffffffffffffffffffff1614156116d7576040517f08c379a00000000000000000000000000000000000000000000000000000000081526004016116ce90614197565b60405180910390fd5b600360008373ffffffffffffffffffffffffffffffffffffffff1673ffffffffffffffffffffffffffffffffffffffff168152602001908152602001600020549050919050565b60606001805461172d906145ba565b80601f0160208091040260200160405190810160405280929190818152602001828054611759906145ba565b80156117a65780601f1061177b576101008083540402835291602001916117a6565b820191906000526020600020905b81548152906001019060200180831161178957829003601f168201915b5050505050905090565b6117c26117bb612295565b8383612730565b5050565b600a60009054906101000a900473ffffffffffffffffffffffffffffffffffffffff1673ffffffffffffffffffffffffffffffffffffffff163373ffffffffffffffffffffffffffffffffffffffff1614611856576040517f08c379a000000000000000000000000000000000000000000000000000000000815260040161184d90614237565b60405180910390fd5b3373ffffffffffffffffffffffffffffffffffffffff16600a60009054906101000a900473ffffffffffffffffffffffffffffffffffffffff1673ffffffffffffffffffffffffffffffffffffffff16146118e6576040517f08c379a00000000000000000000000000000000000000000000000000000000081526004016118dd906142d7565b60405180910390fd5b8060098190555050565b6119016118fb612295565b83612364565b611940576040517f08c379a000000000000000000000000000000000000000000000000000000000815260040161193790614097565b60405180910390fd5b61194c8484848461289d565b50505050565b6000600b60008381526020019081526020016000206003015490508034146119af576040517f08c379a00000000000000000000000000000000000000000000000000000000081526004016119a6906141d7565b60405180910390fd5b33600b600084815260200190815260200160002060020160006101000a81548173ffffffffffffffffffffffffffffffffffffffff021916908373ffffffffffffffffffffffffffffffffffffffff1602179055506001600b600084815260200190815260200160002060040160006101000a81548160ff0219169083151502179055506000600b600084815260200190815260200160002060010160006101000a81548173ffffffffffffffffffffffffffffffffffffffff021916908373ffffffffffffffffffffffffffffffffffffffff160217905550611a9360086128f9565b611a9e3033846123f9565b600a60009054906101000a900473ffffffffffffffffffffffffffffffffffffffff1673ffffffffffffffffffffffffffffffffffffffff166108fc6009549081150290604051600060405180830381858888f19350505050158015611b08573d6000803e3d6000fd5b50600b600083815260200190815260200160002060010160009054906101000a900473ffffffffffffffffffffffffffffffffffffffff1673ffffffffffffffffffffffffffffffffffffffff166108fc349081150290604051600060405180830381858888f19350505050158015611b85573d6000803e3d6000fd5b505050565b611b9261342d565b611b9b8261057f565b611bda576040517f08c379a0000000000000000000000000000000000000000000000000000000008152600401611bd190614177565b60405180910390fd5b600b60008381526020019081526020016000206040518060e0016040529081600082015481526020016001820160009054906101000a900473ffffffffffffffffffffffffffffffffffffffff1673ffffffffffffffffffffffffffffffffffffffff1673ffffffffffffffffffffffffffffffffffffffff1681526020016002820160009054906101000a900473ffffffffffffffffffffffffffffffffffffffff1673ffffffffffffffffffffffffffffffffffffffff1673ffffffffffffffffffffffffffffffffffffffff168152602001600382015481526020016004820160009054906101000a900460ff16151515158152602001600582018054611ce3906145ba565b80601f0160208091040260200160405190810160405280929190818152602001828054611d0f906145ba565b8015611d5c5780601f10611d3157610100808354040283529160200191611d5c565b820191906000526020600020905b815481529060010190602001808311611d3f57829003601f168201915b50505050508152602001600682018054611d75906145ba565b80601f0160208091040260200160405190810160405280929190818152602001828054611da1906145ba565b8015611dee5780601f10611dc357610100808354040283529160200191611dee565b820191906000526020600020905b815481529060010190602001808311611dd157829003601f168201915b5050505050815250509050919050565b6060611e098261224a565b6000600660008481526020019081526020016000208054611e29906145ba565b80601f0160208091040260200160405190810160405280929190818152602001828054611e55906145ba565b8015611ea25780601f10611e7757610100808354040283529160200191611ea2565b820191906000526020600020905b815481529060010190602001808311611e8557829003601f168201915b505050505090506000611eb361290f565b9050600081511415611ec9578192505050611f0c565b600082511115611efe578082604051602001611ee6929190613f3e565b60405160208183030381529060405292505050611f0c565b611f0784612926565b925050505b919050565b3373ffffffffffffffffffffffffffffffffffffffff16600b600084815260200190815260200160002060020160009054906101000a900473ffffffffffffffffffffffffffffffffffffffff1673ffffffffffffffffffffffffffffffffffffffff1614611fb5576040517f08c379a0000000000000000000000000000000000000000000000000000000008152600401611fac90614217565b60405180910390fd5b6009543414611ff9576040517f08c379a0000000000000000000000000000000000000000000000000000000008152600401611ff090614297565b60405180910390fd5b6000600b600084815260200190815260200160002060040160006101000a81548160ff02191690831515021790555080600b60008481526020019081526020016000206003018190555033600b600084815260200190815260200160002060010160006101000a81548173ffffffffffffffffffffffffffffffffffffffff021916908373ffffffffffffffffffffffffffffffffffffffff16021790555030600b600084815260200190815260200160002060020160006101000a81548173ffffffffffffffffffffffffffffffffffffffff021916908373ffffffffffffffffffffffffffffffffffffffff1602179055506120f7600861298e565b6121023330846123f9565b5050565b600061211260076128f9565b600061211e6007612356565b905061212a33826129ea565b6121348187612c08565b61214081868686612c7c565b80915050949350505050565b6000600560008473ffffffffffffffffffffffffffffffffffffffff1673ffffffffffffffffffffffffffffffffffffffff16815260200190815260200160002060008373ffffffffffffffffffffffffffffffffffffffff1673ffffffffffffffffffffffffffffffffffffffff16815260200190815260200160002060009054906101000a900460ff16905092915050565b60007f01ffc9a7000000000000000000000000000000000000000000000000000000007bffffffffffffffffffffffffffffffffffffffffffffffffffffffff1916827bffffffffffffffffffffffffffffffffffffffffffffffffffffffff1916149050919050565b61225381612ecb565b612292576040517f08c379a000000000000000000000000000000000000000000000000000000000815260040161228990614257565b60405180910390fd5b50565b600033905090565b816004600083815260200190815260200160002060006101000a81548173ffffffffffffffffffffffffffffffffffffffff021916908373ffffffffffffffffffffffffffffffffffffffff160217905550808273ffffffffffffffffffffffffffffffffffffffff16612310836115df565b73ffffffffffffffffffffffffffffffffffffffff167f8c5be1e5ebec7d5bd14f71427d1e84f3dd0314c0f7b2291e5b200ac8c7c3b92560405160405180910390a45050565b600081600001549050919050565b600080612370836115df565b90508073ffffffffffffffffffffffffffffffffffffffff168473ffffffffffffffffffffffffffffffffffffffff1614806123b257506123b1818561214c565b5b806123f057508373ffffffffffffffffffffffffffffffffffffffff166123d884610762565b73ffffffffffffffffffffffffffffffffffffffff16145b91505092915050565b8273ffffffffffffffffffffffffffffffffffffffff16612419826115df565b73ffffffffffffffffffffffffffffffffffffffff161461246f576040517f08c379a0000000000000000000000000000000000000000000000000000000008152600401612466906140f7565b60405180910390fd5b600073ffffffffffffffffffffffffffffffffffffffff168273ffffffffffffffffffffffffffffffffffffffff1614156124df576040517f08c379a00000000000000000000000000000000000000000000000000000000081526004016124d690614137565b60405180910390fd5b6124ec8383836001612f0c565b8273ffffffffffffffffffffffffffffffffffffffff1661250c826115df565b73ffffffffffffffffffffffffffffffffffffffff1614612562576040517f08c379a0000000000000000000000000000000000000000000000000000000008152600401612559906140f7565b60405180910390fd5b6004600082815260200190815260200160002060006101000a81549073ffffffffffffffffffffffffffffffffffffffff02191690556001600360008573ffffffffffffffffffffffffffffffffffffffff1673ffffffffffffffffffffffffffffffffffffffff168152602001908152602001600020600082825403925050819055506001600360008473ffffffffffffffffffffffffffffffffffffffff1673ffffffffffffffffffffffffffffffffffffffff16815260200190815260200160002060008282540192505081905550816002600083815260200190815260200160002060006101000a81548173ffffffffffffffffffffffffffffffffffffffff021916908373ffffffffffffffffffffffffffffffffffffffff160217905550808273ffffffffffffffffffffffffffffffffffffffff168473ffffffffffffffffffffffffffffffffffffffff167fddf252ad1be2c89b69c2b068fc378daa952ba7f163c4a11628f55a4df523b3ef60405160405180910390a46126ee8383836001612f12565b505050565b60006002600083815260200190815260200160002060009054906101000a900473ffffffffffffffffffffffffffffffffffffffff169050919050565b8173ffffffffffffffffffffffffffffffffffffffff168373ffffffffffffffffffffffffffffffffffffffff16141561279f576040517f08c379a000000000000000000000000000000000000000000000000000000000815260040161279690614157565b60405180910390fd5b80600560008573ffffffffffffffffffffffffffffffffffffffff1673ffffffffffffffffffffffffffffffffffffffff16815260200190815260200160002060008473ffffffffffffffffffffffffffffffffffffffff1673ffffffffffffffffffffffffffffffffffffffff16815260200190815260200160002060006101000a81548160ff0219169083151502179055508173ffffffffffffffffffffffffffffffffffffffff168373ffffffffffffffffffffffffffffffffffffffff167f17307eab39ab6107e8899845ad3d59bd9653f200f220920489ca2b5937696c3183604051612890919061405a565b60405180910390a3505050565b6128a88484846123f9565b6128b484848484612f18565b6128f3576040517f08c379a00000000000000000000000000000000000000000000000000000000081526004016128ea906140d7565b60405180910390fd5b50505050565b6001816000016000828254019250508190555050565b606060405180602001604052806000815250905090565b60606129318261224a565b600061293b61290f565b9050600081511161295b5760405180602001604052806000815250612986565b80612965846130af565b604051602001612976929190613f3e565b6040516020818303038152906040525b915050919050565b600081600001549050600081116129da576040517f08c379a00000000000000000000000000000000000000000000000000000000081526004016129d1906140b7565b60405180910390fd5b6001810382600001819055505050565b600073ffffffffffffffffffffffffffffffffffffffff168273ffffffffffffffffffffffffffffffffffffffff161415612a5a576040517f08c379a0000000000000000000000000000000000000000000000000000000008152600401612a51906141f7565b60405180910390fd5b612a6381612ecb565b15612aa3576040517f08c379a0000000000000000000000000000000000000000000000000000000008152600401612a9a90614117565b60405180910390fd5b612ab1600083836001612f0c565b612aba81612ecb565b15612afa576040517f08c379a0000000000000000000000000000000000000000000000000000000008152600401612af190614117565b60405180910390fd5b6001600360008473ffffffffffffffffffffffffffffffffffffffff1673ffffffffffffffffffffffffffffffffffffffff16815260200190815260200160002060008282540192505081905550816002600083815260200190815260200160002060006101000a81548173ffffffffffffffffffffffffffffffffffffffff021916908373ffffffffffffffffffffffffffffffffffffffff160217905550808273ffffffffffffffffffffffffffffffffffffffff16600073ffffffffffffffffffffffffffffffffffffffff167fddf252ad1be2c89b69c2b068fc378daa952ba7f163c4a11628f55a4df523b3ef60405160405180910390a4612c04600083836001612f12565b5050565b612c1182612ecb565b612c50576040517f08c379a0000000000000000000000000000000000000000000000000000000008152600401612c47906141b7565b60405180910390fd5b80600660008481526020019081526020016000209080519060200190612c77929190613498565b505050565b60008311612cbf576040517f08c379a0000000000000000000000000000000000000000000000000000000008152600401612cb6906142f7565b60405180910390fd5b6009543414612d03576040517f08c379a0000000000000000000000000000000000000000000000000000000008152600401612cfa90614297565b60405180910390fd5b6040518060e001604052808581526020013373ffffffffffffffffffffffffffffffffffffffff1681526020013073ffffffffffffffffffffffffffffffffffffffff16815260200184815260200160001515815260200183815260200182815250600b60008681526020019081526020016000206000820151816000015560208201518160010160006101000a81548173ffffffffffffffffffffffffffffffffffffffff021916908373ffffffffffffffffffffffffffffffffffffffff16021790555060408201518160020160006101000a81548173ffffffffffffffffffffffffffffffffffffffff021916908373ffffffffffffffffffffffffffffffffffffffff1602179055506060820151816003015560808201518160040160006101000a81548160ff02191690831515021790555060a0820151816005019080519060200190612e56929190613498565b5060c0820151816006019080519060200190612e73929190613498565b50905050612e823330866123f9565b837f5d85442b762d770d3f8d5da68357afcc24a270db6bdcecaed959e6139200a89633308660008787604051612ebd96959493929190613f7d565b60405180910390a250505050565b60008073ffffffffffffffffffffffffffffffffffffffff16612eed836126f3565b73ffffffffffffffffffffffffffffffffffffffff1614159050919050565b50505050565b50505050565b6000612f398473ffffffffffffffffffffffffffffffffffffffff166131d3565b156130a2578373ffffffffffffffffffffffffffffffffffffffff1663150b7a02612f62612295565b8786866040518563ffffffff1660e01b8152600401612f849493929190613fec565b602060405180830381600087803b158015612f9e57600080fd5b505af1925050508015612fcf57506040513d601f19601f82011682018060405250810190612fcc9190613844565b60015b613052573d8060008114612fff576040519150601f19603f3d011682016040523d82523d6000602084013e613004565b606091505b5060008151141561304a576040517f08c379a0000000000000000000000000000000000000000000000000000000008152600401613041906140d7565b60405180910390fd5b805181602001fd5b63150b7a0260e01b7bffffffffffffffffffffffffffffffffffffffffffffffffffffffff1916817bffffffffffffffffffffffffffffffffffffffffffffffffffffffff1916149150506130a7565b600190505b949350505050565b6060600060016130be846131f6565b01905060008167ffffffffffffffff811115613103577f4e487b7100000000000000000000000000000000000000000000000000000000600052604160045260246000fd5b6040519080825280601f01601f1916602001820160405280156131355781602001600182028036833780820191505090505b509050600082602001820190505b6001156131c8578080600190039150507f3031323334353637383961626364656600000000000000000000000000000000600a86061a8153600a85816131b2577f4e487b7100000000000000000000000000000000000000000000000000000000600052601260045260246000fd5b04945060008514156131c3576131c8565b613143565b819350505050919050565b6000808273ffffffffffffffffffffffffffffffffffffffff163b119050919050565b600080600090507a184f03e93ff9f4daa797ed6e38ed64bf6a1f010000000000000000831061327a577a184f03e93ff9f4daa797ed6e38ed64bf6a1f0100000000000000008381613270577f4e487b7100000000000000000000000000000000000000000000000000000000600052601260045260246000fd5b0492506040810190505b6d04ee2d6d415b85acef810000000083106132dd576d04ee2d6d415b85acef810000000083816132d3577f4e487b7100000000000000000000000000000000000000000000000000000000600052601260045260246000fd5b0492506020810190505b662386f26fc10000831061333257662386f26fc100008381613328577f4e487b7100000000000000000000000000000000000000000000000000000000600052601260045260246000fd5b0492506010810190505b6305f5e1008310613381576305f5e1008381613377577f4e487b7100000000000000000000000000000000000000000000000000000000600052601260045260246000fd5b0492506008810190505b61271083106133cc5761271083816133c2577f4e487b7100000000000000000000000000000000000000000000000000000000600052601260045260246000fd5b0492506004810190505b60648310613415576064838161340b577f4e487b7100000000000000000000000000000000000000000000000000000000600052601260045260246000fd5b0492506002810190505b600a8310613424576001810190505b80915050919050565b6040518060e0016040528060008152602001600073ffffffffffffffffffffffffffffffffffffffff168152602001600073ffffffffffffffffffffffffffffffffffffffff1681526020016000815260200160001515815260200160608152602001606081525090565b8280546134a4906145ba565b90600052602060002090601f0160209004810192826134c6576000855561350d565b82601f106134df57805160ff191683800117855561350d565b8280016001018555821561350d579182015b8281111561350c5782518255916020019190600101906134f1565b5b50905061351a919061351e565b5090565b5b8082111561353757600081600090555060010161351f565b5090565b600061354e61354984614379565b614354565b90508281526020810184848401111561356657600080fd5b613571848285614578565b509392505050565b600061358c613587846143aa565b614354565b9050828152602081018484840111156135a457600080fd5b6135af848285614578565b509392505050565b6000813590506135c681614c26565b92915050565b6000813590506135db81614c3d565b92915050565b6000813590506135f081614c54565b92915050565b60008151905061360581614c54565b92915050565b600082601f83011261361c57600080fd5b813561362c84826020860161353b565b91505092915050565b600082601f83011261364657600080fd5b8135613656848260208601613579565b91505092915050565b60008135905061366e81614c6b565b92915050565b60006020828403121561368657600080fd5b6000613694848285016135b7565b91505092915050565b600080604083850312156136b057600080fd5b60006136be858286016135b7565b92505060206136cf858286016135b7565b9150509250929050565b6000806000606084860312156136ee57600080fd5b60006136fc868287016135b7565b935050602061370d868287016135b7565b925050604061371e8682870161365f565b9150509250925092565b6000806000806080858703121561373e57600080fd5b600061374c878288016135b7565b945050602061375d878288016135b7565b935050604061376e8782880161365f565b925050606085013567ffffffffffffffff81111561378b57600080fd5b6137978782880161360b565b91505092959194509250565b600080604083850312156137b657600080fd5b60006137c4858286016135b7565b92505060206137d5858286016135cc565b9150509250929050565b600080604083850312156137f257600080fd5b6000613800858286016135b7565b92505060206138118582860161365f565b9150509250929050565b60006020828403121561382d57600080fd5b600061383b848285016135e1565b91505092915050565b60006020828403121561385657600080fd5b6000613864848285016135f6565b91505092915050565b6000806000806080858703121561388357600080fd5b600085013567ffffffffffffffff81111561389d57600080fd5b6138a987828801613635565b94505060206138ba8782880161365f565b935050604085013567ffffffffffffffff8111156138d757600080fd5b6138e387828801613635565b925050606085013567ffffffffffffffff81111561390057600080fd5b61390c87828801613635565b91505092959194509250565b60006020828403121561392a57600080fd5b60006139388482850161365f565b91505092915050565b6000806040838503121561395457600080fd5b60006139628582860161365f565b92505060206139738582860161365f565b9150509250929050565b60006139898383613dda565b905092915050565b61399a81614504565b82525050565b6139a9816144f2565b82525050565b60006139ba826143eb565b6139c48185614419565b9350836020820285016139d6856143db565b8060005b85811015613a1257848403895281516139f3858261397d565b94506139fe8361440c565b925060208a019950506001810190506139da565b50829750879550505050505092915050565b613a2d81614516565b82525050565b613a3c81614516565b82525050565b6000613a4d826143f6565b613a57818561442a565b9350613a67818560208601614587565b613a70816146f3565b840191505092915050565b6000613a8682614401565b613a90818561443b565b9350613aa0818560208601614587565b613aa9816146f3565b840191505092915050565b6000613abf82614401565b613ac9818561444c565b9350613ad9818560208601614587565b613ae2816146f3565b840191505092915050565b6000613af882614401565b613b02818561445d565b9350613b12818560208601614587565b80840191505092915050565b6000613b2b602d8361444c565b9150613b3682614704565b604082019050919050565b6000613b4e601b8361444c565b9150613b5982614753565b602082019050919050565b6000613b7160328361444c565b9150613b7c8261477c565b604082019050919050565b6000613b9460258361444c565b9150613b9f826147cb565b604082019050919050565b6000613bb7601c8361444c565b9150613bc28261481a565b602082019050919050565b6000613bda60248361444c565b9150613be582614843565b604082019050919050565b6000613bfd60198361444c565b9150613c0882614892565b602082019050919050565b6000613c2060178361444c565b9150613c2b826148bb565b602082019050919050565b6000613c4360298361444c565b9150613c4e826148e4565b604082019050919050565b6000613c66602e8361444c565b9150613c7182614933565b604082019050919050565b6000613c8960408361444c565b9150613c9482614982565b604082019050919050565b6000613cac60208361444c565b9150613cb7826149d1565b602082019050919050565b6000613ccf602a8361444c565b9150613cda826149fa565b604082019050919050565b6000613cf2603a8361444c565b9150613cfd82614a49565b604082019050919050565b6000613d1560188361444c565b9150613d2082614a98565b602082019050919050565b6000613d3860218361444c565b9150613d4382614ac1565b604082019050919050565b6000613d5b60248361444c565b9150613d6682614b10565b604082019050919050565b6000613d7e603d8361444c565b9150613d8982614b5f565b604082019050919050565b6000613da160308361444c565b9150613dac82614bae565b604082019050919050565b6000613dc4601c8361444c565b9150613dcf82614bfd565b602082019050919050565b600060e083016000830151613df26000860182613f20565b506020830151613e056020860182613991565b506040830151613e186040860182613991565b506060830151613e2b6060860182613f20565b506080830151613e3e6080860182613a24565b5060a083015184820360a0860152613e568282613a7b565b91505060c083015184820360c0860152613e708282613a7b565b9150508091505092915050565b600060e083016000830151613e956000860182613f20565b506020830151613ea86020860182613991565b506040830151613ebb6040860182613991565b506060830151613ece6060860182613f20565b506080830151613ee16080860182613a24565b5060a083015184820360a0860152613ef98282613a7b565b91505060c083015184820360c0860152613f138282613a7b565b9150508091505092915050565b613f298161456e565b82525050565b613f388161456e565b82525050565b6000613f4a8285613aed565b9150613f568284613aed565b91508190509392505050565b6000602082019050613f7760008301846139a0565b92915050565b600060c082019050613f9260008301896139a0565b613f9f60208301886139a0565b613fac6040830187613f2f565b613fb96060830186613a33565b8181036080830152613fcb8185613ab4565b905081810360a0830152613fdf8184613ab4565b9050979650505050505050565b600060808201905061400160008301876139a0565b61400e60208301866139a0565b61401b6040830185613f2f565b818103606083015261402d8184613a42565b905095945050505050565b6000602082019050818103600083015261405281846139af565b905092915050565b600060208201905061406f6000830184613a33565b92915050565b6000602082019050818103600083015261408f8184613ab4565b905092915050565b600060208201905081810360008301526140b081613b1e565b9050919050565b600060208201905081810360008301526140d081613b41565b9050919050565b600060208201905081810360008301526140f081613b64565b9050919050565b6000602082019050818103600083015261411081613b87565b9050919050565b6000602082019050818103600083015261413081613baa565b9050919050565b6000602082019050818103600083015261415081613bcd565b9050919050565b6000602082019050818103600083015261417081613bf0565b9050919050565b6000602082019050818103600083015261419081613c13565b9050919050565b600060208201905081810360008301526141b081613c36565b9050919050565b600060208201905081810360008301526141d081613c59565b9050919050565b600060208201905081810360008301526141f081613c7c565b9050919050565b6000602082019050818103600083015261421081613c9f565b9050919050565b6000602082019050818103600083015261423081613cc2565b9050919050565b6000602082019050818103600083015261425081613ce5565b9050919050565b6000602082019050818103600083015261427081613d08565b9050919050565b6000602082019050818103600083015261429081613d2b565b9050919050565b600060208201905081810360008301526142b081613d4e565b9050919050565b600060208201905081810360008301526142d081613d71565b9050919050565b600060208201905081810360008301526142f081613d94565b9050919050565b6000602082019050818103600083015261431081613db7565b9050919050565b600060208201905081810360008301526143318184613e7d565b905092915050565b600060208201905061434e6000830184613f2f565b92915050565b600061435e61436f565b905061436a82826145ec565b919050565b6000604051905090565b600067ffffffffffffffff821115614394576143936146c4565b5b61439d826146f3565b9050602081019050919050565b600067ffffffffffffffff8211156143c5576143c46146c4565b5b6143ce826146f3565b9050602081019050919050565b6000819050602082019050919050565b600081519050919050565b600081519050919050565b600081519050919050565b6000602082019050919050565b600082825260208201905092915050565b600082825260208201905092915050565b600082825260208201905092915050565b600082825260208201905092915050565b600081905092915050565b60006144738261456e565b915061447e8361456e565b9250827fffffffffffffffffffffffffffffffffffffffffffffffffffffffffffffffff038211156144b3576144b2614666565b5b828201905092915050565b60006144c98261456e565b91506144d48361456e565b9250828210156144e7576144e6614666565b5b828203905092915050565b60006144fd8261454e565b9050919050565b600061450f8261454e565b9050919050565b60008115159050919050565b60007fffffffff0000000000000000000000000000000000000000000000000000000082169050919050565b600073ffffffffffffffffffffffffffffffffffffffff82169050919050565b6000819050919050565b82818337600083830152505050565b60005b838110156145a557808201518184015260208101905061458a565b838111156145b4576000848401525b50505050565b600060028204905060018216806145d257607f821691505b602082108114156145e6576145e5614695565b5b50919050565b6145f5826146f3565b810181811067ffffffffffffffff82111715614614576146136146c4565b5b80604052505050565b60006146288261456e565b91507fffffffffffffffffffffffffffffffffffffffffffffffffffffffffffffffff82141561465b5761465a614666565b5b600182019050919050565b7f4e487b7100000000000000000000000000000000000000000000000000000000600052601160045260246000fd5b7f4e487b7100000000000000000000000000000000000000000000000000000000600052602260045260246000fd5b7f4e487b7100000000000000000000000000000000000000000000000000000000600052604160045260246000fd5b6000601f19601f8301169050919050565b7f4552433732313a2063616c6c6572206973206e6f7420746f6b656e206f776e6560008201527f72206f7220617070726f76656400000000000000000000000000000000000000602082015250565b7f436f756e7465723a2064656372656d656e74206f766572666c6f770000000000600082015250565b7f4552433732313a207472616e7366657220746f206e6f6e20455243373231526560008201527f63656976657220696d706c656d656e7465720000000000000000000000000000602082015250565b7f4552433732313a207472616e736665722066726f6d20696e636f72726563742060008201527f6f776e6572000000000000000000000000000000000000000000000000000000602082015250565b7f4552433732313a20746f6b656e20616c7265616479206d696e74656400000000600082015250565b7f4552433732313a207472616e7366657220746f20746865207a65726f2061646460008201527f7265737300000000000000000000000000000000000000000000000000000000602082015250565b7f4552433732313a20617070726f766520746f2063616c6c657200000000000000600082015250565b7f546f6b656e20494420646f6573206e6f74206578697374000000000000000000600082015250565b7f4552433732313a2061646472657373207a65726f206973206e6f74206120766160008201527f6c6964206f776e65720000000000000000000000000000000000000000000000602082015250565b7f45524337323155524953746f726167653a2055524920736574206f66206e6f6e60008201527f6578697374656e7420746f6b656e000000000000000000000000000000000000602082015250565b7f506c65617365207375626d6974207468652061736b696e67207072696365206960008201527f6e206f7264657220746f20636f6d706c65746520746865207075726368617365602082015250565b7f4552433732313a206d696e7420746f20746865207a65726f2061646472657373600082015250565b7f4f6e6c79206974656d206f776e65722063616e20706572666f726d207468697360008201527f206f7065726174696f6e00000000000000000000000000000000000000000000602082015250565b7f6f6e6c79206f776e6572206f6620746865206d61726b6574706c61636520636160008201527f6e206368616e676520746865206c697374696e67207072696365000000000000602082015250565b7f4552433732313a20696e76616c696420746f6b656e2049440000000000000000600082015250565b7f4552433732313a20617070726f76616c20746f2063757272656e74206f776e6560008201527f7200000000000000000000000000000000000000000000000000000000000000602082015250565b7f5072696365206d75737420626520657175616c20746f206c697374696e67207060008201527f7269636500000000000000000000000000000000000000000000000000000000602082015250565b7f4552433732313a20617070726f76652063616c6c6572206973206e6f7420746f60008201527f6b656e206f776e6572206f7220617070726f76656420666f7220616c6c000000602082015250565b7f4f6e6c79206d61726b6574706c616365206f776e65722063616e20757064617460008201527f65206c697374696e672070726963652e00000000000000000000000000000000602082015250565b7f5072696365206d757374206265206174206c6561737420312077656900000000600082015250565b614c2f816144f2565b8114614c3a57600080fd5b50565b614c4681614516565b8114614c5157600080fd5b50565b614c5d81614522565b8114614c6857600080fd5b50565b614c748161456e565b8114614c7f57600080fd5b5056fea2646970667358221220faf1ee08f8659c3a1bc3262f9c09c5b53df0b1652a66882be89dbdb359eb49fc64736f6c63430008040033",
  "immutableReferences": {},
  "source": "// SPDX-License-Identifier: MIT\r\npragma solidity ^0.8.4;\r\n\r\nimport \"@openzeppelin/contracts/utils/Counters.sol\";\r\nimport \"@openzeppelin/contracts/token/ERC721/extensions/ERC721URIStorage.sol\";\r\nimport \"@openzeppelin/contracts/token/ERC721/ERC721.sol\";\r\n\r\ncontract NFTMarketplace is ERC721URIStorage {\r\n    using Counters for Counters.Counter;\r\n    Counters.Counter private _tokenIds;\r\n    Counters.Counter private _itemsSold;\r\n\r\n    uint256 listingPrice = 0.025 ether;\r\n    address payable owner;\r\n\r\n    mapping(uint256 => MarketItem) private idToMarketItem;\r\n\r\n    struct MarketItem {\r\n        uint256 tokenId;\r\n        address payable seller;\r\n        address payable owner;\r\n        uint256 price;\r\n        bool sold;\r\n        string name;\r\n        string description;\r\n    }\r\n\r\n    event MarketItemCreated(\r\n        uint256 indexed tokenId,\r\n        address seller,\r\n        address owner,\r\n        uint256 price,\r\n        bool sold,\r\n        string name,\r\n        string description\r\n    );\r\n\r\n    modifier onlyOwner() {\r\n        require(\r\n            msg.sender == owner,\r\n            \"only owner of the marketplace can change the listing price\"\r\n        );\r\n        _;\r\n    }\r\n\r\n    constructor() ERC721(\"NFTMarketplace\", \"METT\") {\r\n        owner = payable(msg.sender);\r\n    }\r\n\r\n    /* Updates the listing price of the contract */\r\n    function updateListingPrice(\r\n        uint256 _listingPrice\r\n    ) public payable onlyOwner {\r\n        require(\r\n            owner == msg.sender,\r\n            \"Only marketplace owner can update listing price.\"\r\n        );\r\n        listingPrice = _listingPrice;\r\n    }\r\n\r\n    /* Returns the listing price of the contract */\r\n    function getListingPrice() public view returns (uint256) {\r\n        return listingPrice;\r\n    }\r\n\r\n    /* Mints a token and lists it in the marketplace */\r\n    function createToken(\r\n        string memory tokenURI,\r\n        uint256 price,\r\n        string memory name,\r\n        string memory description\r\n    ) public payable returns (uint256) {\r\n        _tokenIds.increment();\r\n        uint256 newTokenId = _tokenIds.current();\r\n\r\n        _mint(msg.sender, newTokenId);\r\n        _setTokenURI(newTokenId, tokenURI);\r\n        createMarketItem(newTokenId, price, name, description);\r\n        return newTokenId;\r\n    }\r\n\r\n    function createMarketItem(\r\n        uint256 tokenId,\r\n        uint256 price,\r\n        string memory name,\r\n        string memory description\r\n    ) private {\r\n        require(price > 0, \"Price must be at least 1 wei\");\r\n        require(\r\n            msg.value == listingPrice,\r\n            \"Price must be equal to listing price\"\r\n        );\r\n\r\n        idToMarketItem[tokenId] = MarketItem(\r\n            tokenId,\r\n            payable(msg.sender),\r\n            payable(address(this)),\r\n            price,\r\n            false,\r\n            name,\r\n            description\r\n        );\r\n\r\n        _transfer(msg.sender, address(this), tokenId);\r\n        emit MarketItemCreated(\r\n            tokenId,\r\n            msg.sender,\r\n            address(this),\r\n            price,\r\n            false,\r\n            name,\r\n            description\r\n        );\r\n    }\r\n\r\n    /* allows someone to resell a token they have purchased */\r\n    function resellToken(uint256 tokenId, uint256 price) public payable {\r\n        require(\r\n            idToMarketItem[tokenId].owner == msg.sender,\r\n            \"Only item owner can perform this operation\"\r\n        );\r\n        require(\r\n            msg.value == listingPrice,\r\n            \"Price must be equal to listing price\"\r\n        );\r\n        idToMarketItem[tokenId].sold = false;\r\n        idToMarketItem[tokenId].price = price;\r\n        idToMarketItem[tokenId].seller = payable(msg.sender);\r\n        idToMarketItem[tokenId].owner = payable(address(this));\r\n        _itemsSold.decrement();\r\n\r\n        _transfer(msg.sender, address(this), tokenId);\r\n    }\r\n\r\n    /* Creates the sale of a marketplace item */\r\n    /* Transfers ownership of the item, as well as funds between parties */\r\n    function createMarketSale(uint256 tokenId) public payable {\r\n        uint256 price = idToMarketItem[tokenId].price;\r\n        require(\r\n            msg.value == price,\r\n            \"Please submit the asking price in order to complete the purchase\"\r\n        );\r\n        idToMarketItem[tokenId].owner = payable(msg.sender);\r\n        idToMarketItem[tokenId].sold = true;\r\n        idToMarketItem[tokenId].seller = payable(address(0));\r\n        _itemsSold.increment();\r\n        _transfer(address(this), msg.sender, tokenId);\r\n        payable(owner).transfer(listingPrice);\r\n        payable(idToMarketItem[tokenId].seller).transfer(msg.value);\r\n    }\r\n\r\n    /* Returns all unsold market items */\r\n    function fetchMarketItems() public view returns (MarketItem[] memory) {\r\n        uint256 itemCount = _tokenIds.current();\r\n        uint256 unsoldItemCount = _tokenIds.current() - _itemsSold.current();\r\n        uint256 currentIndex = 0;\r\n\r\n        MarketItem[] memory items = new MarketItem[](unsoldItemCount);\r\n        for (uint256 i = 0; i < itemCount; i++) {\r\n            if (idToMarketItem[i + 1].owner == address(this)) {\r\n                uint256 currentId = i + 1;\r\n                MarketItem storage currentItem = idToMarketItem[currentId];\r\n                items[currentIndex] = currentItem;\r\n                currentIndex += 1;\r\n            }\r\n        }\r\n        return items;\r\n    }\r\n\r\n    /* Returns only items that a user has purchased */\r\n    function fetchMyNFTs() public view returns (MarketItem[] memory) {\r\n        uint256 totalItemCount = _tokenIds.current();\r\n        uint256 itemCount = 0;\r\n        uint256 currentIndex = 0;\r\n\r\n        for (uint256 i = 0; i < totalItemCount; i++) {\r\n            if (idToMarketItem[i + 1].owner == msg.sender) {\r\n                itemCount += 1;\r\n            }\r\n        }\r\n\r\n        MarketItem[] memory items = new MarketItem[](itemCount);\r\n        for (uint256 i = 0; i < totalItemCount; i++) {\r\n            if (idToMarketItem[i + 1].owner == msg.sender) {\r\n                uint256 currentId = i + 1;\r\n                MarketItem storage currentItem = idToMarketItem[currentId];\r\n                items[currentIndex] = currentItem;\r\n                currentIndex += 1;\r\n            }\r\n        }\r\n        return items;\r\n    }\r\n\r\n    // Function to check if a token ID exists\r\n    function tokenExists(uint256 tokenId) public view returns (bool) {\r\n        return idToMarketItem[tokenId].owner != address(0);\r\n    }\r\n\r\n    // Function to fetch an item by ID\r\n    function fetchItemWithId(\r\n        uint256 tokenId\r\n    ) public view returns (MarketItem memory) {\r\n        require(tokenExists(tokenId), \"Token ID does not exist\");\r\n\r\n        return idToMarketItem[tokenId];\r\n    }\r\n\r\n    /* Returns only items a user has listed */\r\n    function fetchItemsListed() public view returns (MarketItem[] memory) {\r\n        uint256 totalItemCount = _tokenIds.current();\r\n        uint256 itemCount = 0;\r\n        uint256 currentIndex = 0;\r\n\r\n        for (uint256 i = 0; i < totalItemCount; i++) {\r\n            if (idToMarketItem[i + 1].seller == msg.sender) {\r\n                itemCount += 1;\r\n            }\r\n        }\r\n\r\n        MarketItem[] memory items = new MarketItem[](itemCount);\r\n        for (uint256 i = 0; i < totalItemCount; i++) {\r\n            if (idToMarketItem[i + 1].seller == msg.sender) {\r\n                uint256 currentId = i + 1;\r\n                MarketItem storage currentItem = idToMarketItem[currentId];\r\n                items[currentIndex] = currentItem;\r\n                currentIndex += 1;\r\n            }\r\n        }\r\n        return items;\r\n    }\r\n}\r\n",
  "sourcePath": "C:\\Users\\soham\\OneDrive\\Desktop\\Endgame\\nft-marketplace__frontend\\contracts\\NFTMarketplace.sol",
  "compiler": {
    "name": "solc",
    "version": "0.8.4+commit.c7e474f2.Emscripten.clang"
  },
  "schemaVersion": "3.4.13",
  "updatedAt": "2023-05-25T09:04:50.946Z",
  "networkType": "ethereum",
  "devdoc": {
    "kind": "dev",
    "methods": {
      "approve(address,uint256)": {
        "details": "See {IERC721-approve}."
      },
      "balanceOf(address)": {
        "details": "See {IERC721-balanceOf}."
      },
      "getApproved(uint256)": {
        "details": "See {IERC721-getApproved}."
      },
      "isApprovedForAll(address,address)": {
        "details": "See {IERC721-isApprovedForAll}."
      },
      "name()": {
        "details": "See {IERC721Metadata-name}."
      },
      "ownerOf(uint256)": {
        "details": "See {IERC721-ownerOf}."
      },
      "safeTransferFrom(address,address,uint256)": {
        "details": "See {IERC721-safeTransferFrom}."
      },
      "safeTransferFrom(address,address,uint256,bytes)": {
        "details": "See {IERC721-safeTransferFrom}."
      },
      "setApprovalForAll(address,bool)": {
        "details": "See {IERC721-setApprovalForAll}."
      },
      "supportsInterface(bytes4)": {
        "details": "See {IERC165-supportsInterface}."
      },
      "symbol()": {
        "details": "See {IERC721Metadata-symbol}."
      },
      "tokenURI(uint256)": {
        "details": "See {IERC721Metadata-tokenURI}."
      },
      "transferFrom(address,address,uint256)": {
        "details": "See {IERC721-transferFrom}."
      }
    },
    "version": 1
  },
  "userdoc": {
    "kind": "user",
    "methods": {},
    "version": 1
  }
}